{
  "_format": "hh-sol-artifact-1",
  "contractName": "ProductManager",
  "sourceName": "contracts/ProductManager.sol",
  "abi": [
    {
      "anonymous": false,
      "inputs": [
        {
          "indexed": false,
          "internalType": "string",
          "name": "id",
          "type": "string"
        },
        {
          "indexed": false,
          "internalType": "string",
          "name": "time",
          "type": "string"
        }
      ],
      "name": "approveCertificateEvent",
      "type": "event"
    },
    {
      "anonymous": false,
      "inputs": [
        {
          "indexed": false,
          "internalType": "string",
          "name": "id",
          "type": "string"
        },
        {
          "indexed": false,
          "internalType": "string",
          "name": "time",
          "type": "string"
        }
      ],
      "name": "approveCropEvent",
      "type": "event"
    },
    {
      "anonymous": false,
      "inputs": [
        {
          "indexed": false,
          "internalType": "string",
          "name": "id",
          "type": "string"
        },
        {
          "indexed": false,
          "internalType": "string",
          "name": "time",
          "type": "string"
        }
      ],
      "name": "approveMidTermEvent",
      "type": "event"
    },
    {
      "anonymous": false,
      "inputs": [
        {
          "indexed": false,
          "internalType": "string",
          "name": "id",
          "type": "string"
        },
        {
          "indexed": false,
          "internalType": "string",
          "name": "cropName",
          "type": "string"
        },
        {
          "indexed": false,
          "internalType": "string",
          "name": "location",
          "type": "string"
        },
        {
          "indexed": false,
          "internalType": "string",
          "name": "acre",
          "type": "string"
        },
        {
          "indexed": false,
          "internalType": "uint256",
          "name": "months",
          "type": "uint256"
        },
        {
          "indexed": false,
          "internalType": "uint256",
          "name": "yieldperacre",
          "type": "uint256"
        },
        {
          "indexed": false,
          "internalType": "string",
          "name": "timeofApplied",
          "type": "string"
        }
      ],
      "name": "cropRegisterEvent",
      "type": "event"
    },
    {
      "anonymous": false,
      "inputs": [
        {
          "indexed": false,
          "internalType": "string",
          "name": "id",
          "type": "string"
        },
        {
          "indexed": false,
          "internalType": "string",
          "name": "progress",
          "type": "string"
        },
        {
          "indexed": false,
          "internalType": "uint256",
          "name": "months",
          "type": "uint256"
        },
        {
          "indexed": false,
          "internalType": "string",
          "name": "timeofApplied",
          "type": "string"
        }
      ],
      "name": "midTermRegisterEvent",
      "type": "event"
    },
    {
      "anonymous": false,
      "inputs": [
        {
          "indexed": false,
          "internalType": "string",
          "name": "id",
          "type": "string"
        },
        {
          "indexed": false,
          "internalType": "string",
          "name": "quality",
          "type": "string"
        },
        {
          "indexed": false,
          "internalType": "uint256",
          "name": "quantity",
          "type": "uint256"
        },
        {
          "indexed": false,
          "internalType": "string",
          "name": "category",
          "type": "string"
        },
        {
          "indexed": false,
          "internalType": "uint256",
          "name": "price",
          "type": "uint256"
        },
        {
          "indexed": false,
          "internalType": "string",
          "name": "description",
          "type": "string"
        },
        {
          "indexed": false,
          "internalType": "string",
          "name": "timeofApplied",
          "type": "string"
        }
      ],
      "name": "reqCertificateEvent",
      "type": "event"
    },
    {
      "inputs": [
        {
          "internalType": "string",
          "name": "id",
          "type": "string"
        },
        {
          "internalType": "string",
          "name": "time",
          "type": "string"
        }
      ],
      "name": "approveCertificate",
      "outputs": [],
      "stateMutability": "nonpayable",
      "type": "function"
    },
    {
      "inputs": [
        {
          "internalType": "string",
          "name": "id",
          "type": "string"
        },
        {
          "internalType": "string",
          "name": "time",
          "type": "string"
        }
      ],
      "name": "approveCrop",
      "outputs": [],
      "stateMutability": "nonpayable",
      "type": "function"
    },
    {
      "inputs": [
        {
          "internalType": "string",
          "name": "id",
          "type": "string"
        },
        {
          "internalType": "string",
          "name": "time",
          "type": "string"
        }
      ],
      "name": "approveMidTerm",
      "outputs": [],
      "stateMutability": "nonpayable",
      "type": "function"
    },
    {
      "inputs": [
        {
          "internalType": "string",
          "name": "id",
          "type": "string"
        },
        {
          "internalType": "string",
          "name": "cropName",
          "type": "string"
        },
        {
          "internalType": "string",
          "name": "location",
          "type": "string"
        },
        {
          "internalType": "string",
          "name": "acre",
          "type": "string"
        },
        {
          "internalType": "uint256",
          "name": "months",
          "type": "uint256"
        },
        {
          "internalType": "uint256",
          "name": "yieldperacre",
          "type": "uint256"
        },
        {
          "internalType": "string",
          "name": "timeofApplied",
          "type": "string"
        }
      ],
      "name": "cropRegister",
      "outputs": [],
      "stateMutability": "nonpayable",
      "type": "function"
    },
    {
      "inputs": [],
      "name": "fetchProduct",
      "outputs": [
        {
          "components": [
            {
              "internalType": "string",
              "name": "id",
              "type": "string"
            },
            {
              "internalType": "string",
              "name": "productName",
              "type": "string"
            },
            {
              "internalType": "string",
              "name": "category",
              "type": "string"
            },
            {
              "internalType": "uint256",
              "name": "price",
              "type": "uint256"
            },
            {
              "internalType": "uint256",
              "name": "quantity",
              "type": "uint256"
            },
            {
              "internalType": "address",
              "name": "ETHAddress",
              "type": "address"
            },
            {
              "internalType": "string",
              "name": "description",
              "type": "string"
            },
            {
              "internalType": "string",
              "name": "cropRegistered",
              "type": "string"
            },
            {
              "internalType": "string",
              "name": "cropApproved",
              "type": "string"
            },
            {
              "internalType": "string",
              "name": "midTermRegistered",
              "type": "string"
            },
            {
              "internalType": "string",
              "name": "midTermApproved",
              "type": "string"
            },
            {
              "internalType": "string",
              "name": "certRegistered",
              "type": "string"
            },
            {
              "internalType": "string",
              "name": "certApproved",
              "type": "string"
            }
          ],
          "internalType": "struct ProductManager.Product[]",
          "name": "",
          "type": "tuple[]"
        }
      ],
      "stateMutability": "view",
      "type": "function"
    },
    {
      "inputs": [],
      "name": "getAllCropIds",
      "outputs": [
        {
          "internalType": "string[]",
          "name": "",
          "type": "string[]"
        }
      ],
      "stateMutability": "view",
      "type": "function"
    },
    {
      "inputs": [],
      "name": "getCertificate",
      "outputs": [
        {
          "components": [
            {
              "internalType": "string",
              "name": "id",
              "type": "string"
            },
            {
              "internalType": "string",
              "name": "cropName",
              "type": "string"
            },
            {
              "internalType": "address",
              "name": "ETHAddress",
              "type": "address"
            },
            {
              "internalType": "string",
              "name": "quality",
              "type": "string"
            },
            {
              "internalType": "uint256",
              "name": "quantity",
              "type": "uint256"
            },
            {
              "internalType": "string",
              "name": "category",
              "type": "string"
            },
            {
              "internalType": "uint256",
              "name": "price",
              "type": "uint256"
            },
            {
              "internalType": "string",
              "name": "description",
              "type": "string"
            },
            {
              "internalType": "string",
              "name": "timeofApplied",
              "type": "string"
            },
            {
              "internalType": "string",
              "name": "timeofVerified",
              "type": "string"
            },
            {
              "internalType": "bool",
              "name": "isApproved",
              "type": "bool"
            },
            {
              "internalType": "bool",
              "name": "isDisapproved",
              "type": "bool"
            }
          ],
          "internalType": "struct ProductManager.Certificate[]",
          "name": "",
          "type": "tuple[]"
        }
      ],
      "stateMutability": "view",
      "type": "function"
    },
    {
      "inputs": [],
      "name": "getCrops",
      "outputs": [
        {
          "components": [
            {
              "internalType": "string",
              "name": "id",
              "type": "string"
            },
            {
              "internalType": "string",
              "name": "cropName",
              "type": "string"
            },
            {
              "internalType": "address",
              "name": "ETHAddress",
              "type": "address"
            },
            {
              "internalType": "string",
              "name": "location",
              "type": "string"
            },
            {
              "internalType": "string",
              "name": "acre",
              "type": "string"
            },
            {
              "internalType": "uint256",
              "name": "months",
              "type": "uint256"
            },
            {
              "internalType": "uint256",
              "name": "yieldperacre",
              "type": "uint256"
            },
            {
              "internalType": "string",
              "name": "timeofApplied",
              "type": "string"
            },
            {
              "internalType": "string",
              "name": "timeofVerified",
              "type": "string"
            },
            {
              "internalType": "bool",
              "name": "isApproved",
              "type": "bool"
            },
            {
              "internalType": "bool",
              "name": "isDisapproved",
              "type": "bool"
            }
          ],
          "internalType": "struct CropManager.Crop[]",
          "name": "",
          "type": "tuple[]"
        }
      ],
      "stateMutability": "view",
      "type": "function"
    },
    {
      "inputs": [],
      "name": "getMidTerm",
      "outputs": [
        {
          "components": [
            {
              "internalType": "string",
              "name": "id",
              "type": "string"
            },
            {
              "internalType": "string",
              "name": "cropName",
              "type": "string"
            },
            {
              "internalType": "string",
              "name": "progress",
              "type": "string"
            },
            {
              "internalType": "uint256",
              "name": "months",
              "type": "uint256"
            },
            {
              "internalType": "string",
              "name": "timeofApplied",
              "type": "string"
            },
            {
              "internalType": "string",
              "name": "timeofVerified",
              "type": "string"
            },
            {
              "internalType": "bool",
              "name": "isApproved",
              "type": "bool"
            },
            {
              "internalType": "bool",
              "name": "isDisapproved",
              "type": "bool"
            }
          ],
          "internalType": "struct CropManager.MidTerm[]",
          "name": "",
          "type": "tuple[]"
        }
      ],
      "stateMutability": "view",
      "type": "function"
    },
    {
      "inputs": [
        {
          "internalType": "string",
          "name": "id",
          "type": "string"
        },
        {
          "internalType": "string",
          "name": "progress",
          "type": "string"
        },
        {
          "internalType": "uint256",
          "name": "months",
          "type": "uint256"
        },
        {
          "internalType": "string",
          "name": "timeofApplied",
          "type": "string"
        }
      ],
      "name": "midTermRegister",
      "outputs": [],
      "stateMutability": "nonpayable",
      "type": "function"
    },
    {
      "inputs": [
        {
          "internalType": "string",
          "name": "id",
          "type": "string"
        },
        {
          "internalType": "string",
          "name": "quality",
          "type": "string"
        },
        {
          "internalType": "uint256",
          "name": "quantity",
          "type": "uint256"
        },
        {
          "internalType": "string",
          "name": "category",
          "type": "string"
        },
        {
          "internalType": "uint256",
          "name": "price",
          "type": "uint256"
        },
        {
          "internalType": "string",
          "name": "description",
          "type": "string"
        },
        {
          "internalType": "string",
          "name": "timeofApplied",
          "type": "string"
        }
      ],
      "name": "reqCertificate",
      "outputs": [],
      "stateMutability": "nonpayable",
      "type": "function"
    }
  ],
  "bytecode": "0x608060405234801561001057600080fd5b50613e41806100206000396000f3fe608060405234801561001057600080fd5b50600436106100a95760003560e01c8063ae15eb8e11610071578063ae15eb8e1461011c578063c851c62f14610131578063dbf9dcf114610144578063e07bb0b514610159578063e1a6669a1461016c578063f53a75031461017f57600080fd5b80630c2b4a09146100ae5780635f073f3a146100c35780637c77c16d146100e15780637e348605146100f657806383f101b214610109575b600080fd5b6100c16100bc366004613203565b610194565b005b6100cb6106e3565b6040516100d89190613338565b60405180910390f35b6100e9610b03565b6040516100d89190613484565b6100c161010436600461357d565b610e67565b6100c16101173660046135e1565b6110af565b6101246114de565b6040516100d89190613673565b6100c161013f36600461357d565b611987565b61014c611bc7565b6040516100d891906137cd565b6100c161016736600461394e565b6121fd565b6100c161017a36600461357d565b6123bd565b610187612e9a565b6040516100d89190613a17565b8660008060008060005b60005481101561026f57856040516020016101b99190613a7b565b60405160208183030381529060405280519060200120600082815481106101e2576101e2613a97565b90600052602060002090600a02016000016040516020016102039190613ae1565b604051602081830303815290604052805190602001200361022357600194505b336001600160a01b03166000828154811061024057610240613a97565b600091825260209091206002600a9092020101546001600160a01b03160361026757600193505b60010161019e565b5060005b60015481101561032f578560405160200161028e9190613a7b565b60405160208183030381529060405280519060200120600182815481106102b7576102b7613a97565b90600052602060002090600702016000016040516020016102d89190613ae1565b6040516020818303038152906040528051906020012003610327576001818154811061030657610306613a97565b600091825260209091206006600790920201015460ff161561032757600192505b600101610273565b5060005b6002548110156103ef578560405160200161034e9190613a7b565b604051602081830303815290604052805190602001206002828154811061037757610377613a97565b90600052602060002090600b02016000016040516020016103989190613ae1565b60405160208183030381529060405280519060200120036103e757600281815481106103c6576103c6613a97565b60009182526020909120600a600b90920201015460ff16156103e757600191505b600101610333565b50836104365760405162461bcd60e51b815260206004820152601160248201527010dc9bdc081251081b9bdd08199bdd5b99607a1b60448201526064015b60405180910390fd5b826104535760405162461bcd60e51b815260040161042d90613b57565b816104a05760405162461bcd60e51b815260206004820152601760248201527f4d69645465726d206973206e6f7420617070726f766564000000000000000000604482015260640161042d565b80156104ee5760405162461bcd60e51b815260206004820152601f60248201527f436572746966696361746520697320616c726561647920617070726f76656400604482015260640161042d565b60006104f98d612fd5565b60408051610180810182528f8152602081018390523391810191909152606081018e9052608081018d905260a081018c905260c081018b905260e081018a90526101008101899052610120810189905260006101408201819052610160820181905260028054600181018255915281519293509091600b9091027f405787fa12a823e0f2b7631cc41b3ba8828b3321ca811111fa75cd3aa3bb5ace019081906105a29082613beb565b50602082015160018201906105b79082613beb565b5060408201516002820180546001600160a01b0319166001600160a01b03909216919091179055606082015160038201906105f29082613beb565b506080820151600482015560a082015160058201906106119082613beb565b5060c0820151600682015560e082015160078201906106309082613beb565b5061010082015160088201906106469082613beb565b50610120820151600982019061065c9082613beb565b50610140820151600a90910180546101609093015115156101000261ff00199215159290921661ffff19909316929092171790556040517fddb2c9d33a22403118552386f61b9c3db64d66f0b3a3e5832c0ace45a2189743906106cc908f908f908f908f908f908f908f90613cab565b60405180910390a150505050505050505050505050565b60606000805480602002602001604051908101604052809291908181526020016000905b82821015610afa57838290600052602060002090600a02016040518061016001604052908160008201805461073b90613aad565b80601f016020809104026020016040519081016040528092919081815260200182805461076790613aad565b80156107b45780601f10610789576101008083540402835291602001916107b4565b820191906000526020600020905b81548152906001019060200180831161079757829003601f168201915b505050505081526020016001820180546107cd90613aad565b80601f01602080910402602001604051908101604052809291908181526020018280546107f990613aad565b80156108465780601f1061081b57610100808354040283529160200191610846565b820191906000526020600020905b81548152906001019060200180831161082957829003601f168201915b505050918352505060028201546001600160a01b0316602082015260038201805460409092019161087690613aad565b80601f01602080910402602001604051908101604052809291908181526020018280546108a290613aad565b80156108ef5780601f106108c4576101008083540402835291602001916108ef565b820191906000526020600020905b8154815290600101906020018083116108d257829003601f168201915b5050505050815260200160048201805461090890613aad565b80601f016020809104026020016040519081016040528092919081815260200182805461093490613aad565b80156109815780601f1061095657610100808354040283529160200191610981565b820191906000526020600020905b81548152906001019060200180831161096457829003601f168201915b5050505050815260200160058201548152602001600682015481526020016007820180546109ae90613aad565b80601f01602080910402602001604051908101604052809291908181526020018280546109da90613aad565b8015610a275780601f106109fc57610100808354040283529160200191610a27565b820191906000526020600020905b815481529060010190602001808311610a0a57829003601f168201915b50505050508152602001600882018054610a4090613aad565b80601f0160208091040260200160405190810160405280929190818152602001828054610a6c90613aad565b8015610ab95780601f10610a8e57610100808354040283529160200191610ab9565b820191906000526020600020905b815481529060010190602001808311610a9c57829003601f168201915b50505091835250506009919091015460ff80821615156020808501919091526101009092041615156040909201919091529082526001929092019101610707565b50505050905090565b60606001805480602002602001604051908101604052809291908181526020016000905b82821015610afa578382906000526020600020906007020160405180610100016040529081600082018054610b5b90613aad565b80601f0160208091040260200160405190810160405280929190818152602001828054610b8790613aad565b8015610bd45780601f10610ba957610100808354040283529160200191610bd4565b820191906000526020600020905b815481529060010190602001808311610bb757829003601f168201915b50505050508152602001600182018054610bed90613aad565b80601f0160208091040260200160405190810160405280929190818152602001828054610c1990613aad565b8015610c665780601f10610c3b57610100808354040283529160200191610c66565b820191906000526020600020905b815481529060010190602001808311610c4957829003601f168201915b50505050508152602001600282018054610c7f90613aad565b80601f0160208091040260200160405190810160405280929190818152602001828054610cab90613aad565b8015610cf85780601f10610ccd57610100808354040283529160200191610cf8565b820191906000526020600020905b815481529060010190602001808311610cdb57829003601f168201915b5050505050815260200160038201548152602001600482018054610d1b90613aad565b80601f0160208091040260200160405190810160405280929190818152602001828054610d4790613aad565b8015610d945780601f10610d6957610100808354040283529160200191610d94565b820191906000526020600020905b815481529060010190602001808311610d7757829003601f168201915b50505050508152602001600582018054610dad90613aad565b80601f0160208091040260200160405190810160405280929190818152602001828054610dd990613aad565b8015610e265780601f10610dfb57610100808354040283529160200191610e26565b820191906000526020600020905b815481529060010190602001808311610e0957829003601f168201915b50505091835250506006919091015460ff80821615156020808501919091526101009092041615156040909201919091529082526001929092019101610b27565b816000805b600054811015610f255782604051602001610e879190613a7b565b6040516020818303038152906040528051906020012060008281548110610eb057610eb0613a97565b90600052602060002090600a0201600001604051602001610ed19190613ae1565b6040516020818303038152906040528051906020012003610f1d5760008181548110610eff57610eff613a97565b600091825260209091206009600a90920201015460ff169150610f25565b600101610e6c565b508015610f745760405162461bcd60e51b815260206004820152601860248201527f43726f7020697320616c726561647920617070726f7665640000000000000000604482015260640161042d565b60005b6000548110156110a85784604051602001610f929190613a7b565b6040516020818303038152906040528051906020012060008281548110610fbb57610fbb613a97565b90600052602060002090600a0201600001604051602001610fdc9190613ae1565b60405160208183030381529060405280519060200120036110a05760016000828154811061100c5761100c613a97565b90600052602060002090600a020160090160006101000a81548160ff021916908315150217905550836000828154811061104857611048613a97565b90600052602060002090600a020160080190816110659190613beb565b507f7d8a46572949673dbecd78e7e8212fc91cad672dcafd6b90292bc1940ff542bc8585604051611097929190613d26565b60405180910390a15b600101610f77565b5050505050565b8360008060008060005b60005481101561128257856040516020016110d49190613a7b565b60405160208183030381529060405280519060200120600082815481106110fd576110fd613a97565b90600052602060002090600a020160000160405160200161111e9190613ae1565b604051602081830303815290604052805190602001200361127a57600194506000818154811061115057611150613a97565b600091825260209091206009600a90920201015460ff1615611231576001925060005b60015481101561122f578660405160200161118e9190613a7b565b60405160208183030381529060405280519060200120600182815481106111b7576111b7613a97565b90600052602060002090600702016000016040516020016111d89190613ae1565b6040516020818303038152906040528051906020012003611227576001818154811061120657611206613a97565b600091825260209091206006600790920201015460ff161561122757600192505b600101611173565b505b336001600160a01b03166000828154811061124e5761124e613a97565b600091825260209091206002600a9092020101546001600160a01b03160361127557600193505b611282565b6001016110b9565b50836112c45760405162461bcd60e51b815260206004820152601160248201527010dc9bdc081251081b9bdd08199bdd5b99607a1b604482015260640161042d565b826112e15760405162461bcd60e51b815260040161042d90613b57565b816113255760405162461bcd60e51b815260206004820152601460248201527310dc9bdc081a5cc81b9bdd08185c1c1c9bdd995960621b604482015260640161042d565b80156113735760405162461bcd60e51b815260206004820152601b60248201527f4d69647465726d20697320616c726561647920617070726f7665640000000000604482015260640161042d565b600061137e8a612fd5565b60408051610100810182528c8152602081018390529081018b9052606081018a90526080810189905260a08101899052600060c0820181905260e0820181905260018054808201825591528151929350909160079091027fb10e2d527612073b26eecdfd717e6a320cf44b4afac2b0732d9fcbe2b7fa0cf6019081906114049082613beb565b50602082015160018201906114199082613beb565b506040820151600282019061142e9082613beb565b50606082015160038201556080820151600482019061144d9082613beb565b5060a082015160058201906114629082613beb565b5060c08201516006909101805460e09093015115156101000261ff00199215159290921661ffff19909316929092171790556040517f1c3c24898f0d1f35a0a4bf854529b7cddc4a9d7bdaac168098c029a36c8b3605906114ca908c908c908c908c90613d54565b60405180910390a150505050505050505050565b60606002805480602002602001604051908101604052809291908181526020016000905b82821015610afa57838290600052602060002090600b02016040518061018001604052908160008201805461153690613aad565b80601f016020809104026020016040519081016040528092919081815260200182805461156290613aad565b80156115af5780601f10611584576101008083540402835291602001916115af565b820191906000526020600020905b81548152906001019060200180831161159257829003601f168201915b505050505081526020016001820180546115c890613aad565b80601f01602080910402602001604051908101604052809291908181526020018280546115f490613aad565b80156116415780601f1061161657610100808354040283529160200191611641565b820191906000526020600020905b81548152906001019060200180831161162457829003601f168201915b505050918352505060028201546001600160a01b0316602082015260038201805460409092019161167190613aad565b80601f016020809104026020016040519081016040528092919081815260200182805461169d90613aad565b80156116ea5780601f106116bf576101008083540402835291602001916116ea565b820191906000526020600020905b8154815290600101906020018083116116cd57829003601f168201915b505050505081526020016004820154815260200160058201805461170d90613aad565b80601f016020809104026020016040519081016040528092919081815260200182805461173990613aad565b80156117865780601f1061175b57610100808354040283529160200191611786565b820191906000526020600020905b81548152906001019060200180831161176957829003601f168201915b50505050508152602001600682015481526020016007820180546117a990613aad565b80601f01602080910402602001604051908101604052809291908181526020018280546117d590613aad565b80156118225780601f106117f757610100808354040283529160200191611822565b820191906000526020600020905b81548152906001019060200180831161180557829003601f168201915b5050505050815260200160088201805461183b90613aad565b80601f016020809104026020016040519081016040528092919081815260200182805461186790613aad565b80156118b45780601f10611889576101008083540402835291602001916118b4565b820191906000526020600020905b81548152906001019060200180831161189757829003601f168201915b505050505081526020016009820180546118cd90613aad565b80601f01602080910402602001604051908101604052809291908181526020018280546118f990613aad565b80156119465780601f1061191b57610100808354040283529160200191611946565b820191906000526020600020905b81548152906001019060200180831161192957829003601f168201915b5050509183525050600a919091015460ff80821615156020808501919091526101009092041615156040909201919091529082526001929092019101611502565b816000805b600154811015611a4557826040516020016119a79190613a7b565b60405160208183030381529060405280519060200120600182815481106119d0576119d0613a97565b90600052602060002090600702016000016040516020016119f19190613ae1565b6040516020818303038152906040528051906020012003611a3d5760018181548110611a1f57611a1f613a97565b600091825260209091206006600790920201015460ff169150611a45565b60010161198c565b508015611a945760405162461bcd60e51b815260206004820152601b60248201527f4d69645465726d20697320616c726561647920617070726f7665640000000000604482015260640161042d565b60005b6001548110156110a85784604051602001611ab29190613a7b565b6040516020818303038152906040528051906020012060018281548110611adb57611adb613a97565b9060005260206000209060070201600001604051602001611afc9190613ae1565b6040516020818303038152906040528051906020012003611bbf576001808281548110611b2b57611b2b613a97565b906000526020600020906007020160060160006101000a81548160ff0219169083151502179055508360018281548110611b6757611b67613a97565b90600052602060002090600702016005019081611b849190613beb565b507f6bcc96769d450787abe84c5e24852350d0228ef324aeba3962acb7eba900aec78585604051611bb6929190613d26565b60405180910390a15b600101611a97565b60606003805480602002602001604051908101604052809291908181526020016000905b82821015610afa57838290600052602060002090600d0201604051806101a0016040529081600082018054611c1f90613aad565b80601f0160208091040260200160405190810160405280929190818152602001828054611c4b90613aad565b8015611c985780601f10611c6d57610100808354040283529160200191611c98565b820191906000526020600020905b815481529060010190602001808311611c7b57829003601f168201915b50505050508152602001600182018054611cb190613aad565b80601f0160208091040260200160405190810160405280929190818152602001828054611cdd90613aad565b8015611d2a5780601f10611cff57610100808354040283529160200191611d2a565b820191906000526020600020905b815481529060010190602001808311611d0d57829003601f168201915b50505050508152602001600282018054611d4390613aad565b80601f0160208091040260200160405190810160405280929190818152602001828054611d6f90613aad565b8015611dbc5780601f10611d9157610100808354040283529160200191611dbc565b820191906000526020600020905b815481529060010190602001808311611d9f57829003601f168201915b5050509183525050600382015460208201526004820154604082015260058201546001600160a01b03166060820152600682018054608090920191611e0090613aad565b80601f0160208091040260200160405190810160405280929190818152602001828054611e2c90613aad565b8015611e795780601f10611e4e57610100808354040283529160200191611e79565b820191906000526020600020905b815481529060010190602001808311611e5c57829003601f168201915b50505050508152602001600782018054611e9290613aad565b80601f0160208091040260200160405190810160405280929190818152602001828054611ebe90613aad565b8015611f0b5780601f10611ee057610100808354040283529160200191611f0b565b820191906000526020600020905b815481529060010190602001808311611eee57829003601f168201915b50505050508152602001600882018054611f2490613aad565b80601f0160208091040260200160405190810160405280929190818152602001828054611f5090613aad565b8015611f9d5780601f10611f7257610100808354040283529160200191611f9d565b820191906000526020600020905b815481529060010190602001808311611f8057829003601f168201915b50505050508152602001600982018054611fb690613aad565b80601f0160208091040260200160405190810160405280929190818152602001828054611fe290613aad565b801561202f5780601f106120045761010080835404028352916020019161202f565b820191906000526020600020905b81548152906001019060200180831161201257829003601f168201915b50505050508152602001600a8201805461204890613aad565b80601f016020809104026020016040519081016040528092919081815260200182805461207490613aad565b80156120c15780601f10612096576101008083540402835291602001916120c1565b820191906000526020600020905b8154815290600101906020018083116120a457829003601f168201915b50505050508152602001600b820180546120da90613aad565b80601f016020809104026020016040519081016040528092919081815260200182805461210690613aad565b80156121535780601f1061212857610100808354040283529160200191612153565b820191906000526020600020905b81548152906001019060200180831161213657829003601f168201915b50505050508152602001600c8201805461216c90613aad565b80601f016020809104026020016040519081016040528092919081815260200182805461219890613aad565b80156121e55780601f106121ba576101008083540402835291602001916121e5565b820191906000526020600020905b8154815290600101906020018083116121c857829003601f168201915b50505050508152505081526020019060010190611beb565b6040805161016081018252888152602081018890523391810191909152606081018690526080810185905260a0810184905260c0810183905260e08101829052610100810182905260006101208201819052610140820181905280546001810182559080528151600a9091027f290decd9548b62a8d60345a988386fc84ba6bc95484008f6362f93160ef3e563019081906122989082613beb565b50602082015160018201906122ad9082613beb565b5060408201516002820180546001600160a01b0319166001600160a01b03909216919091179055606082015160038201906122e89082613beb565b50608082015160048201906122fd9082613beb565b5060a0820151600582015560c0820151600682015560e082015160078201906123269082613beb565b50610100820151600882019061233c9082613beb565b50610120820151600990910180546101409093015115156101000261ff00199215159290921661ffff19909316929092171790556040517fc22020035c625f99d852f1f135f80d5408f7498e744d034aea3633f08f0d4632906123ac908990899089908990899089908990613d9e565b60405180910390a150505050505050565b816000805b60025481101561247b57826040516020016123dd9190613a7b565b604051602081830303815290604052805190602001206002828154811061240657612406613a97565b90600052602060002090600b02016000016040516020016124279190613ae1565b6040516020818303038152906040528051906020012003612473576002818154811061245557612455613a97565b60009182526020909120600a600b90920201015460ff16915061247b565b6001016123c2565b5080156124ca5760405162461bcd60e51b815260206004820152601f60248201527f436572746966696361746520697320616c726561647920617070726f76656400604482015260640161042d565b60005b600254811015612e5a57846040516020016124e89190613a7b565b604051602081830303815290604052805190602001206002828154811061251157612511613a97565b90600052602060002090600b02016000016040516020016125329190613ae1565b6040516020818303038152906040528051906020012003612e525760016002828154811061256257612562613a97565b90600052602060002090600b0201600a0160006101000a81548160ff021916908315150217905550836002828154811061259e5761259e613a97565b90600052602060002090600b020160090190816125bb9190613beb565b5060608060608060005b6000548110156127b057896040516020016125e09190613a7b565b604051602081830303815290604052805190602001206000828154811061260957612609613a97565b90600052602060002090600a020160000160405160200161262a9190613ae1565b60405160208183030381529060405280519060200120036127a8576000818154811061265857612658613a97565b90600052602060002090600a0201600701805461267490613aad565b80601f01602080910402602001604051908101604052809291908181526020018280546126a090613aad565b80156126ed5780601f106126c2576101008083540402835291602001916126ed565b820191906000526020600020905b8154815290600101906020018083116126d057829003601f168201915b505050505094506000818154811061270757612707613a97565b90600052602060002090600a0201600801805461272390613aad565b80601f016020809104026020016040519081016040528092919081815260200182805461274f90613aad565b801561279c5780601f106127715761010080835404028352916020019161279c565b820191906000526020600020905b81548152906001019060200180831161277f57829003601f168201915b505050505093506127b0565b6001016125c5565b5060005b60015481101561299f57896040516020016127cf9190613a7b565b60405160208183030381529060405280519060200120600182815481106127f8576127f8613a97565b90600052602060002090600702016000016040516020016128199190613ae1565b6040516020818303038152906040528051906020012003612997576001818154811061284757612847613a97565b9060005260206000209060070201600401805461286390613aad565b80601f016020809104026020016040519081016040528092919081815260200182805461288f90613aad565b80156128dc5780601f106128b1576101008083540402835291602001916128dc565b820191906000526020600020905b8154815290600101906020018083116128bf57829003601f168201915b50505050509250600181815481106128f6576128f6613a97565b9060005260206000209060070201600501805461291290613aad565b80601f016020809104026020016040519081016040528092919081815260200182805461293e90613aad565b801561298b5780601f106129605761010080835404028352916020019161298b565b820191906000526020600020905b81548152906001019060200180831161296e57829003601f168201915b5050505050915061299f565b6001016127b4565b506003604051806101a001604052808b8152602001600288815481106129c7576129c7613a97565b90600052602060002090600b020160010180546129e390613aad565b80601f0160208091040260200160405190810160405280929190818152602001828054612a0f90613aad565b8015612a5c5780601f10612a3157610100808354040283529160200191612a5c565b820191906000526020600020905b815481529060010190602001808311612a3f57829003601f168201915b5050505050815260200160028881548110612a7957612a79613a97565b90600052602060002090600b02016005018054612a9590613aad565b80601f0160208091040260200160405190810160405280929190818152602001828054612ac190613aad565b8015612b0e5780601f10612ae357610100808354040283529160200191612b0e565b820191906000526020600020905b815481529060010190602001808311612af157829003601f168201915b5050505050815260200160028881548110612b2b57612b2b613a97565b90600052602060002090600b020160060154815260200160028881548110612b5557612b55613a97565b90600052602060002090600b020160040154815260200160028881548110612b7f57612b7f613a97565b60009182526020918290206002600b909202018101546001600160a01b031683528054929091019189908110612bb757612bb7613a97565b90600052602060002090600b02016007018054612bd390613aad565b80601f0160208091040260200160405190810160405280929190818152602001828054612bff90613aad565b8015612c4c5780601f10612c2157610100808354040283529160200191612c4c565b820191906000526020600020905b815481529060010190602001808311612c2f57829003601f168201915b5050505050815260200186815260200185815260200184815260200183815260200160028881548110612c8157612c81613a97565b90600052602060002090600b02016008018054612c9d90613aad565b80601f0160208091040260200160405190810160405280929190818152602001828054612cc990613aad565b8015612d165780601f10612ceb57610100808354040283529160200191612d16565b820191906000526020600020905b815481529060010190602001808311612cf957829003601f168201915b505050918352505060209081018b905282546001810184556000938452922081519192600d0201908190612d4a9082613beb565b5060208201516001820190612d5f9082613beb565b5060408201516002820190612d749082613beb565b50606082015160038201556080820151600482015560a08201516005820180546001600160a01b0319166001600160a01b0390921691909117905560c08201516006820190612dc39082613beb565b5060e08201516007820190612dd89082613beb565b506101008201516008820190612dee9082613beb565b506101208201516009820190612e049082613beb565b50610140820151600a820190612e1a9082613beb565b50610160820151600b820190612e309082613beb565b50610180820151600c820190612e469082613beb565b50505050505050612e5a565b6001016124cd565b507f3ee3e8930da41d543552da6e34cbc398956870864421f02f19b357e53c5d692c8484604051612e8c929190613d26565b60405180910390a150505050565b600080546060919067ffffffffffffffff811115612eba57612eba613160565b604051908082528060200260200182016040528015612eed57816020015b6060815260200190600190039081612ed85790505b50905060005b600054811015612fcf5760008181548110612f1057612f10613a97565b90600052602060002090600a02016000018054612f2c90613aad565b80601f0160208091040260200160405190810160405280929190818152602001828054612f5890613aad565b8015612fa55780601f10612f7a57610100808354040283529160200191612fa5565b820191906000526020600020905b815481529060010190602001808311612f8857829003601f168201915b5050505050828281518110612fbc57612fbc613a97565b6020908102919091010152600101612ef3565b50919050565b606060005b6000548110156131175782604051602001612ff59190613a7b565b604051602081830303815290604052805190602001206000828154811061301e5761301e613a97565b90600052602060002090600a020160000160405160200161303f9190613ae1565b604051602081830303815290604052805190602001200361310f576000818154811061306d5761306d613a97565b90600052602060002090600a0201600101805461308990613aad565b80601f01602080910402602001604051908101604052809291908181526020018280546130b590613aad565b80156131025780601f106130d757610100808354040283529160200191613102565b820191906000526020600020905b8154815290600101906020018083116130e557829003601f168201915b5050505050915050919050565b600101612fda565b5060405162461bcd60e51b815260206004820152601c60248201527f43726f70207769746820676976656e206964206e6f7420666f756e6400000000604482015260640161042d565b634e487b7160e01b600052604160045260246000fd5b600082601f83011261318757600080fd5b813567ffffffffffffffff808211156131a2576131a2613160565b604051601f8301601f19908116603f011681019082821181831017156131ca576131ca613160565b816040528381528660208588010111156131e357600080fd5b836020870160208301376000602085830101528094505050505092915050565b600080600080600080600060e0888a03121561321e57600080fd5b873567ffffffffffffffff8082111561323657600080fd5b6132428b838c01613176565b985060208a013591508082111561325857600080fd5b6132648b838c01613176565b975060408a0135965060608a013591508082111561328157600080fd5b61328d8b838c01613176565b955060808a0135945060a08a01359150808211156132aa57600080fd5b6132b68b838c01613176565b935060c08a01359150808211156132cc57600080fd5b506132d98a828b01613176565b91505092959891949750929550565b60005b838110156133035781810151838201526020016132eb565b50506000910152565b600081518084526133248160208601602086016132e8565b601f01601f19169290920160200192915050565b600060208083018184528085518083526040925060408601915060408160051b87010184880160005b8381101561347657603f19898403018552815161016081518186526133888287018261330c565b915050888201518582038a8701526133a0828261330c565b915050878201516133bb898701826001600160a01b03169052565b50606080830151868303828801526133d3838261330c565b92505050608080830151868303828801526133ee838261330c565b9250505060a080830151818701525060c080830151818701525060e0808301518683038288015261341f838261330c565b92505050610100808301518683038288015261343b838261330c565b92505050610120808301516134538288018215159052565b505061014091820151151594909101939093529386019390860190600101613361565b509098975050505050505050565b600060208083018184528085518083526040925060408601915060408160051b87010184880160005b8381101561347657603f19898403018552815161010081518186526134d48287018261330c565b915050888201518582038a8701526134ec828261330c565b9150508782015185820389870152613504828261330c565b915050606080830151818701525060808083015186830382880152613529838261330c565b9250505060a08083015186830382880152613544838261330c565b9250505060c08083015161355b8288018215159052565b505060e0918201511515949091019390935293860193908601906001016134ad565b6000806040838503121561359057600080fd5b823567ffffffffffffffff808211156135a857600080fd5b6135b486838701613176565b935060208501359150808211156135ca57600080fd5b506135d785828601613176565b9150509250929050565b600080600080608085870312156135f757600080fd5b843567ffffffffffffffff8082111561360f57600080fd5b61361b88838901613176565b9550602087013591508082111561363157600080fd5b61363d88838901613176565b945060408701359350606087013591508082111561365a57600080fd5b5061366787828801613176565b91505092959194509250565b600060208083018184528085518083526040925060408601915060408160051b87010184880160005b8381101561347657603f19898403018552815161018081518186526136c38287018261330c565b915050888201518582038a8701526136db828261330c565b915050878201516136f6898701826001600160a01b03169052565b506060808301518683038288015261370e838261330c565b92505050608080830151818701525060a08083015186830382880152613734838261330c565b9250505060c080830151818701525060e0808301518683038288015261375a838261330c565b925050506101008083015186830382880152613776838261330c565b925050506101208083015186830382880152613792838261330c565b92505050610140808301516137aa8288018215159052565b50506101609182015115159490910193909352938601939086019060010161369c565b600060208083018184528085518083526040925060408601915060408160051b87010184880160005b8381101561347657603f1989840301855281516101a0815181865261381d8287018261330c565b915050888201518582038a870152613835828261330c565b915050878201518582038987015261384d828261330c565b606084810151908801526080808501519088015260a0808501516001600160a01b03169088015260c080850151888303828a01529193509150613890838261330c565b9250505060e080830151868303828801526138ab838261330c565b9250505061010080830151868303828801526138c7838261330c565b9250505061012080830151868303828801526138e3838261330c565b9250505061014080830151868303828801526138ff838261330c565b92505050610160808301518683038288015261391b838261330c565b92505050610180808301519250858203818701525061393a818361330c565b9689019694505050908601906001016137f6565b600080600080600080600060e0888a03121561396957600080fd5b873567ffffffffffffffff8082111561398157600080fd5b61398d8b838c01613176565b985060208a01359150808211156139a357600080fd5b6139af8b838c01613176565b975060408a01359150808211156139c557600080fd5b6139d18b838c01613176565b965060608a01359150808211156139e757600080fd5b6139f38b838c01613176565b955060808a0135945060a08a0135935060c08a01359150808211156132cc57600080fd5b600060208083016020845280855180835260408601915060408160051b87010192506020870160005b82811015613a6e57603f19888603018452613a5c85835161330c565b94509285019290850190600101613a40565b5092979650505050505050565b60008251613a8d8184602087016132e8565b9190910192915050565b634e487b7160e01b600052603260045260246000fd5b600181811c90821680613ac157607f821691505b602082108103612fcf57634e487b7160e01b600052602260045260246000fd5b6000808354613aef81613aad565b60018281168015613b075760018114613b1c57613b4b565b60ff1984168752821515830287019450613b4b565b8760005260208060002060005b85811015613b425781548a820152908401908201613b29565b50505082870194505b50929695505050505050565b60208082526023908201527f53656e646572206973206e6f7420746865206f776e6572206f662074686520636040820152620726f760ec1b606082015260800190565b601f821115613be6576000816000526020600020601f850160051c81016020861015613bc35750805b601f850160051c820191505b81811015613be257828155600101613bcf565b5050505b505050565b815167ffffffffffffffff811115613c0557613c05613160565b613c1981613c138454613aad565b84613b9a565b602080601f831160018114613c4e5760008415613c365750858301515b600019600386901b1c1916600185901b178555613be2565b600085815260208120601f198616915b82811015613c7d57888601518255948401946001909101908401613c5e565b5085821015613c9b5787850151600019600388901b60f8161c191681555b5050505050600190811b01905550565b60e081526000613cbe60e083018a61330c565b8281036020840152613cd0818a61330c565b90508760408401528281036060840152613cea818861330c565b905085608084015282810360a0840152613d04818661330c565b905082810360c0840152613d18818561330c565b9a9950505050505050505050565b604081526000613d39604083018561330c565b8281036020840152613d4b818561330c565b95945050505050565b608081526000613d67608083018761330c565b8281036020840152613d79818761330c565b90508460408401528281036060840152613d93818561330c565b979650505050505050565b60e081526000613db160e083018a61330c565b8281036020840152613dc3818a61330c565b90508281036040840152613dd7818961330c565b90508281036060840152613deb818861330c565b90508560808401528460a084015282810360c0840152613d18818561330c56fea2646970667358221220a1e39c5dfc8601fd40706b452c6f489baebb4458c1e8abfcd24255cf3892a26d64736f6c63430008180033",
  "linkReferences": {},
  "deployedLinkReferences": {}
}