{
  "_format": "hh-sol-artifact-1",
  "contractName": "ProductManager",
  "sourceName": "contracts/ProductManager.sol",
  "abi": [
    {
      "anonymous": false,
      "inputs": [
        {
          "indexed": false,
          "internalType": "string",
          "name": "id",
          "type": "string"
        },
        {
          "indexed": false,
          "internalType": "string",
          "name": "time",
          "type": "string"
        }
      ],
      "name": "approveCertificateEvent",
      "type": "event"
    },
    {
      "anonymous": false,
      "inputs": [
        {
          "indexed": false,
          "internalType": "string",
          "name": "id",
          "type": "string"
        },
        {
          "indexed": false,
          "internalType": "string",
          "name": "time",
          "type": "string"
        }
      ],
      "name": "approveCropEvent",
      "type": "event"
    },
    {
      "anonymous": false,
      "inputs": [
        {
          "indexed": false,
          "internalType": "string",
          "name": "id",
          "type": "string"
        },
        {
          "indexed": false,
          "internalType": "string",
          "name": "time",
          "type": "string"
        }
      ],
      "name": "approveMidTermEvent",
      "type": "event"
    },
    {
      "anonymous": false,
      "inputs": [
        {
          "indexed": false,
          "internalType": "string",
          "name": "id",
          "type": "string"
        }
      ],
      "name": "cropRegisterEvent",
      "type": "event"
    },
    {
      "anonymous": false,
      "inputs": [
        {
          "indexed": false,
          "internalType": "string",
          "name": "id",
          "type": "string"
        }
      ],
      "name": "midTermRegisterEvent",
      "type": "event"
    },
    {
      "anonymous": false,
      "inputs": [
        {
          "indexed": false,
          "internalType": "string",
          "name": "id",
          "type": "string"
        },
        {
          "indexed": false,
          "internalType": "string",
          "name": "quality",
          "type": "string"
        },
        {
          "indexed": false,
          "internalType": "uint256",
          "name": "quantity",
          "type": "uint256"
        },
        {
          "indexed": false,
          "internalType": "string",
          "name": "category",
          "type": "string"
        },
        {
          "indexed": false,
          "internalType": "uint256",
          "name": "price",
          "type": "uint256"
        },
        {
          "indexed": false,
          "internalType": "string",
          "name": "description",
          "type": "string"
        },
        {
          "indexed": false,
          "internalType": "string",
          "name": "timeofApplied",
          "type": "string"
        }
      ],
      "name": "reqCertificateEvent",
      "type": "event"
    },
    {
      "inputs": [
        {
          "internalType": "string",
          "name": "id",
          "type": "string"
        },
        {
          "internalType": "string",
          "name": "time",
          "type": "string"
        }
      ],
      "name": "approveCertificate",
      "outputs": [],
      "stateMutability": "nonpayable",
      "type": "function"
    },
    {
      "inputs": [
        {
          "internalType": "string",
          "name": "id",
          "type": "string"
        },
        {
          "internalType": "string",
          "name": "time",
          "type": "string"
        }
      ],
      "name": "approveCrop",
      "outputs": [],
      "stateMutability": "nonpayable",
      "type": "function"
    },
    {
      "inputs": [
        {
          "internalType": "string",
          "name": "id",
          "type": "string"
        },
        {
          "internalType": "string",
          "name": "time",
          "type": "string"
        }
      ],
      "name": "approveMidTerm",
      "outputs": [],
      "stateMutability": "nonpayable",
      "type": "function"
    },
    {
      "inputs": [
        {
          "internalType": "string",
          "name": "id",
          "type": "string"
        },
        {
          "internalType": "string",
          "name": "cropName",
          "type": "string"
        },
        {
          "internalType": "string",
          "name": "location",
          "type": "string"
        },
        {
          "internalType": "string",
          "name": "acre",
          "type": "string"
        },
        {
          "internalType": "string",
          "name": "months",
          "type": "string"
        },
        {
          "internalType": "uint256",
          "name": "yieldperacre",
          "type": "uint256"
        },
        {
          "internalType": "string",
          "name": "timeofApplied",
          "type": "string"
        }
      ],
      "name": "cropRegister",
      "outputs": [],
      "stateMutability": "nonpayable",
      "type": "function"
    },
    {
      "inputs": [],
      "name": "fetchProduct",
      "outputs": [
        {
          "components": [
            {
              "internalType": "string",
              "name": "id",
              "type": "string"
            },
            {
              "internalType": "string",
              "name": "productName",
              "type": "string"
            },
            {
              "internalType": "string",
              "name": "category",
              "type": "string"
            },
            {
              "internalType": "uint256",
              "name": "price",
              "type": "uint256"
            },
            {
              "internalType": "uint256",
              "name": "quantity",
              "type": "uint256"
            },
            {
              "internalType": "address",
              "name": "ETHAddress",
              "type": "address"
            },
            {
              "internalType": "string",
              "name": "description",
              "type": "string"
            },
            {
              "internalType": "string",
              "name": "cropRegistered",
              "type": "string"
            },
            {
              "internalType": "string",
              "name": "cropApproved",
              "type": "string"
            },
            {
              "internalType": "string",
              "name": "midTermRegistered",
              "type": "string"
            },
            {
              "internalType": "string",
              "name": "midTermApproved",
              "type": "string"
            },
            {
              "internalType": "string",
              "name": "certRegistered",
              "type": "string"
            },
            {
              "internalType": "string",
              "name": "certApproved",
              "type": "string"
            }
          ],
          "internalType": "struct ProductManager.Product[]",
          "name": "",
          "type": "tuple[]"
        }
      ],
      "stateMutability": "view",
      "type": "function"
    },
    {
      "inputs": [],
      "name": "getAllCropIds",
      "outputs": [
        {
          "internalType": "string[]",
          "name": "",
          "type": "string[]"
        }
      ],
      "stateMutability": "view",
      "type": "function"
    },
    {
      "inputs": [],
      "name": "getCertificate",
      "outputs": [
        {
          "components": [
            {
              "internalType": "string",
              "name": "id",
              "type": "string"
            },
            {
              "internalType": "string",
              "name": "cropName",
              "type": "string"
            },
            {
              "internalType": "address",
              "name": "ETHAddress",
              "type": "address"
            },
            {
              "internalType": "string",
              "name": "quality",
              "type": "string"
            },
            {
              "internalType": "uint256",
              "name": "quantity",
              "type": "uint256"
            },
            {
              "internalType": "string",
              "name": "category",
              "type": "string"
            },
            {
              "internalType": "uint256",
              "name": "price",
              "type": "uint256"
            },
            {
              "internalType": "string",
              "name": "description",
              "type": "string"
            },
            {
              "internalType": "string",
              "name": "timeofApplied",
              "type": "string"
            },
            {
              "internalType": "string",
              "name": "timeofVerified",
              "type": "string"
            },
            {
              "internalType": "bool",
              "name": "isApproved",
              "type": "bool"
            },
            {
              "internalType": "bool",
              "name": "isDisapproved",
              "type": "bool"
            }
          ],
          "internalType": "struct ProductManager.Certificate[]",
          "name": "",
          "type": "tuple[]"
        }
      ],
      "stateMutability": "view",
      "type": "function"
    },
    {
      "inputs": [],
      "name": "getCrops",
      "outputs": [
        {
          "components": [
            {
              "internalType": "string",
              "name": "id",
              "type": "string"
            },
            {
              "internalType": "string",
              "name": "cropName",
              "type": "string"
            },
            {
              "internalType": "address",
              "name": "ETHAddress",
              "type": "address"
            },
            {
              "internalType": "string",
              "name": "location",
              "type": "string"
            },
            {
              "internalType": "string",
              "name": "acre",
              "type": "string"
            },
            {
              "internalType": "string",
              "name": "months",
              "type": "string"
            },
            {
              "internalType": "uint256",
              "name": "yieldperacre",
              "type": "uint256"
            },
            {
              "internalType": "string",
              "name": "timeofApplied",
              "type": "string"
            },
            {
              "internalType": "string",
              "name": "timeofVerified",
              "type": "string"
            },
            {
              "internalType": "bool",
              "name": "isApproved",
              "type": "bool"
            },
            {
              "internalType": "bool",
              "name": "isDisapproved",
              "type": "bool"
            }
          ],
          "internalType": "struct CropManager.Crop[]",
          "name": "",
          "type": "tuple[]"
        }
      ],
      "stateMutability": "view",
      "type": "function"
    },
    {
      "inputs": [],
      "name": "getMidTerm",
      "outputs": [
        {
          "components": [
            {
              "internalType": "string",
              "name": "id",
              "type": "string"
            },
            {
              "internalType": "string",
              "name": "cropName",
              "type": "string"
            },
            {
              "internalType": "string",
              "name": "progress",
              "type": "string"
            },
            {
              "internalType": "string",
              "name": "months",
              "type": "string"
            },
            {
              "internalType": "string",
              "name": "timeofApplied",
              "type": "string"
            },
            {
              "internalType": "string",
              "name": "timeofVerified",
              "type": "string"
            },
            {
              "internalType": "bool",
              "name": "isApproved",
              "type": "bool"
            },
            {
              "internalType": "bool",
              "name": "isDisapproved",
              "type": "bool"
            }
          ],
          "internalType": "struct CropManager.MidTerm[]",
          "name": "",
          "type": "tuple[]"
        }
      ],
      "stateMutability": "view",
      "type": "function"
    },
    {
      "inputs": [
        {
          "internalType": "string",
          "name": "id",
          "type": "string"
        },
        {
          "internalType": "string",
          "name": "progress",
          "type": "string"
        },
        {
          "internalType": "string",
          "name": "months",
          "type": "string"
        },
        {
          "internalType": "string",
          "name": "timeofApplied",
          "type": "string"
        }
      ],
      "name": "midTermRegister",
      "outputs": [],
      "stateMutability": "nonpayable",
      "type": "function"
    },
    {
      "inputs": [
        {
          "components": [
            {
              "internalType": "string",
              "name": "id",
              "type": "string"
            },
            {
              "internalType": "uint256",
              "name": "reduce",
              "type": "uint256"
            }
          ],
          "internalType": "struct ProductManager.Item[]",
          "name": "items",
          "type": "tuple[]"
        }
      ],
      "name": "reduceQuantity",
      "outputs": [],
      "stateMutability": "nonpayable",
      "type": "function"
    },
    {
      "inputs": [
        {
          "internalType": "string",
          "name": "id",
          "type": "string"
        },
        {
          "internalType": "string",
          "name": "quality",
          "type": "string"
        },
        {
          "internalType": "uint256",
          "name": "quantity",
          "type": "uint256"
        },
        {
          "internalType": "string",
          "name": "category",
          "type": "string"
        },
        {
          "internalType": "uint256",
          "name": "price",
          "type": "uint256"
        },
        {
          "internalType": "string",
          "name": "description",
          "type": "string"
        },
        {
          "internalType": "string",
          "name": "timeofApplied",
          "type": "string"
        }
      ],
      "name": "reqCertificate",
      "outputs": [],
      "stateMutability": "nonpayable",
      "type": "function"
    }
  ],
  "bytecode": "0x608060405234801561001057600080fd5b5061418d806100206000396000f3fe608060405234801561001057600080fd5b50600436106100b45760003560e01c8063ae15eb8e11610071578063ae15eb8e1461013a578063c851c62f1461014f578063dbf9dcf114610162578063ddba905b14610177578063e1a6669a1461018a578063f53a75031461019d57600080fd5b80630c2b4a09146100b957806334a3cb3e146100ce5780635f073f3a146100e15780637c77c16d146100ff5780637e348605146101145780639b932eb014610127575b600080fd5b6100cc6100c7366004613487565b6101b2565b005b6100cc6100dc36600461356c565b610701565b6100e9610853565b6040516100f69190613631565b60405180910390f35b610107610cfb565b6040516100f6919061378d565b6100cc610122366004613896565b6110e7565b6100cc6101353660046138fa565b61132f565b610142611763565b6040516100f691906139a7565b6100cc61015d366004613896565b611c0c565b61016a611e4c565b6040516100f69190613b01565b6100cc610185366004613c82565b612482565b6100cc610198366004613896565b612641565b6101a561311e565b6040516100f69190613d66565b8660008060008060005b60005481101561028d57856040516020016101d79190613dca565b604051602081830303815290604052805190602001206000828154811061020057610200613de6565b90600052602060002090600a02016000016040516020016102219190613e30565b604051602081830303815290604052805190602001200361024157600194505b336001600160a01b03166000828154811061025e5761025e613de6565b600091825260209091206002600a9092020101546001600160a01b03160361028557600193505b6001016101bc565b5060005b60015481101561034d57856040516020016102ac9190613dca565b60405160208183030381529060405280519060200120600182815481106102d5576102d5613de6565b90600052602060002090600702016000016040516020016102f69190613e30565b6040516020818303038152906040528051906020012003610345576001818154811061032457610324613de6565b600091825260209091206006600790920201015460ff161561034557600192505b600101610291565b5060005b60025481101561040d578560405160200161036c9190613dca565b604051602081830303815290604052805190602001206002828154811061039557610395613de6565b90600052602060002090600b02016000016040516020016103b69190613e30565b604051602081830303815290604052805190602001200361040557600281815481106103e4576103e4613de6565b60009182526020909120600a600b90920201015460ff161561040557600191505b600101610351565b50836104545760405162461bcd60e51b815260206004820152601160248201527010dc9bdc081251081b9bdd08199bdd5b99607a1b60448201526064015b60405180910390fd5b826104715760405162461bcd60e51b815260040161044b90613ea6565b816104be5760405162461bcd60e51b815260206004820152601760248201527f4d69645465726d206973206e6f7420617070726f766564000000000000000000604482015260640161044b565b801561050c5760405162461bcd60e51b815260206004820152601f60248201527f436572746966696361746520697320616c726561647920617070726f76656400604482015260640161044b565b60006105178d613259565b60408051610180810182528f8152602081018390523391810191909152606081018e9052608081018d905260a081018c905260c081018b905260e081018a90526101008101899052610120810189905260006101408201819052610160820181905260028054600181018255915281519293509091600b9091027f405787fa12a823e0f2b7631cc41b3ba8828b3321ca811111fa75cd3aa3bb5ace019081906105c09082613f39565b50602082015160018201906105d59082613f39565b5060408201516002820180546001600160a01b0319166001600160a01b03909216919091179055606082015160038201906106109082613f39565b506080820151600482015560a0820151600582019061062f9082613f39565b5060c0820151600682015560e0820151600782019061064e9082613f39565b5061010082015160088201906106649082613f39565b50610120820151600982019061067a9082613f39565b50610140820151600a90910180546101609093015115156101000261ff00199215159290921661ffff19909316929092171790556040517fddb2c9d33a22403118552386f61b9c3db64d66f0b3a3e5832c0ace45a2189743906106ea908f908f908f908f908f908f908f90613ff9565b60405180910390a150505050505050505050505050565b60005b60035481101561084e5760005b82811015610845576003828154811061072c5761072c613de6565b90600052602060002090600d020160000160405160200161074d9190613e30565b6040516020818303038152906040528051906020012084848381811061077557610775613de6565b90506020028101906107879190614074565b610791908061408a565b6040516020016107a29291906140d8565b604051602081830303815290604052805190602001200361083d578383828181106107cf576107cf613de6565b90506020028101906107e19190614074565b60200135600383815481106107f8576107f8613de6565b90600052602060002090600d02016004015461081491906140e8565b6003838154811061082757610827613de6565b90600052602060002090600d0201600401819055505b600101610711565b50600101610704565b505050565b60606000805480602002602001604051908101604052809291908181526020016000905b82821015610cf257838290600052602060002090600a0201604051806101600160405290816000820180546108ab90613dfc565b80601f01602080910402602001604051908101604052809291908181526020018280546108d790613dfc565b80156109245780601f106108f957610100808354040283529160200191610924565b820191906000526020600020905b81548152906001019060200180831161090757829003601f168201915b5050505050815260200160018201805461093d90613dfc565b80601f016020809104026020016040519081016040528092919081815260200182805461096990613dfc565b80156109b65780601f1061098b576101008083540402835291602001916109b6565b820191906000526020600020905b81548152906001019060200180831161099957829003601f168201915b505050918352505060028201546001600160a01b031660208201526003820180546040909201916109e690613dfc565b80601f0160208091040260200160405190810160405280929190818152602001828054610a1290613dfc565b8015610a5f5780601f10610a3457610100808354040283529160200191610a5f565b820191906000526020600020905b815481529060010190602001808311610a4257829003601f168201915b50505050508152602001600482018054610a7890613dfc565b80601f0160208091040260200160405190810160405280929190818152602001828054610aa490613dfc565b8015610af15780601f10610ac657610100808354040283529160200191610af1565b820191906000526020600020905b815481529060010190602001808311610ad457829003601f168201915b50505050508152602001600582018054610b0a90613dfc565b80601f0160208091040260200160405190810160405280929190818152602001828054610b3690613dfc565b8015610b835780601f10610b5857610100808354040283529160200191610b83565b820191906000526020600020905b815481529060010190602001808311610b6657829003601f168201915b5050505050815260200160068201548152602001600782018054610ba690613dfc565b80601f0160208091040260200160405190810160405280929190818152602001828054610bd290613dfc565b8015610c1f5780601f10610bf457610100808354040283529160200191610c1f565b820191906000526020600020905b815481529060010190602001808311610c0257829003601f168201915b50505050508152602001600882018054610c3890613dfc565b80601f0160208091040260200160405190810160405280929190818152602001828054610c6490613dfc565b8015610cb15780601f10610c8657610100808354040283529160200191610cb1565b820191906000526020600020905b815481529060010190602001808311610c9457829003601f168201915b50505091835250506009919091015460ff80821615156020808501919091526101009092041615156040909201919091529082526001929092019101610877565b50505050905090565b60606001805480602002602001604051908101604052809291908181526020016000905b82821015610cf2578382906000526020600020906007020160405180610100016040529081600082018054610d5390613dfc565b80601f0160208091040260200160405190810160405280929190818152602001828054610d7f90613dfc565b8015610dcc5780601f10610da157610100808354040283529160200191610dcc565b820191906000526020600020905b815481529060010190602001808311610daf57829003601f168201915b50505050508152602001600182018054610de590613dfc565b80601f0160208091040260200160405190810160405280929190818152602001828054610e1190613dfc565b8015610e5e5780601f10610e3357610100808354040283529160200191610e5e565b820191906000526020600020905b815481529060010190602001808311610e4157829003601f168201915b50505050508152602001600282018054610e7790613dfc565b80601f0160208091040260200160405190810160405280929190818152602001828054610ea390613dfc565b8015610ef05780601f10610ec557610100808354040283529160200191610ef0565b820191906000526020600020905b815481529060010190602001808311610ed357829003601f168201915b50505050508152602001600382018054610f0990613dfc565b80601f0160208091040260200160405190810160405280929190818152602001828054610f3590613dfc565b8015610f825780601f10610f5757610100808354040283529160200191610f82565b820191906000526020600020905b815481529060010190602001808311610f6557829003601f168201915b50505050508152602001600482018054610f9b90613dfc565b80601f0160208091040260200160405190810160405280929190818152602001828054610fc790613dfc565b80156110145780601f10610fe957610100808354040283529160200191611014565b820191906000526020600020905b815481529060010190602001808311610ff757829003601f168201915b5050505050815260200160058201805461102d90613dfc565b80601f016020809104026020016040519081016040528092919081815260200182805461105990613dfc565b80156110a65780601f1061107b576101008083540402835291602001916110a6565b820191906000526020600020905b81548152906001019060200180831161108957829003601f168201915b50505091835250506006919091015460ff80821615156020808501919091526101009092041615156040909201919091529082526001929092019101610d1f565b816000805b6000548110156111a557826040516020016111079190613dca565b604051602081830303815290604052805190602001206000828154811061113057611130613de6565b90600052602060002090600a02016000016040516020016111519190613e30565b604051602081830303815290604052805190602001200361119d576000818154811061117f5761117f613de6565b600091825260209091206009600a90920201015460ff1691506111a5565b6001016110ec565b5080156111f45760405162461bcd60e51b815260206004820152601860248201527f43726f7020697320616c726561647920617070726f7665640000000000000000604482015260640161044b565b60005b60005481101561132857846040516020016112129190613dca565b604051602081830303815290604052805190602001206000828154811061123b5761123b613de6565b90600052602060002090600a020160000160405160200161125c9190613e30565b60405160208183030381529060405280519060200120036113205760016000828154811061128c5761128c613de6565b90600052602060002090600a020160090160006101000a81548160ff02191690831515021790555083600082815481106112c8576112c8613de6565b90600052602060002090600a020160080190816112e59190613f39565b507f7d8a46572949673dbecd78e7e8212fc91cad672dcafd6b90292bc1940ff542bc858560405161131792919061410f565b60405180910390a15b6001016111f7565b5050505050565b8360008060008060005b60005481101561150257856040516020016113549190613dca565b604051602081830303815290604052805190602001206000828154811061137d5761137d613de6565b90600052602060002090600a020160000160405160200161139e9190613e30565b60405160208183030381529060405280519060200120036114fa5760019450600081815481106113d0576113d0613de6565b600091825260209091206009600a90920201015460ff16156114b1576001925060005b6001548110156114af578660405160200161140e9190613dca565b604051602081830303815290604052805190602001206001828154811061143757611437613de6565b90600052602060002090600702016000016040516020016114589190613e30565b60405160208183030381529060405280519060200120036114a7576001818154811061148657611486613de6565b600091825260209091206006600790920201015460ff16156114a757600192505b6001016113f3565b505b336001600160a01b0316600082815481106114ce576114ce613de6565b600091825260209091206002600a9092020101546001600160a01b0316036114f557600193505b611502565b600101611339565b50836115445760405162461bcd60e51b815260206004820152601160248201527010dc9bdc081251081b9bdd08199bdd5b99607a1b604482015260640161044b565b826115615760405162461bcd60e51b815260040161044b90613ea6565b816115a55760405162461bcd60e51b815260206004820152601460248201527310dc9bdc081a5cc81b9bdd08185c1c1c9bdd995960621b604482015260640161044b565b80156115f35760405162461bcd60e51b815260206004820152601b60248201527f4d69647465726d20697320616c726561647920617070726f7665640000000000604482015260640161044b565b60006115fe8a613259565b60408051610100810182528c8152602081018390529081018b9052606081018a90526080810189905260a08101899052600060c0820181905260e0820181905260018054808201825591528151929350909160079091027fb10e2d527612073b26eecdfd717e6a320cf44b4afac2b0732d9fcbe2b7fa0cf6019081906116849082613f39565b50602082015160018201906116999082613f39565b50604082015160028201906116ae9082613f39565b50606082015160038201906116c39082613f39565b50608082015160048201906116d89082613f39565b5060a082015160058201906116ed9082613f39565b5060c08201516006909101805460e09093015115156101000261ff00199215159290921661ffff19909316929092171790556040517f24dfd674d9b41013847ae645f40587f116cac5f83d63e385afa526bd5666dc039061174f908c9061413d565b60405180910390a150505050505050505050565b60606002805480602002602001604051908101604052809291908181526020016000905b82821015610cf257838290600052602060002090600b0201604051806101800160405290816000820180546117bb90613dfc565b80601f01602080910402602001604051908101604052809291908181526020018280546117e790613dfc565b80156118345780601f1061180957610100808354040283529160200191611834565b820191906000526020600020905b81548152906001019060200180831161181757829003601f168201915b5050505050815260200160018201805461184d90613dfc565b80601f016020809104026020016040519081016040528092919081815260200182805461187990613dfc565b80156118c65780601f1061189b576101008083540402835291602001916118c6565b820191906000526020600020905b8154815290600101906020018083116118a957829003601f168201915b505050918352505060028201546001600160a01b031660208201526003820180546040909201916118f690613dfc565b80601f016020809104026020016040519081016040528092919081815260200182805461192290613dfc565b801561196f5780601f106119445761010080835404028352916020019161196f565b820191906000526020600020905b81548152906001019060200180831161195257829003601f168201915b505050505081526020016004820154815260200160058201805461199290613dfc565b80601f01602080910402602001604051908101604052809291908181526020018280546119be90613dfc565b8015611a0b5780601f106119e057610100808354040283529160200191611a0b565b820191906000526020600020905b8154815290600101906020018083116119ee57829003601f168201915b5050505050815260200160068201548152602001600782018054611a2e90613dfc565b80601f0160208091040260200160405190810160405280929190818152602001828054611a5a90613dfc565b8015611aa75780601f10611a7c57610100808354040283529160200191611aa7565b820191906000526020600020905b815481529060010190602001808311611a8a57829003601f168201915b50505050508152602001600882018054611ac090613dfc565b80601f0160208091040260200160405190810160405280929190818152602001828054611aec90613dfc565b8015611b395780601f10611b0e57610100808354040283529160200191611b39565b820191906000526020600020905b815481529060010190602001808311611b1c57829003601f168201915b50505050508152602001600982018054611b5290613dfc565b80601f0160208091040260200160405190810160405280929190818152602001828054611b7e90613dfc565b8015611bcb5780601f10611ba057610100808354040283529160200191611bcb565b820191906000526020600020905b815481529060010190602001808311611bae57829003601f168201915b5050509183525050600a919091015460ff80821615156020808501919091526101009092041615156040909201919091529082526001929092019101611787565b816000805b600154811015611cca5782604051602001611c2c9190613dca565b6040516020818303038152906040528051906020012060018281548110611c5557611c55613de6565b9060005260206000209060070201600001604051602001611c769190613e30565b6040516020818303038152906040528051906020012003611cc25760018181548110611ca457611ca4613de6565b600091825260209091206006600790920201015460ff169150611cca565b600101611c11565b508015611d195760405162461bcd60e51b815260206004820152601b60248201527f4d69645465726d20697320616c726561647920617070726f7665640000000000604482015260640161044b565b60005b6001548110156113285784604051602001611d379190613dca565b6040516020818303038152906040528051906020012060018281548110611d6057611d60613de6565b9060005260206000209060070201600001604051602001611d819190613e30565b6040516020818303038152906040528051906020012003611e44576001808281548110611db057611db0613de6565b906000526020600020906007020160060160006101000a81548160ff0219169083151502179055508360018281548110611dec57611dec613de6565b90600052602060002090600702016005019081611e099190613f39565b507f6bcc96769d450787abe84c5e24852350d0228ef324aeba3962acb7eba900aec78585604051611e3b92919061410f565b60405180910390a15b600101611d1c565b60606003805480602002602001604051908101604052809291908181526020016000905b82821015610cf257838290600052602060002090600d0201604051806101a0016040529081600082018054611ea490613dfc565b80601f0160208091040260200160405190810160405280929190818152602001828054611ed090613dfc565b8015611f1d5780601f10611ef257610100808354040283529160200191611f1d565b820191906000526020600020905b815481529060010190602001808311611f0057829003601f168201915b50505050508152602001600182018054611f3690613dfc565b80601f0160208091040260200160405190810160405280929190818152602001828054611f6290613dfc565b8015611faf5780601f10611f8457610100808354040283529160200191611faf565b820191906000526020600020905b815481529060010190602001808311611f9257829003601f168201915b50505050508152602001600282018054611fc890613dfc565b80601f0160208091040260200160405190810160405280929190818152602001828054611ff490613dfc565b80156120415780601f1061201657610100808354040283529160200191612041565b820191906000526020600020905b81548152906001019060200180831161202457829003601f168201915b5050509183525050600382015460208201526004820154604082015260058201546001600160a01b0316606082015260068201805460809092019161208590613dfc565b80601f01602080910402602001604051908101604052809291908181526020018280546120b190613dfc565b80156120fe5780601f106120d3576101008083540402835291602001916120fe565b820191906000526020600020905b8154815290600101906020018083116120e157829003601f168201915b5050505050815260200160078201805461211790613dfc565b80601f016020809104026020016040519081016040528092919081815260200182805461214390613dfc565b80156121905780601f1061216557610100808354040283529160200191612190565b820191906000526020600020905b81548152906001019060200180831161217357829003601f168201915b505050505081526020016008820180546121a990613dfc565b80601f01602080910402602001604051908101604052809291908181526020018280546121d590613dfc565b80156122225780601f106121f757610100808354040283529160200191612222565b820191906000526020600020905b81548152906001019060200180831161220557829003601f168201915b5050505050815260200160098201805461223b90613dfc565b80601f016020809104026020016040519081016040528092919081815260200182805461226790613dfc565b80156122b45780601f10612289576101008083540402835291602001916122b4565b820191906000526020600020905b81548152906001019060200180831161229757829003601f168201915b50505050508152602001600a820180546122cd90613dfc565b80601f01602080910402602001604051908101604052809291908181526020018280546122f990613dfc565b80156123465780601f1061231b57610100808354040283529160200191612346565b820191906000526020600020905b81548152906001019060200180831161232957829003601f168201915b50505050508152602001600b8201805461235f90613dfc565b80601f016020809104026020016040519081016040528092919081815260200182805461238b90613dfc565b80156123d85780601f106123ad576101008083540402835291602001916123d8565b820191906000526020600020905b8154815290600101906020018083116123bb57829003601f168201915b50505050508152602001600c820180546123f190613dfc565b80601f016020809104026020016040519081016040528092919081815260200182805461241d90613dfc565b801561246a5780601f1061243f5761010080835404028352916020019161246a565b820191906000526020600020905b81548152906001019060200180831161244d57829003601f168201915b50505050508152505081526020019060010190611e70565b6040805161016081018252888152602081018890523391810191909152606081018690526080810185905260a0810184905260c0810183905260e08101829052610100810182905260006101208201819052610140820181905280546001810182559080528151600a9091027f290decd9548b62a8d60345a988386fc84ba6bc95484008f6362f93160ef3e5630190819061251d9082613f39565b50602082015160018201906125329082613f39565b5060408201516002820180546001600160a01b0319166001600160a01b039092169190911790556060820151600382019061256d9082613f39565b50608082015160048201906125829082613f39565b5060a082015160058201906125979082613f39565b5060c0820151600682015560e082015160078201906125b69082613f39565b5061010082015160088201906125cc9082613f39565b50610120820151600990910180546101409093015115156101000261ff00199215159290921661ffff19909316929092171790556040517f3579c5d2edbbf430361d5649858a80fb2dc50cb0446bb5bd09ed524a73fba5ce9061263090899061413d565b60405180910390a150505050505050565b816000805b6002548110156126ff57826040516020016126619190613dca565b604051602081830303815290604052805190602001206002828154811061268a5761268a613de6565b90600052602060002090600b02016000016040516020016126ab9190613e30565b60405160208183030381529060405280519060200120036126f757600281815481106126d9576126d9613de6565b60009182526020909120600a600b90920201015460ff1691506126ff565b600101612646565b50801561274e5760405162461bcd60e51b815260206004820152601f60248201527f436572746966696361746520697320616c726561647920617070726f76656400604482015260640161044b565b60005b6002548110156130de578460405160200161276c9190613dca565b604051602081830303815290604052805190602001206002828154811061279557612795613de6565b90600052602060002090600b02016000016040516020016127b69190613e30565b60405160208183030381529060405280519060200120036130d6576001600282815481106127e6576127e6613de6565b90600052602060002090600b0201600a0160006101000a81548160ff021916908315150217905550836002828154811061282257612822613de6565b90600052602060002090600b0201600901908161283f9190613f39565b5060608060608060005b600054811015612a3457896040516020016128649190613dca565b604051602081830303815290604052805190602001206000828154811061288d5761288d613de6565b90600052602060002090600a02016000016040516020016128ae9190613e30565b6040516020818303038152906040528051906020012003612a2c57600081815481106128dc576128dc613de6565b90600052602060002090600a020160070180546128f890613dfc565b80601f016020809104026020016040519081016040528092919081815260200182805461292490613dfc565b80156129715780601f1061294657610100808354040283529160200191612971565b820191906000526020600020905b81548152906001019060200180831161295457829003601f168201915b505050505094506000818154811061298b5761298b613de6565b90600052602060002090600a020160080180546129a790613dfc565b80601f01602080910402602001604051908101604052809291908181526020018280546129d390613dfc565b8015612a205780601f106129f557610100808354040283529160200191612a20565b820191906000526020600020905b815481529060010190602001808311612a0357829003601f168201915b50505050509350612a34565b600101612849565b5060005b600154811015612c235789604051602001612a539190613dca565b6040516020818303038152906040528051906020012060018281548110612a7c57612a7c613de6565b9060005260206000209060070201600001604051602001612a9d9190613e30565b6040516020818303038152906040528051906020012003612c1b5760018181548110612acb57612acb613de6565b90600052602060002090600702016004018054612ae790613dfc565b80601f0160208091040260200160405190810160405280929190818152602001828054612b1390613dfc565b8015612b605780601f10612b3557610100808354040283529160200191612b60565b820191906000526020600020905b815481529060010190602001808311612b4357829003601f168201915b5050505050925060018181548110612b7a57612b7a613de6565b90600052602060002090600702016005018054612b9690613dfc565b80601f0160208091040260200160405190810160405280929190818152602001828054612bc290613dfc565b8015612c0f5780601f10612be457610100808354040283529160200191612c0f565b820191906000526020600020905b815481529060010190602001808311612bf257829003601f168201915b50505050509150612c23565b600101612a38565b506003604051806101a001604052808b815260200160028881548110612c4b57612c4b613de6565b90600052602060002090600b02016001018054612c6790613dfc565b80601f0160208091040260200160405190810160405280929190818152602001828054612c9390613dfc565b8015612ce05780601f10612cb557610100808354040283529160200191612ce0565b820191906000526020600020905b815481529060010190602001808311612cc357829003601f168201915b5050505050815260200160028881548110612cfd57612cfd613de6565b90600052602060002090600b02016005018054612d1990613dfc565b80601f0160208091040260200160405190810160405280929190818152602001828054612d4590613dfc565b8015612d925780601f10612d6757610100808354040283529160200191612d92565b820191906000526020600020905b815481529060010190602001808311612d7557829003601f168201915b5050505050815260200160028881548110612daf57612daf613de6565b90600052602060002090600b020160060154815260200160028881548110612dd957612dd9613de6565b90600052602060002090600b020160040154815260200160028881548110612e0357612e03613de6565b60009182526020918290206002600b909202018101546001600160a01b031683528054929091019189908110612e3b57612e3b613de6565b90600052602060002090600b02016007018054612e5790613dfc565b80601f0160208091040260200160405190810160405280929190818152602001828054612e8390613dfc565b8015612ed05780601f10612ea557610100808354040283529160200191612ed0565b820191906000526020600020905b815481529060010190602001808311612eb357829003601f168201915b5050505050815260200186815260200185815260200184815260200183815260200160028881548110612f0557612f05613de6565b90600052602060002090600b02016008018054612f2190613dfc565b80601f0160208091040260200160405190810160405280929190818152602001828054612f4d90613dfc565b8015612f9a5780601f10612f6f57610100808354040283529160200191612f9a565b820191906000526020600020905b815481529060010190602001808311612f7d57829003601f168201915b505050918352505060209081018b905282546001810184556000938452922081519192600d0201908190612fce9082613f39565b5060208201516001820190612fe39082613f39565b5060408201516002820190612ff89082613f39565b50606082015160038201556080820151600482015560a08201516005820180546001600160a01b0319166001600160a01b0390921691909117905560c082015160068201906130479082613f39565b5060e0820151600782019061305c9082613f39565b5061010082015160088201906130729082613f39565b5061012082015160098201906130889082613f39565b50610140820151600a82019061309e9082613f39565b50610160820151600b8201906130b49082613f39565b50610180820151600c8201906130ca9082613f39565b505050505050506130de565b600101612751565b507f3ee3e8930da41d543552da6e34cbc398956870864421f02f19b357e53c5d692c848460405161311092919061410f565b60405180910390a150505050565b600080546060919067ffffffffffffffff81111561313e5761313e6133e4565b60405190808252806020026020018201604052801561317157816020015b606081526020019060019003908161315c5790505b50905060005b600054811015613253576000818154811061319457613194613de6565b90600052602060002090600a020160000180546131b090613dfc565b80601f01602080910402602001604051908101604052809291908181526020018280546131dc90613dfc565b80156132295780601f106131fe57610100808354040283529160200191613229565b820191906000526020600020905b81548152906001019060200180831161320c57829003601f168201915b505050505082828151811061324057613240613de6565b6020908102919091010152600101613177565b50919050565b606060005b60005481101561339b57826040516020016132799190613dca565b60405160208183030381529060405280519060200120600082815481106132a2576132a2613de6565b90600052602060002090600a02016000016040516020016132c39190613e30565b604051602081830303815290604052805190602001200361339357600081815481106132f1576132f1613de6565b90600052602060002090600a0201600101805461330d90613dfc565b80601f016020809104026020016040519081016040528092919081815260200182805461333990613dfc565b80156133865780601f1061335b57610100808354040283529160200191613386565b820191906000526020600020905b81548152906001019060200180831161336957829003601f168201915b5050505050915050919050565b60010161325e565b5060405162461bcd60e51b815260206004820152601c60248201527f43726f70207769746820676976656e206964206e6f7420666f756e6400000000604482015260640161044b565b634e487b7160e01b600052604160045260246000fd5b600082601f83011261340b57600080fd5b813567ffffffffffffffff80821115613426576134266133e4565b604051601f8301601f19908116603f0116810190828211818310171561344e5761344e6133e4565b8160405283815286602085880101111561346757600080fd5b836020870160208301376000602085830101528094505050505092915050565b600080600080600080600060e0888a0312156134a257600080fd5b873567ffffffffffffffff808211156134ba57600080fd5b6134c68b838c016133fa565b985060208a01359150808211156134dc57600080fd5b6134e88b838c016133fa565b975060408a0135965060608a013591508082111561350557600080fd5b6135118b838c016133fa565b955060808a0135945060a08a013591508082111561352e57600080fd5b61353a8b838c016133fa565b935060c08a013591508082111561355057600080fd5b5061355d8a828b016133fa565b91505092959891949750929550565b6000806020838503121561357f57600080fd5b823567ffffffffffffffff8082111561359757600080fd5b818501915085601f8301126135ab57600080fd5b8135818111156135ba57600080fd5b8660208260051b85010111156135cf57600080fd5b60209290920196919550909350505050565b60005b838110156135fc5781810151838201526020016135e4565b50506000910152565b6000815180845261361d8160208601602086016135e1565b601f01601f19169290920160200192915050565b600060208083018184528085518083526040925060408601915060408160051b87010184880160005b8381101561377f57603f198984030185528151610160815181865261368182870182613605565b915050888201518582038a8701526136998282613605565b915050878201516136b4898701826001600160a01b03169052565b50606080830151868303828801526136cc8382613605565b92505050608080830151868303828801526136e78382613605565b9250505060a080830151868303828801526137028382613605565b9250505060c080830151818701525060e080830151868303828801526137288382613605565b9250505061010080830151868303828801526137448382613605565b925050506101208083015161375c8288018215159052565b50506101409182015115159490910193909352938601939086019060010161365a565b509098975050505050505050565b600060208083018184528085518083526040925060408601915060408160051b87010184880160005b8381101561377f57603f19898403018552815161010081518186526137dd82870182613605565b915050888201518582038a8701526137f58282613605565b915050878201518582038987015261380d8282613605565b915050606080830151868303828801526138278382613605565b92505050608080830151868303828801526138428382613605565b9250505060a0808301518683038288015261385d8382613605565b9250505060c0808301516138748288018215159052565b505060e0918201511515949091019390935293860193908601906001016137b6565b600080604083850312156138a957600080fd5b823567ffffffffffffffff808211156138c157600080fd5b6138cd868387016133fa565b935060208501359150808211156138e357600080fd5b506138f0858286016133fa565b9150509250929050565b6000806000806080858703121561391057600080fd5b843567ffffffffffffffff8082111561392857600080fd5b613934888389016133fa565b9550602087013591508082111561394a57600080fd5b613956888389016133fa565b9450604087013591508082111561396c57600080fd5b613978888389016133fa565b9350606087013591508082111561398e57600080fd5b5061399b878288016133fa565b91505092959194509250565b600060208083018184528085518083526040925060408601915060408160051b87010184880160005b8381101561377f57603f19898403018552815161018081518186526139f782870182613605565b915050888201518582038a870152613a0f8282613605565b91505087820151613a2a898701826001600160a01b03169052565b5060608083015186830382880152613a428382613605565b92505050608080830151818701525060a08083015186830382880152613a688382613605565b9250505060c080830151818701525060e08083015186830382880152613a8e8382613605565b925050506101008083015186830382880152613aaa8382613605565b925050506101208083015186830382880152613ac68382613605565b9250505061014080830151613ade8288018215159052565b5050610160918201511515949091019390935293860193908601906001016139d0565b600060208083018184528085518083526040925060408601915060408160051b87010184880160005b8381101561377f57603f1989840301855281516101a08151818652613b5182870182613605565b915050888201518582038a870152613b698282613605565b9150508782015185820389870152613b818282613605565b606084810151908801526080808501519088015260a0808501516001600160a01b03169088015260c080850151888303828a01529193509150613bc48382613605565b9250505060e08083015186830382880152613bdf8382613605565b925050506101008083015186830382880152613bfb8382613605565b925050506101208083015186830382880152613c178382613605565b925050506101408083015186830382880152613c338382613605565b925050506101608083015186830382880152613c4f8382613605565b925050506101808083015192508582038187015250613c6e8183613605565b968901969450505090860190600101613b2a565b600080600080600080600060e0888a031215613c9d57600080fd5b873567ffffffffffffffff80821115613cb557600080fd5b613cc18b838c016133fa565b985060208a0135915080821115613cd757600080fd5b613ce38b838c016133fa565b975060408a0135915080821115613cf957600080fd5b613d058b838c016133fa565b965060608a0135915080821115613d1b57600080fd5b613d278b838c016133fa565b955060808a0135915080821115613d3d57600080fd5b613d498b838c016133fa565b945060a08a0135935060c08a013591508082111561355057600080fd5b600060208083016020845280855180835260408601915060408160051b87010192506020870160005b82811015613dbd57603f19888603018452613dab858351613605565b94509285019290850190600101613d8f565b5092979650505050505050565b60008251613ddc8184602087016135e1565b9190910192915050565b634e487b7160e01b600052603260045260246000fd5b600181811c90821680613e1057607f821691505b60208210810361325357634e487b7160e01b600052602260045260246000fd5b6000808354613e3e81613dfc565b60018281168015613e565760018114613e6b57613e9a565b60ff1984168752821515830287019450613e9a565b8760005260208060002060005b85811015613e915781548a820152908401908201613e78565b50505082870194505b50929695505050505050565b60208082526023908201527f53656e646572206973206e6f7420746865206f776e6572206f662074686520636040820152620726f760ec1b606082015260800190565b601f82111561084e576000816000526020600020601f850160051c81016020861015613f125750805b601f850160051c820191505b81811015613f3157828155600101613f1e565b505050505050565b815167ffffffffffffffff811115613f5357613f536133e4565b613f6781613f618454613dfc565b84613ee9565b602080601f831160018114613f9c5760008415613f845750858301515b600019600386901b1c1916600185901b178555613f31565b600085815260208120601f198616915b82811015613fcb57888601518255948401946001909101908401613fac565b5085821015613fe95787850151600019600388901b60f8161c191681555b5050505050600190811b01905550565b60e08152600061400c60e083018a613605565b828103602084015261401e818a613605565b905087604084015282810360608401526140388188613605565b905085608084015282810360a08401526140528186613605565b905082810360c08401526140668185613605565b9a9950505050505050505050565b60008235603e19833603018112613ddc57600080fd5b6000808335601e198436030181126140a157600080fd5b83018035915067ffffffffffffffff8211156140bc57600080fd5b6020019150368190038213156140d157600080fd5b9250929050565b8183823760009101908152919050565b8181038181111561410957634e487b7160e01b600052601160045260246000fd5b92915050565b6040815260006141226040830185613605565b82810360208401526141348185613605565b95945050505050565b6020815260006141506020830184613605565b939250505056fea26469706673582212204b5c99dca5f0ea3298df344eb8ca6cf245eeeee1f05649b0159e73c2614149a564736f6c63430008180033",
  "linkReferences": {},
  "deployedLinkReferences": {}
}