{
  "_format": "hh-sol-artifact-1",
  "contractName": "ProductManager",
  "sourceName": "contracts/ProductManager.sol",
  "abi": [
    {
      "anonymous": false,
      "inputs": [
        {
          "indexed": false,
          "internalType": "string",
          "name": "id",
          "type": "string"
        },
        {
          "indexed": false,
          "internalType": "string",
          "name": "time",
          "type": "string"
        }
      ],
      "name": "approveCertificateEvent",
      "type": "event"
    },
    {
      "anonymous": false,
      "inputs": [
        {
          "indexed": false,
          "internalType": "string",
          "name": "id",
          "type": "string"
        },
        {
          "indexed": false,
          "internalType": "string",
          "name": "time",
          "type": "string"
        }
      ],
      "name": "approveCropEvent",
      "type": "event"
    },
    {
      "anonymous": false,
      "inputs": [
        {
          "indexed": false,
          "internalType": "string",
          "name": "id",
          "type": "string"
        },
        {
          "indexed": false,
          "internalType": "string",
          "name": "time",
          "type": "string"
        }
      ],
      "name": "approveMidTermEvent",
      "type": "event"
    },
    {
      "anonymous": false,
      "inputs": [
        {
          "indexed": false,
          "internalType": "string",
          "name": "id",
          "type": "string"
        },
        {
          "indexed": false,
          "internalType": "string",
          "name": "cropName",
          "type": "string"
        },
        {
          "indexed": false,
          "internalType": "string",
          "name": "location",
          "type": "string"
        },
        {
          "indexed": false,
          "internalType": "string",
          "name": "acre",
          "type": "string"
        },
        {
          "indexed": false,
          "internalType": "uint256",
          "name": "months",
          "type": "uint256"
        },
        {
          "indexed": false,
          "internalType": "uint256",
          "name": "yieldperacre",
          "type": "uint256"
        },
        {
          "indexed": false,
          "internalType": "string",
          "name": "timeofApplied",
          "type": "string"
        }
      ],
      "name": "cropRegisterEvent",
      "type": "event"
    },
    {
      "anonymous": false,
      "inputs": [
        {
          "indexed": false,
          "internalType": "string",
          "name": "id",
          "type": "string"
        },
        {
          "indexed": false,
          "internalType": "string",
          "name": "progress",
          "type": "string"
        },
        {
          "indexed": false,
          "internalType": "uint256",
          "name": "months",
          "type": "uint256"
        },
        {
          "indexed": false,
          "internalType": "string",
          "name": "timeofApplied",
          "type": "string"
        }
      ],
      "name": "midTermRegisterEvent",
      "type": "event"
    },
    {
      "anonymous": false,
      "inputs": [
        {
          "indexed": false,
          "internalType": "string",
          "name": "id",
          "type": "string"
        },
        {
          "indexed": false,
          "internalType": "string",
          "name": "quality",
          "type": "string"
        },
        {
          "indexed": false,
          "internalType": "uint256",
          "name": "quantity",
          "type": "uint256"
        },
        {
          "indexed": false,
          "internalType": "string",
          "name": "category",
          "type": "string"
        },
        {
          "indexed": false,
          "internalType": "uint256",
          "name": "price",
          "type": "uint256"
        },
        {
          "indexed": false,
          "internalType": "string",
          "name": "description",
          "type": "string"
        },
        {
          "indexed": false,
          "internalType": "string",
          "name": "timeofApplied",
          "type": "string"
        }
      ],
      "name": "reqCertificateEvent",
      "type": "event"
    },
    {
      "inputs": [
        {
          "internalType": "string",
          "name": "id",
          "type": "string"
        },
        {
          "internalType": "string",
          "name": "time",
          "type": "string"
        }
      ],
      "name": "approveCertificate",
      "outputs": [],
      "stateMutability": "nonpayable",
      "type": "function"
    },
    {
      "inputs": [
        {
          "internalType": "string",
          "name": "id",
          "type": "string"
        },
        {
          "internalType": "string",
          "name": "time",
          "type": "string"
        }
      ],
      "name": "approveCrop",
      "outputs": [],
      "stateMutability": "nonpayable",
      "type": "function"
    },
    {
      "inputs": [
        {
          "internalType": "string",
          "name": "id",
          "type": "string"
        },
        {
          "internalType": "string",
          "name": "time",
          "type": "string"
        }
      ],
      "name": "approveMidTerm",
      "outputs": [],
      "stateMutability": "nonpayable",
      "type": "function"
    },
    {
      "inputs": [
        {
          "internalType": "string",
          "name": "id",
          "type": "string"
        },
        {
          "internalType": "string",
          "name": "cropName",
          "type": "string"
        },
        {
          "internalType": "string",
          "name": "location",
          "type": "string"
        },
        {
          "internalType": "string",
          "name": "acre",
          "type": "string"
        },
        {
          "internalType": "uint256",
          "name": "months",
          "type": "uint256"
        },
        {
          "internalType": "uint256",
          "name": "yieldperacre",
          "type": "uint256"
        },
        {
          "internalType": "string",
          "name": "timeofApplied",
          "type": "string"
        }
      ],
      "name": "cropRegister",
      "outputs": [],
      "stateMutability": "nonpayable",
      "type": "function"
    },
    {
      "inputs": [],
      "name": "fetchProduct",
      "outputs": [
        {
          "components": [
            {
              "internalType": "string",
              "name": "id",
              "type": "string"
            },
            {
              "internalType": "string",
              "name": "productName",
              "type": "string"
            },
            {
              "internalType": "string",
              "name": "category",
              "type": "string"
            },
            {
              "internalType": "uint256",
              "name": "price",
              "type": "uint256"
            },
            {
              "internalType": "uint256",
              "name": "quantity",
              "type": "uint256"
            },
            {
              "internalType": "address",
              "name": "ETHAddress",
              "type": "address"
            },
            {
              "internalType": "string",
              "name": "description",
              "type": "string"
            },
            {
              "internalType": "string",
              "name": "cropRegistered",
              "type": "string"
            },
            {
              "internalType": "string",
              "name": "cropApproved",
              "type": "string"
            },
            {
              "internalType": "string",
              "name": "midTermRegistered",
              "type": "string"
            },
            {
              "internalType": "string",
              "name": "midTermApproved",
              "type": "string"
            },
            {
              "internalType": "string",
              "name": "certRegistered",
              "type": "string"
            },
            {
              "internalType": "string",
              "name": "certApproved",
              "type": "string"
            }
          ],
          "internalType": "struct ProductManager.Product[]",
          "name": "",
          "type": "tuple[]"
        }
      ],
      "stateMutability": "view",
      "type": "function"
    },
    {
      "inputs": [],
      "name": "getAllCropIds",
      "outputs": [
        {
          "internalType": "string[]",
          "name": "",
          "type": "string[]"
        }
      ],
      "stateMutability": "view",
      "type": "function"
    },
    {
      "inputs": [],
      "name": "getCertificate",
      "outputs": [
        {
          "components": [
            {
              "internalType": "string",
              "name": "id",
              "type": "string"
            },
            {
              "internalType": "string",
              "name": "cropName",
              "type": "string"
            },
            {
              "internalType": "address",
              "name": "ETHAddress",
              "type": "address"
            },
            {
              "internalType": "string",
              "name": "quality",
              "type": "string"
            },
            {
              "internalType": "uint256",
              "name": "quantity",
              "type": "uint256"
            },
            {
              "internalType": "string",
              "name": "category",
              "type": "string"
            },
            {
              "internalType": "uint256",
              "name": "price",
              "type": "uint256"
            },
            {
              "internalType": "string",
              "name": "description",
              "type": "string"
            },
            {
              "internalType": "string",
              "name": "timeofApplied",
              "type": "string"
            },
            {
              "internalType": "string",
              "name": "timeofVerified",
              "type": "string"
            },
            {
              "internalType": "bool",
              "name": "isApproved",
              "type": "bool"
            },
            {
              "internalType": "bool",
              "name": "isDisapproved",
              "type": "bool"
            }
          ],
          "internalType": "struct ProductManager.Certificate[]",
          "name": "",
          "type": "tuple[]"
        }
      ],
      "stateMutability": "view",
      "type": "function"
    },
    {
      "inputs": [],
      "name": "getCrops",
      "outputs": [
        {
          "components": [
            {
              "internalType": "string",
              "name": "id",
              "type": "string"
            },
            {
              "internalType": "string",
              "name": "cropName",
              "type": "string"
            },
            {
              "internalType": "address",
              "name": "ETHAddress",
              "type": "address"
            },
            {
              "internalType": "string",
              "name": "location",
              "type": "string"
            },
            {
              "internalType": "string",
              "name": "acre",
              "type": "string"
            },
            {
              "internalType": "uint256",
              "name": "months",
              "type": "uint256"
            },
            {
              "internalType": "uint256",
              "name": "yieldperacre",
              "type": "uint256"
            },
            {
              "internalType": "string",
              "name": "timeofApplied",
              "type": "string"
            },
            {
              "internalType": "string",
              "name": "timeofVerified",
              "type": "string"
            },
            {
              "internalType": "bool",
              "name": "isApproved",
              "type": "bool"
            },
            {
              "internalType": "bool",
              "name": "isDisapproved",
              "type": "bool"
            }
          ],
          "internalType": "struct CropManager.Crop[]",
          "name": "",
          "type": "tuple[]"
        }
      ],
      "stateMutability": "view",
      "type": "function"
    },
    {
      "inputs": [],
      "name": "getMidTerm",
      "outputs": [
        {
          "components": [
            {
              "internalType": "string",
              "name": "id",
              "type": "string"
            },
            {
              "internalType": "string",
              "name": "cropName",
              "type": "string"
            },
            {
              "internalType": "string",
              "name": "progress",
              "type": "string"
            },
            {
              "internalType": "uint256",
              "name": "months",
              "type": "uint256"
            },
            {
              "internalType": "string",
              "name": "timeofApplied",
              "type": "string"
            },
            {
              "internalType": "string",
              "name": "timeofVerified",
              "type": "string"
            },
            {
              "internalType": "bool",
              "name": "isApproved",
              "type": "bool"
            },
            {
              "internalType": "bool",
              "name": "isDisapproved",
              "type": "bool"
            }
          ],
          "internalType": "struct CropManager.MidTerm[]",
          "name": "",
          "type": "tuple[]"
        }
      ],
      "stateMutability": "view",
      "type": "function"
    },
    {
      "inputs": [
        {
          "internalType": "string",
          "name": "id",
          "type": "string"
        },
        {
          "internalType": "string",
          "name": "progress",
          "type": "string"
        },
        {
          "internalType": "uint256",
          "name": "months",
          "type": "uint256"
        },
        {
          "internalType": "string",
          "name": "timeofApplied",
          "type": "string"
        }
      ],
      "name": "midTermRegister",
      "outputs": [],
      "stateMutability": "nonpayable",
      "type": "function"
    },
    {
      "inputs": [
        {
          "components": [
            {
              "internalType": "string",
              "name": "id",
              "type": "string"
            },
            {
              "internalType": "uint256",
              "name": "reduce",
              "type": "uint256"
            }
          ],
          "internalType": "struct ProductManager.Item[]",
          "name": "items",
          "type": "tuple[]"
        }
      ],
      "name": "reduceQuantity",
      "outputs": [],
      "stateMutability": "nonpayable",
      "type": "function"
    },
    {
      "inputs": [
        {
          "internalType": "string",
          "name": "id",
          "type": "string"
        },
        {
          "internalType": "string",
          "name": "quality",
          "type": "string"
        },
        {
          "internalType": "uint256",
          "name": "quantity",
          "type": "uint256"
        },
        {
          "internalType": "string",
          "name": "category",
          "type": "string"
        },
        {
          "internalType": "uint256",
          "name": "price",
          "type": "uint256"
        },
        {
          "internalType": "string",
          "name": "description",
          "type": "string"
        },
        {
          "internalType": "string",
          "name": "timeofApplied",
          "type": "string"
        }
      ],
      "name": "reqCertificate",
      "outputs": [],
      "stateMutability": "nonpayable",
      "type": "function"
    }
  ],
  "bytecode": "0x608060405234801561001057600080fd5b506140c0806100206000396000f3fe608060405234801561001057600080fd5b50600436106100b45760003560e01c8063ae15eb8e11610071578063ae15eb8e1461013a578063c851c62f1461014f578063dbf9dcf114610162578063e07bb0b514610177578063e1a6669a1461018a578063f53a75031461019d57600080fd5b80630c2b4a09146100b957806334a3cb3e146100ce5780635f073f3a146100e15780637c77c16d146100ff5780637e3486051461011457806383f101b214610127575b600080fd5b6100cc6100c7366004613373565b6101b2565b005b6100cc6100dc366004613458565b610701565b6100e9610853565b6040516100f6919061351d565b60405180910390f35b610107610c73565b6040516100f69190613669565b6100cc610122366004613762565b610fd7565b6100cc6101353660046137c6565b61121f565b61014261164e565b6040516100f69190613858565b6100cc61015d366004613762565b611af7565b61016a611d37565b6040516100f691906139b2565b6100cc610185366004613b33565b61236d565b6100cc610198366004613762565b61252d565b6101a561300a565b6040516100f69190613bfc565b8660008060008060005b60005481101561028d57856040516020016101d79190613c60565b604051602081830303815290604052805190602001206000828154811061020057610200613c7c565b90600052602060002090600a02016000016040516020016102219190613cc6565b604051602081830303815290604052805190602001200361024157600194505b336001600160a01b03166000828154811061025e5761025e613c7c565b600091825260209091206002600a9092020101546001600160a01b03160361028557600193505b6001016101bc565b5060005b60015481101561034d57856040516020016102ac9190613c60565b60405160208183030381529060405280519060200120600182815481106102d5576102d5613c7c565b90600052602060002090600702016000016040516020016102f69190613cc6565b6040516020818303038152906040528051906020012003610345576001818154811061032457610324613c7c565b600091825260209091206006600790920201015460ff161561034557600192505b600101610291565b5060005b60025481101561040d578560405160200161036c9190613c60565b604051602081830303815290604052805190602001206002828154811061039557610395613c7c565b90600052602060002090600b02016000016040516020016103b69190613cc6565b604051602081830303815290604052805190602001200361040557600281815481106103e4576103e4613c7c565b60009182526020909120600a600b90920201015460ff161561040557600191505b600101610351565b50836104545760405162461bcd60e51b815260206004820152601160248201527010dc9bdc081251081b9bdd08199bdd5b99607a1b60448201526064015b60405180910390fd5b826104715760405162461bcd60e51b815260040161044b90613d3c565b816104be5760405162461bcd60e51b815260206004820152601760248201527f4d69645465726d206973206e6f7420617070726f766564000000000000000000604482015260640161044b565b801561050c5760405162461bcd60e51b815260206004820152601f60248201527f436572746966696361746520697320616c726561647920617070726f76656400604482015260640161044b565b60006105178d613145565b60408051610180810182528f8152602081018390523391810191909152606081018e9052608081018d905260a081018c905260c081018b905260e081018a90526101008101899052610120810189905260006101408201819052610160820181905260028054600181018255915281519293509091600b9091027f405787fa12a823e0f2b7631cc41b3ba8828b3321ca811111fa75cd3aa3bb5ace019081906105c09082613dcf565b50602082015160018201906105d59082613dcf565b5060408201516002820180546001600160a01b0319166001600160a01b03909216919091179055606082015160038201906106109082613dcf565b506080820151600482015560a0820151600582019061062f9082613dcf565b5060c0820151600682015560e0820151600782019061064e9082613dcf565b5061010082015160088201906106649082613dcf565b50610120820151600982019061067a9082613dcf565b50610140820151600a90910180546101609093015115156101000261ff00199215159290921661ffff19909316929092171790556040517fddb2c9d33a22403118552386f61b9c3db64d66f0b3a3e5832c0ace45a2189743906106ea908f908f908f908f908f908f908f90613e8f565b60405180910390a150505050505050505050505050565b60005b60035481101561084e5760005b82811015610845576003828154811061072c5761072c613c7c565b90600052602060002090600d020160000160405160200161074d9190613cc6565b6040516020818303038152906040528051906020012084848381811061077557610775613c7c565b90506020028101906107879190613f0a565b6107919080613f20565b6040516020016107a2929190613f6e565b604051602081830303815290604052805190602001200361083d578383828181106107cf576107cf613c7c565b90506020028101906107e19190613f0a565b60200135600383815481106107f8576107f8613c7c565b90600052602060002090600d0201600401546108149190613f7e565b6003838154811061082757610827613c7c565b90600052602060002090600d0201600401819055505b600101610711565b50600101610704565b505050565b60606000805480602002602001604051908101604052809291908181526020016000905b82821015610c6a57838290600052602060002090600a0201604051806101600160405290816000820180546108ab90613c92565b80601f01602080910402602001604051908101604052809291908181526020018280546108d790613c92565b80156109245780601f106108f957610100808354040283529160200191610924565b820191906000526020600020905b81548152906001019060200180831161090757829003601f168201915b5050505050815260200160018201805461093d90613c92565b80601f016020809104026020016040519081016040528092919081815260200182805461096990613c92565b80156109b65780601f1061098b576101008083540402835291602001916109b6565b820191906000526020600020905b81548152906001019060200180831161099957829003601f168201915b505050918352505060028201546001600160a01b031660208201526003820180546040909201916109e690613c92565b80601f0160208091040260200160405190810160405280929190818152602001828054610a1290613c92565b8015610a5f5780601f10610a3457610100808354040283529160200191610a5f565b820191906000526020600020905b815481529060010190602001808311610a4257829003601f168201915b50505050508152602001600482018054610a7890613c92565b80601f0160208091040260200160405190810160405280929190818152602001828054610aa490613c92565b8015610af15780601f10610ac657610100808354040283529160200191610af1565b820191906000526020600020905b815481529060010190602001808311610ad457829003601f168201915b505050505081526020016005820154815260200160068201548152602001600782018054610b1e90613c92565b80601f0160208091040260200160405190810160405280929190818152602001828054610b4a90613c92565b8015610b975780601f10610b6c57610100808354040283529160200191610b97565b820191906000526020600020905b815481529060010190602001808311610b7a57829003601f168201915b50505050508152602001600882018054610bb090613c92565b80601f0160208091040260200160405190810160405280929190818152602001828054610bdc90613c92565b8015610c295780601f10610bfe57610100808354040283529160200191610c29565b820191906000526020600020905b815481529060010190602001808311610c0c57829003601f168201915b50505091835250506009919091015460ff80821615156020808501919091526101009092041615156040909201919091529082526001929092019101610877565b50505050905090565b60606001805480602002602001604051908101604052809291908181526020016000905b82821015610c6a578382906000526020600020906007020160405180610100016040529081600082018054610ccb90613c92565b80601f0160208091040260200160405190810160405280929190818152602001828054610cf790613c92565b8015610d445780601f10610d1957610100808354040283529160200191610d44565b820191906000526020600020905b815481529060010190602001808311610d2757829003601f168201915b50505050508152602001600182018054610d5d90613c92565b80601f0160208091040260200160405190810160405280929190818152602001828054610d8990613c92565b8015610dd65780601f10610dab57610100808354040283529160200191610dd6565b820191906000526020600020905b815481529060010190602001808311610db957829003601f168201915b50505050508152602001600282018054610def90613c92565b80601f0160208091040260200160405190810160405280929190818152602001828054610e1b90613c92565b8015610e685780601f10610e3d57610100808354040283529160200191610e68565b820191906000526020600020905b815481529060010190602001808311610e4b57829003601f168201915b5050505050815260200160038201548152602001600482018054610e8b90613c92565b80601f0160208091040260200160405190810160405280929190818152602001828054610eb790613c92565b8015610f045780601f10610ed957610100808354040283529160200191610f04565b820191906000526020600020905b815481529060010190602001808311610ee757829003601f168201915b50505050508152602001600582018054610f1d90613c92565b80601f0160208091040260200160405190810160405280929190818152602001828054610f4990613c92565b8015610f965780601f10610f6b57610100808354040283529160200191610f96565b820191906000526020600020905b815481529060010190602001808311610f7957829003601f168201915b50505091835250506006919091015460ff80821615156020808501919091526101009092041615156040909201919091529082526001929092019101610c97565b816000805b6000548110156110955782604051602001610ff79190613c60565b604051602081830303815290604052805190602001206000828154811061102057611020613c7c565b90600052602060002090600a02016000016040516020016110419190613cc6565b604051602081830303815290604052805190602001200361108d576000818154811061106f5761106f613c7c565b600091825260209091206009600a90920201015460ff169150611095565b600101610fdc565b5080156110e45760405162461bcd60e51b815260206004820152601860248201527f43726f7020697320616c726561647920617070726f7665640000000000000000604482015260640161044b565b60005b60005481101561121857846040516020016111029190613c60565b604051602081830303815290604052805190602001206000828154811061112b5761112b613c7c565b90600052602060002090600a020160000160405160200161114c9190613cc6565b60405160208183030381529060405280519060200120036112105760016000828154811061117c5761117c613c7c565b90600052602060002090600a020160090160006101000a81548160ff02191690831515021790555083600082815481106111b8576111b8613c7c565b90600052602060002090600a020160080190816111d59190613dcf565b507f7d8a46572949673dbecd78e7e8212fc91cad672dcafd6b90292bc1940ff542bc8585604051611207929190613fa5565b60405180910390a15b6001016110e7565b5050505050565b8360008060008060005b6000548110156113f257856040516020016112449190613c60565b604051602081830303815290604052805190602001206000828154811061126d5761126d613c7c565b90600052602060002090600a020160000160405160200161128e9190613cc6565b60405160208183030381529060405280519060200120036113ea5760019450600081815481106112c0576112c0613c7c565b600091825260209091206009600a90920201015460ff16156113a1576001925060005b60015481101561139f57866040516020016112fe9190613c60565b604051602081830303815290604052805190602001206001828154811061132757611327613c7c565b90600052602060002090600702016000016040516020016113489190613cc6565b6040516020818303038152906040528051906020012003611397576001818154811061137657611376613c7c565b600091825260209091206006600790920201015460ff161561139757600192505b6001016112e3565b505b336001600160a01b0316600082815481106113be576113be613c7c565b600091825260209091206002600a9092020101546001600160a01b0316036113e557600193505b6113f2565b600101611229565b50836114345760405162461bcd60e51b815260206004820152601160248201527010dc9bdc081251081b9bdd08199bdd5b99607a1b604482015260640161044b565b826114515760405162461bcd60e51b815260040161044b90613d3c565b816114955760405162461bcd60e51b815260206004820152601460248201527310dc9bdc081a5cc81b9bdd08185c1c1c9bdd995960621b604482015260640161044b565b80156114e35760405162461bcd60e51b815260206004820152601b60248201527f4d69647465726d20697320616c726561647920617070726f7665640000000000604482015260640161044b565b60006114ee8a613145565b60408051610100810182528c8152602081018390529081018b9052606081018a90526080810189905260a08101899052600060c0820181905260e0820181905260018054808201825591528151929350909160079091027fb10e2d527612073b26eecdfd717e6a320cf44b4afac2b0732d9fcbe2b7fa0cf6019081906115749082613dcf565b50602082015160018201906115899082613dcf565b506040820151600282019061159e9082613dcf565b5060608201516003820155608082015160048201906115bd9082613dcf565b5060a082015160058201906115d29082613dcf565b5060c08201516006909101805460e09093015115156101000261ff00199215159290921661ffff19909316929092171790556040517f1c3c24898f0d1f35a0a4bf854529b7cddc4a9d7bdaac168098c029a36c8b36059061163a908c908c908c908c90613fd3565b60405180910390a150505050505050505050565b60606002805480602002602001604051908101604052809291908181526020016000905b82821015610c6a57838290600052602060002090600b0201604051806101800160405290816000820180546116a690613c92565b80601f01602080910402602001604051908101604052809291908181526020018280546116d290613c92565b801561171f5780601f106116f45761010080835404028352916020019161171f565b820191906000526020600020905b81548152906001019060200180831161170257829003601f168201915b5050505050815260200160018201805461173890613c92565b80601f016020809104026020016040519081016040528092919081815260200182805461176490613c92565b80156117b15780601f10611786576101008083540402835291602001916117b1565b820191906000526020600020905b81548152906001019060200180831161179457829003601f168201915b505050918352505060028201546001600160a01b031660208201526003820180546040909201916117e190613c92565b80601f016020809104026020016040519081016040528092919081815260200182805461180d90613c92565b801561185a5780601f1061182f5761010080835404028352916020019161185a565b820191906000526020600020905b81548152906001019060200180831161183d57829003601f168201915b505050505081526020016004820154815260200160058201805461187d90613c92565b80601f01602080910402602001604051908101604052809291908181526020018280546118a990613c92565b80156118f65780601f106118cb576101008083540402835291602001916118f6565b820191906000526020600020905b8154815290600101906020018083116118d957829003601f168201915b505050505081526020016006820154815260200160078201805461191990613c92565b80601f016020809104026020016040519081016040528092919081815260200182805461194590613c92565b80156119925780601f1061196757610100808354040283529160200191611992565b820191906000526020600020905b81548152906001019060200180831161197557829003601f168201915b505050505081526020016008820180546119ab90613c92565b80601f01602080910402602001604051908101604052809291908181526020018280546119d790613c92565b8015611a245780601f106119f957610100808354040283529160200191611a24565b820191906000526020600020905b815481529060010190602001808311611a0757829003601f168201915b50505050508152602001600982018054611a3d90613c92565b80601f0160208091040260200160405190810160405280929190818152602001828054611a6990613c92565b8015611ab65780601f10611a8b57610100808354040283529160200191611ab6565b820191906000526020600020905b815481529060010190602001808311611a9957829003601f168201915b5050509183525050600a919091015460ff80821615156020808501919091526101009092041615156040909201919091529082526001929092019101611672565b816000805b600154811015611bb55782604051602001611b179190613c60565b6040516020818303038152906040528051906020012060018281548110611b4057611b40613c7c565b9060005260206000209060070201600001604051602001611b619190613cc6565b6040516020818303038152906040528051906020012003611bad5760018181548110611b8f57611b8f613c7c565b600091825260209091206006600790920201015460ff169150611bb5565b600101611afc565b508015611c045760405162461bcd60e51b815260206004820152601b60248201527f4d69645465726d20697320616c726561647920617070726f7665640000000000604482015260640161044b565b60005b6001548110156112185784604051602001611c229190613c60565b6040516020818303038152906040528051906020012060018281548110611c4b57611c4b613c7c565b9060005260206000209060070201600001604051602001611c6c9190613cc6565b6040516020818303038152906040528051906020012003611d2f576001808281548110611c9b57611c9b613c7c565b906000526020600020906007020160060160006101000a81548160ff0219169083151502179055508360018281548110611cd757611cd7613c7c565b90600052602060002090600702016005019081611cf49190613dcf565b507f6bcc96769d450787abe84c5e24852350d0228ef324aeba3962acb7eba900aec78585604051611d26929190613fa5565b60405180910390a15b600101611c07565b60606003805480602002602001604051908101604052809291908181526020016000905b82821015610c6a57838290600052602060002090600d0201604051806101a0016040529081600082018054611d8f90613c92565b80601f0160208091040260200160405190810160405280929190818152602001828054611dbb90613c92565b8015611e085780601f10611ddd57610100808354040283529160200191611e08565b820191906000526020600020905b815481529060010190602001808311611deb57829003601f168201915b50505050508152602001600182018054611e2190613c92565b80601f0160208091040260200160405190810160405280929190818152602001828054611e4d90613c92565b8015611e9a5780601f10611e6f57610100808354040283529160200191611e9a565b820191906000526020600020905b815481529060010190602001808311611e7d57829003601f168201915b50505050508152602001600282018054611eb390613c92565b80601f0160208091040260200160405190810160405280929190818152602001828054611edf90613c92565b8015611f2c5780601f10611f0157610100808354040283529160200191611f2c565b820191906000526020600020905b815481529060010190602001808311611f0f57829003601f168201915b5050509183525050600382015460208201526004820154604082015260058201546001600160a01b03166060820152600682018054608090920191611f7090613c92565b80601f0160208091040260200160405190810160405280929190818152602001828054611f9c90613c92565b8015611fe95780601f10611fbe57610100808354040283529160200191611fe9565b820191906000526020600020905b815481529060010190602001808311611fcc57829003601f168201915b5050505050815260200160078201805461200290613c92565b80601f016020809104026020016040519081016040528092919081815260200182805461202e90613c92565b801561207b5780601f106120505761010080835404028352916020019161207b565b820191906000526020600020905b81548152906001019060200180831161205e57829003601f168201915b5050505050815260200160088201805461209490613c92565b80601f01602080910402602001604051908101604052809291908181526020018280546120c090613c92565b801561210d5780601f106120e25761010080835404028352916020019161210d565b820191906000526020600020905b8154815290600101906020018083116120f057829003601f168201915b5050505050815260200160098201805461212690613c92565b80601f016020809104026020016040519081016040528092919081815260200182805461215290613c92565b801561219f5780601f106121745761010080835404028352916020019161219f565b820191906000526020600020905b81548152906001019060200180831161218257829003601f168201915b50505050508152602001600a820180546121b890613c92565b80601f01602080910402602001604051908101604052809291908181526020018280546121e490613c92565b80156122315780601f1061220657610100808354040283529160200191612231565b820191906000526020600020905b81548152906001019060200180831161221457829003601f168201915b50505050508152602001600b8201805461224a90613c92565b80601f016020809104026020016040519081016040528092919081815260200182805461227690613c92565b80156122c35780601f10612298576101008083540402835291602001916122c3565b820191906000526020600020905b8154815290600101906020018083116122a657829003601f168201915b50505050508152602001600c820180546122dc90613c92565b80601f016020809104026020016040519081016040528092919081815260200182805461230890613c92565b80156123555780601f1061232a57610100808354040283529160200191612355565b820191906000526020600020905b81548152906001019060200180831161233857829003601f168201915b50505050508152505081526020019060010190611d5b565b6040805161016081018252888152602081018890523391810191909152606081018690526080810185905260a0810184905260c0810183905260e08101829052610100810182905260006101208201819052610140820181905280546001810182559080528151600a9091027f290decd9548b62a8d60345a988386fc84ba6bc95484008f6362f93160ef3e563019081906124089082613dcf565b506020820151600182019061241d9082613dcf565b5060408201516002820180546001600160a01b0319166001600160a01b03909216919091179055606082015160038201906124589082613dcf565b506080820151600482019061246d9082613dcf565b5060a0820151600582015560c0820151600682015560e082015160078201906124969082613dcf565b5061010082015160088201906124ac9082613dcf565b50610120820151600990910180546101409093015115156101000261ff00199215159290921661ffff19909316929092171790556040517fc22020035c625f99d852f1f135f80d5408f7498e744d034aea3633f08f0d46329061251c90899089908990899089908990899061401d565b60405180910390a150505050505050565b816000805b6002548110156125eb578260405160200161254d9190613c60565b604051602081830303815290604052805190602001206002828154811061257657612576613c7c565b90600052602060002090600b02016000016040516020016125979190613cc6565b60405160208183030381529060405280519060200120036125e357600281815481106125c5576125c5613c7c565b60009182526020909120600a600b90920201015460ff1691506125eb565b600101612532565b50801561263a5760405162461bcd60e51b815260206004820152601f60248201527f436572746966696361746520697320616c726561647920617070726f76656400604482015260640161044b565b60005b600254811015612fca57846040516020016126589190613c60565b604051602081830303815290604052805190602001206002828154811061268157612681613c7c565b90600052602060002090600b02016000016040516020016126a29190613cc6565b6040516020818303038152906040528051906020012003612fc2576001600282815481106126d2576126d2613c7c565b90600052602060002090600b0201600a0160006101000a81548160ff021916908315150217905550836002828154811061270e5761270e613c7c565b90600052602060002090600b0201600901908161272b9190613dcf565b5060608060608060005b60005481101561292057896040516020016127509190613c60565b604051602081830303815290604052805190602001206000828154811061277957612779613c7c565b90600052602060002090600a020160000160405160200161279a9190613cc6565b604051602081830303815290604052805190602001200361291857600081815481106127c8576127c8613c7c565b90600052602060002090600a020160070180546127e490613c92565b80601f016020809104026020016040519081016040528092919081815260200182805461281090613c92565b801561285d5780601f106128325761010080835404028352916020019161285d565b820191906000526020600020905b81548152906001019060200180831161284057829003601f168201915b505050505094506000818154811061287757612877613c7c565b90600052602060002090600a0201600801805461289390613c92565b80601f01602080910402602001604051908101604052809291908181526020018280546128bf90613c92565b801561290c5780601f106128e15761010080835404028352916020019161290c565b820191906000526020600020905b8154815290600101906020018083116128ef57829003601f168201915b50505050509350612920565b600101612735565b5060005b600154811015612b0f578960405160200161293f9190613c60565b604051602081830303815290604052805190602001206001828154811061296857612968613c7c565b90600052602060002090600702016000016040516020016129899190613cc6565b6040516020818303038152906040528051906020012003612b0757600181815481106129b7576129b7613c7c565b906000526020600020906007020160040180546129d390613c92565b80601f01602080910402602001604051908101604052809291908181526020018280546129ff90613c92565b8015612a4c5780601f10612a2157610100808354040283529160200191612a4c565b820191906000526020600020905b815481529060010190602001808311612a2f57829003601f168201915b5050505050925060018181548110612a6657612a66613c7c565b90600052602060002090600702016005018054612a8290613c92565b80601f0160208091040260200160405190810160405280929190818152602001828054612aae90613c92565b8015612afb5780601f10612ad057610100808354040283529160200191612afb565b820191906000526020600020905b815481529060010190602001808311612ade57829003601f168201915b50505050509150612b0f565b600101612924565b506003604051806101a001604052808b815260200160028881548110612b3757612b37613c7c565b90600052602060002090600b02016001018054612b5390613c92565b80601f0160208091040260200160405190810160405280929190818152602001828054612b7f90613c92565b8015612bcc5780601f10612ba157610100808354040283529160200191612bcc565b820191906000526020600020905b815481529060010190602001808311612baf57829003601f168201915b5050505050815260200160028881548110612be957612be9613c7c565b90600052602060002090600b02016005018054612c0590613c92565b80601f0160208091040260200160405190810160405280929190818152602001828054612c3190613c92565b8015612c7e5780601f10612c5357610100808354040283529160200191612c7e565b820191906000526020600020905b815481529060010190602001808311612c6157829003601f168201915b5050505050815260200160028881548110612c9b57612c9b613c7c565b90600052602060002090600b020160060154815260200160028881548110612cc557612cc5613c7c565b90600052602060002090600b020160040154815260200160028881548110612cef57612cef613c7c565b60009182526020918290206002600b909202018101546001600160a01b031683528054929091019189908110612d2757612d27613c7c565b90600052602060002090600b02016007018054612d4390613c92565b80601f0160208091040260200160405190810160405280929190818152602001828054612d6f90613c92565b8015612dbc5780601f10612d9157610100808354040283529160200191612dbc565b820191906000526020600020905b815481529060010190602001808311612d9f57829003601f168201915b5050505050815260200186815260200185815260200184815260200183815260200160028881548110612df157612df1613c7c565b90600052602060002090600b02016008018054612e0d90613c92565b80601f0160208091040260200160405190810160405280929190818152602001828054612e3990613c92565b8015612e865780601f10612e5b57610100808354040283529160200191612e86565b820191906000526020600020905b815481529060010190602001808311612e6957829003601f168201915b505050918352505060209081018b905282546001810184556000938452922081519192600d0201908190612eba9082613dcf565b5060208201516001820190612ecf9082613dcf565b5060408201516002820190612ee49082613dcf565b50606082015160038201556080820151600482015560a08201516005820180546001600160a01b0319166001600160a01b0390921691909117905560c08201516006820190612f339082613dcf565b5060e08201516007820190612f489082613dcf565b506101008201516008820190612f5e9082613dcf565b506101208201516009820190612f749082613dcf565b50610140820151600a820190612f8a9082613dcf565b50610160820151600b820190612fa09082613dcf565b50610180820151600c820190612fb69082613dcf565b50505050505050612fca565b60010161263d565b507f3ee3e8930da41d543552da6e34cbc398956870864421f02f19b357e53c5d692c8484604051612ffc929190613fa5565b60405180910390a150505050565b600080546060919067ffffffffffffffff81111561302a5761302a6132d0565b60405190808252806020026020018201604052801561305d57816020015b60608152602001906001900390816130485790505b50905060005b60005481101561313f576000818154811061308057613080613c7c565b90600052602060002090600a0201600001805461309c90613c92565b80601f01602080910402602001604051908101604052809291908181526020018280546130c890613c92565b80156131155780601f106130ea57610100808354040283529160200191613115565b820191906000526020600020905b8154815290600101906020018083116130f857829003601f168201915b505050505082828151811061312c5761312c613c7c565b6020908102919091010152600101613063565b50919050565b606060005b60005481101561328757826040516020016131659190613c60565b604051602081830303815290604052805190602001206000828154811061318e5761318e613c7c565b90600052602060002090600a02016000016040516020016131af9190613cc6565b604051602081830303815290604052805190602001200361327f57600081815481106131dd576131dd613c7c565b90600052602060002090600a020160010180546131f990613c92565b80601f016020809104026020016040519081016040528092919081815260200182805461322590613c92565b80156132725780601f1061324757610100808354040283529160200191613272565b820191906000526020600020905b81548152906001019060200180831161325557829003601f168201915b5050505050915050919050565b60010161314a565b5060405162461bcd60e51b815260206004820152601c60248201527f43726f70207769746820676976656e206964206e6f7420666f756e6400000000604482015260640161044b565b634e487b7160e01b600052604160045260246000fd5b600082601f8301126132f757600080fd5b813567ffffffffffffffff80821115613312576133126132d0565b604051601f8301601f19908116603f0116810190828211818310171561333a5761333a6132d0565b8160405283815286602085880101111561335357600080fd5b836020870160208301376000602085830101528094505050505092915050565b600080600080600080600060e0888a03121561338e57600080fd5b873567ffffffffffffffff808211156133a657600080fd5b6133b28b838c016132e6565b985060208a01359150808211156133c857600080fd5b6133d48b838c016132e6565b975060408a0135965060608a01359150808211156133f157600080fd5b6133fd8b838c016132e6565b955060808a0135945060a08a013591508082111561341a57600080fd5b6134268b838c016132e6565b935060c08a013591508082111561343c57600080fd5b506134498a828b016132e6565b91505092959891949750929550565b6000806020838503121561346b57600080fd5b823567ffffffffffffffff8082111561348357600080fd5b818501915085601f83011261349757600080fd5b8135818111156134a657600080fd5b8660208260051b85010111156134bb57600080fd5b60209290920196919550909350505050565b60005b838110156134e85781810151838201526020016134d0565b50506000910152565b600081518084526135098160208601602086016134cd565b601f01601f19169290920160200192915050565b600060208083018184528085518083526040925060408601915060408160051b87010184880160005b8381101561365b57603f198984030185528151610160815181865261356d828701826134f1565b915050888201518582038a87015261358582826134f1565b915050878201516135a0898701826001600160a01b03169052565b50606080830151868303828801526135b883826134f1565b92505050608080830151868303828801526135d383826134f1565b9250505060a080830151818701525060c080830151818701525060e0808301518683038288015261360483826134f1565b92505050610100808301518683038288015261362083826134f1565b92505050610120808301516136388288018215159052565b505061014091820151151594909101939093529386019390860190600101613546565b509098975050505050505050565b600060208083018184528085518083526040925060408601915060408160051b87010184880160005b8381101561365b57603f19898403018552815161010081518186526136b9828701826134f1565b915050888201518582038a8701526136d182826134f1565b91505087820151858203898701526136e982826134f1565b91505060608083015181870152506080808301518683038288015261370e83826134f1565b9250505060a0808301518683038288015261372983826134f1565b9250505060c0808301516137408288018215159052565b505060e091820151151594909101939093529386019390860190600101613692565b6000806040838503121561377557600080fd5b823567ffffffffffffffff8082111561378d57600080fd5b613799868387016132e6565b935060208501359150808211156137af57600080fd5b506137bc858286016132e6565b9150509250929050565b600080600080608085870312156137dc57600080fd5b843567ffffffffffffffff808211156137f457600080fd5b613800888389016132e6565b9550602087013591508082111561381657600080fd5b613822888389016132e6565b945060408701359350606087013591508082111561383f57600080fd5b5061384c878288016132e6565b91505092959194509250565b600060208083018184528085518083526040925060408601915060408160051b87010184880160005b8381101561365b57603f19898403018552815161018081518186526138a8828701826134f1565b915050888201518582038a8701526138c082826134f1565b915050878201516138db898701826001600160a01b03169052565b50606080830151868303828801526138f383826134f1565b92505050608080830151818701525060a0808301518683038288015261391983826134f1565b9250505060c080830151818701525060e0808301518683038288015261393f83826134f1565b92505050610100808301518683038288015261395b83826134f1565b92505050610120808301518683038288015261397783826134f1565b925050506101408083015161398f8288018215159052565b505061016091820151151594909101939093529386019390860190600101613881565b600060208083018184528085518083526040925060408601915060408160051b87010184880160005b8381101561365b57603f1989840301855281516101a08151818652613a02828701826134f1565b915050888201518582038a870152613a1a82826134f1565b9150508782015185820389870152613a3282826134f1565b606084810151908801526080808501519088015260a0808501516001600160a01b03169088015260c080850151888303828a01529193509150613a7583826134f1565b9250505060e08083015186830382880152613a9083826134f1565b925050506101008083015186830382880152613aac83826134f1565b925050506101208083015186830382880152613ac883826134f1565b925050506101408083015186830382880152613ae483826134f1565b925050506101608083015186830382880152613b0083826134f1565b925050506101808083015192508582038187015250613b1f81836134f1565b9689019694505050908601906001016139db565b600080600080600080600060e0888a031215613b4e57600080fd5b873567ffffffffffffffff80821115613b6657600080fd5b613b728b838c016132e6565b985060208a0135915080821115613b8857600080fd5b613b948b838c016132e6565b975060408a0135915080821115613baa57600080fd5b613bb68b838c016132e6565b965060608a0135915080821115613bcc57600080fd5b613bd88b838c016132e6565b955060808a0135945060a08a0135935060c08a013591508082111561343c57600080fd5b600060208083016020845280855180835260408601915060408160051b87010192506020870160005b82811015613c5357603f19888603018452613c418583516134f1565b94509285019290850190600101613c25565b5092979650505050505050565b60008251613c728184602087016134cd565b9190910192915050565b634e487b7160e01b600052603260045260246000fd5b600181811c90821680613ca657607f821691505b60208210810361313f57634e487b7160e01b600052602260045260246000fd5b6000808354613cd481613c92565b60018281168015613cec5760018114613d0157613d30565b60ff1984168752821515830287019450613d30565b8760005260208060002060005b85811015613d275781548a820152908401908201613d0e565b50505082870194505b50929695505050505050565b60208082526023908201527f53656e646572206973206e6f7420746865206f776e6572206f662074686520636040820152620726f760ec1b606082015260800190565b601f82111561084e576000816000526020600020601f850160051c81016020861015613da85750805b601f850160051c820191505b81811015613dc757828155600101613db4565b505050505050565b815167ffffffffffffffff811115613de957613de96132d0565b613dfd81613df78454613c92565b84613d7f565b602080601f831160018114613e325760008415613e1a5750858301515b600019600386901b1c1916600185901b178555613dc7565b600085815260208120601f198616915b82811015613e6157888601518255948401946001909101908401613e42565b5085821015613e7f5787850151600019600388901b60f8161c191681555b5050505050600190811b01905550565b60e081526000613ea260e083018a6134f1565b8281036020840152613eb4818a6134f1565b90508760408401528281036060840152613ece81886134f1565b905085608084015282810360a0840152613ee881866134f1565b905082810360c0840152613efc81856134f1565b9a9950505050505050505050565b60008235603e19833603018112613c7257600080fd5b6000808335601e19843603018112613f3757600080fd5b83018035915067ffffffffffffffff821115613f5257600080fd5b602001915036819003821315613f6757600080fd5b9250929050565b8183823760009101908152919050565b81810381811115613f9f57634e487b7160e01b600052601160045260246000fd5b92915050565b604081526000613fb860408301856134f1565b8281036020840152613fca81856134f1565b95945050505050565b608081526000613fe660808301876134f1565b8281036020840152613ff881876134f1565b9050846040840152828103606084015261401281856134f1565b979650505050505050565b60e08152600061403060e083018a6134f1565b8281036020840152614042818a6134f1565b9050828103604084015261405681896134f1565b9050828103606084015261406a81886134f1565b90508560808401528460a084015282810360c0840152613efc81856134f156fea2646970667358221220f431d3eb4c073d00ffde54191256122ff568e3bd6f3e63933a29969acdc10a1564736f6c63430008180033",
  "linkReferences": {},
  "deployedLinkReferences": {}
}