{
  "_format": "hh-sol-artifact-1",
  "contractName": "UserManager",
  "sourceName": "contracts/UserManager.sol",
  "abi": [
    {
      "anonymous": false,
      "inputs": [
        {
          "indexed": false,
          "internalType": "string",
          "name": "name",
          "type": "string"
        },
        {
          "indexed": false,
          "internalType": "string",
          "name": "email",
          "type": "string"
        },
        {
          "indexed": false,
          "internalType": "string",
          "name": "password",
          "type": "string"
        },
        {
          "indexed": false,
          "internalType": "string",
          "name": "role",
          "type": "string"
        }
      ],
      "name": "createAuthorityEvent",
      "type": "event"
    },
    {
      "anonymous": false,
      "inputs": [
        {
          "indexed": false,
          "internalType": "string",
          "name": "name",
          "type": "string"
        },
        {
          "indexed": false,
          "internalType": "string",
          "name": "email",
          "type": "string"
        },
        {
          "indexed": false,
          "internalType": "string",
          "name": "password",
          "type": "string"
        },
        {
          "indexed": false,
          "internalType": "string",
          "name": "role",
          "type": "string"
        }
      ],
      "name": "createCourierEvent",
      "type": "event"
    },
    {
      "anonymous": false,
      "inputs": [
        {
          "indexed": false,
          "internalType": "string",
          "name": "name",
          "type": "string"
        },
        {
          "indexed": false,
          "internalType": "string",
          "name": "email",
          "type": "string"
        },
        {
          "indexed": false,
          "internalType": "string",
          "name": "password",
          "type": "string"
        },
        {
          "indexed": false,
          "internalType": "string",
          "name": "role",
          "type": "string"
        }
      ],
      "name": "createCustomerEvent",
      "type": "event"
    },
    {
      "anonymous": false,
      "inputs": [
        {
          "indexed": false,
          "internalType": "string",
          "name": "name",
          "type": "string"
        },
        {
          "indexed": false,
          "internalType": "string",
          "name": "email",
          "type": "string"
        },
        {
          "indexed": false,
          "internalType": "string",
          "name": "password",
          "type": "string"
        },
        {
          "indexed": false,
          "internalType": "string",
          "name": "role",
          "type": "string"
        }
      ],
      "name": "createFarmerEvent",
      "type": "event"
    },
    {
      "anonymous": false,
      "inputs": [],
      "name": "fillDetailsEvent",
      "type": "event"
    },
    {
      "anonymous": false,
      "inputs": [],
      "name": "orderPickedEvent",
      "type": "event"
    },
    {
      "anonymous": false,
      "inputs": [],
      "name": "orderProductEvent",
      "type": "event"
    },
    {
      "anonymous": false,
      "inputs": [],
      "name": "productDeliveredEvent",
      "type": "event"
    },
    {
      "inputs": [
        {
          "internalType": "string",
          "name": "name",
          "type": "string"
        },
        {
          "internalType": "string",
          "name": "email",
          "type": "string"
        },
        {
          "internalType": "string",
          "name": "password",
          "type": "string"
        },
        {
          "internalType": "string",
          "name": "role",
          "type": "string"
        }
      ],
      "name": "createAuthority",
      "outputs": [],
      "stateMutability": "nonpayable",
      "type": "function"
    },
    {
      "inputs": [
        {
          "internalType": "string",
          "name": "name",
          "type": "string"
        },
        {
          "internalType": "string",
          "name": "email",
          "type": "string"
        },
        {
          "internalType": "string",
          "name": "password",
          "type": "string"
        },
        {
          "internalType": "string",
          "name": "role",
          "type": "string"
        }
      ],
      "name": "createCourier",
      "outputs": [],
      "stateMutability": "nonpayable",
      "type": "function"
    },
    {
      "inputs": [
        {
          "internalType": "string",
          "name": "name",
          "type": "string"
        },
        {
          "internalType": "string",
          "name": "email",
          "type": "string"
        },
        {
          "internalType": "string",
          "name": "password",
          "type": "string"
        },
        {
          "internalType": "string",
          "name": "role",
          "type": "string"
        }
      ],
      "name": "createCustomer",
      "outputs": [],
      "stateMutability": "nonpayable",
      "type": "function"
    },
    {
      "inputs": [
        {
          "internalType": "string",
          "name": "name",
          "type": "string"
        },
        {
          "internalType": "string",
          "name": "email",
          "type": "string"
        },
        {
          "internalType": "string",
          "name": "password",
          "type": "string"
        },
        {
          "internalType": "string",
          "name": "role",
          "type": "string"
        }
      ],
      "name": "createFarmer",
      "outputs": [],
      "stateMutability": "nonpayable",
      "type": "function"
    },
    {
      "inputs": [
        {
          "internalType": "string",
          "name": "name",
          "type": "string"
        },
        {
          "internalType": "uint256",
          "name": "contact",
          "type": "uint256"
        },
        {
          "internalType": "string",
          "name": "house",
          "type": "string"
        },
        {
          "internalType": "string",
          "name": "street",
          "type": "string"
        },
        {
          "internalType": "uint256",
          "name": "pincode",
          "type": "uint256"
        },
        {
          "internalType": "string",
          "name": "city",
          "type": "string"
        },
        {
          "internalType": "string",
          "name": "state",
          "type": "string"
        }
      ],
      "name": "fillDetails",
      "outputs": [],
      "stateMutability": "nonpayable",
      "type": "function"
    },
    {
      "inputs": [],
      "name": "getAllOrderIds",
      "outputs": [
        {
          "internalType": "string[]",
          "name": "",
          "type": "string[]"
        }
      ],
      "stateMutability": "view",
      "type": "function"
    },
    {
      "inputs": [
        {
          "internalType": "string",
          "name": "password",
          "type": "string"
        }
      ],
      "name": "getAuthority",
      "outputs": [
        {
          "components": [
            {
              "internalType": "string",
              "name": "name",
              "type": "string"
            },
            {
              "internalType": "string",
              "name": "email",
              "type": "string"
            },
            {
              "internalType": "string",
              "name": "password",
              "type": "string"
            },
            {
              "internalType": "string",
              "name": "role",
              "type": "string"
            },
            {
              "internalType": "address",
              "name": "ETHAddress",
              "type": "address"
            }
          ],
          "internalType": "struct UserManager.Authority",
          "name": "",
          "type": "tuple"
        }
      ],
      "stateMutability": "view",
      "type": "function"
    },
    {
      "inputs": [
        {
          "internalType": "string",
          "name": "password",
          "type": "string"
        }
      ],
      "name": "getCourier",
      "outputs": [
        {
          "components": [
            {
              "internalType": "string",
              "name": "name",
              "type": "string"
            },
            {
              "internalType": "string",
              "name": "email",
              "type": "string"
            },
            {
              "internalType": "string",
              "name": "password",
              "type": "string"
            },
            {
              "internalType": "string",
              "name": "role",
              "type": "string"
            },
            {
              "internalType": "address",
              "name": "ETHAddress",
              "type": "address"
            }
          ],
          "internalType": "struct UserManager.Courier",
          "name": "",
          "type": "tuple"
        }
      ],
      "stateMutability": "view",
      "type": "function"
    },
    {
      "inputs": [
        {
          "internalType": "string",
          "name": "password",
          "type": "string"
        }
      ],
      "name": "getCustomer",
      "outputs": [
        {
          "components": [
            {
              "internalType": "string",
              "name": "name",
              "type": "string"
            },
            {
              "internalType": "string",
              "name": "email",
              "type": "string"
            },
            {
              "internalType": "string",
              "name": "password",
              "type": "string"
            },
            {
              "internalType": "string",
              "name": "role",
              "type": "string"
            },
            {
              "internalType": "address",
              "name": "ETHAddress",
              "type": "address"
            }
          ],
          "internalType": "struct UserManager.Customer",
          "name": "",
          "type": "tuple"
        }
      ],
      "stateMutability": "view",
      "type": "function"
    },
    {
      "inputs": [],
      "name": "getDetails",
      "outputs": [
        {
          "components": [
            {
              "internalType": "address",
              "name": "ETHAddress",
              "type": "address"
            },
            {
              "internalType": "string",
              "name": "FullName",
              "type": "string"
            },
            {
              "internalType": "uint256",
              "name": "contact",
              "type": "uint256"
            },
            {
              "internalType": "string",
              "name": "house",
              "type": "string"
            },
            {
              "internalType": "string",
              "name": "street",
              "type": "string"
            },
            {
              "internalType": "uint256",
              "name": "pincode",
              "type": "uint256"
            },
            {
              "internalType": "string",
              "name": "city",
              "type": "string"
            },
            {
              "internalType": "string",
              "name": "state",
              "type": "string"
            }
          ],
          "internalType": "struct UserManager.Details",
          "name": "",
          "type": "tuple"
        }
      ],
      "stateMutability": "view",
      "type": "function"
    },
    {
      "inputs": [
        {
          "internalType": "string",
          "name": "password",
          "type": "string"
        }
      ],
      "name": "getFarmer",
      "outputs": [
        {
          "components": [
            {
              "internalType": "string",
              "name": "name",
              "type": "string"
            },
            {
              "internalType": "string",
              "name": "email",
              "type": "string"
            },
            {
              "internalType": "string",
              "name": "password",
              "type": "string"
            },
            {
              "internalType": "string",
              "name": "role",
              "type": "string"
            },
            {
              "internalType": "address",
              "name": "ETHAddress",
              "type": "address"
            }
          ],
          "internalType": "struct UserManager.Farmer",
          "name": "",
          "type": "tuple"
        }
      ],
      "stateMutability": "view",
      "type": "function"
    },
    {
      "inputs": [],
      "name": "getOrders",
      "outputs": [
        {
          "components": [
            {
              "components": [
                {
                  "internalType": "enum PaymentContract.OrderStatus",
                  "name": "status",
                  "type": "uint8"
                },
                {
                  "internalType": "string",
                  "name": "productId",
                  "type": "string"
                },
                {
                  "internalType": "string",
                  "name": "productName",
                  "type": "string"
                },
                {
                  "internalType": "address",
                  "name": "farmer",
                  "type": "address"
                },
                {
                  "internalType": "uint256",
                  "name": "totalPrice",
                  "type": "uint256"
                },
                {
                  "internalType": "uint256",
                  "name": "totalQuantity",
                  "type": "uint256"
                },
                {
                  "internalType": "string",
                  "name": "timeofPicked",
                  "type": "string"
                },
                {
                  "internalType": "string",
                  "name": "timeofDelivered",
                  "type": "string"
                }
              ],
              "internalType": "struct PaymentContract.Item[]",
              "name": "items",
              "type": "tuple[]"
            },
            {
              "internalType": "string",
              "name": "orderId",
              "type": "string"
            },
            {
              "internalType": "string",
              "name": "timeofOrdered",
              "type": "string"
            },
            {
              "internalType": "address",
              "name": "customer",
              "type": "address"
            },
            {
              "internalType": "uint256",
              "name": "totalAmount",
              "type": "uint256"
            }
          ],
          "internalType": "struct PaymentContract.Order[]",
          "name": "",
          "type": "tuple[]"
        }
      ],
      "stateMutability": "view",
      "type": "function"
    },
    {
      "inputs": [
        {
          "internalType": "string",
          "name": "pid",
          "type": "string"
        },
        {
          "internalType": "string",
          "name": "oid",
          "type": "string"
        },
        {
          "internalType": "string",
          "name": "time",
          "type": "string"
        }
      ],
      "name": "orderPicked",
      "outputs": [],
      "stateMutability": "nonpayable",
      "type": "function"
    },
    {
      "inputs": [
        {
          "components": [
            {
              "internalType": "enum PaymentContract.OrderStatus",
              "name": "status",
              "type": "uint8"
            },
            {
              "internalType": "string",
              "name": "productId",
              "type": "string"
            },
            {
              "internalType": "string",
              "name": "productName",
              "type": "string"
            },
            {
              "internalType": "address",
              "name": "farmer",
              "type": "address"
            },
            {
              "internalType": "uint256",
              "name": "totalPrice",
              "type": "uint256"
            },
            {
              "internalType": "uint256",
              "name": "totalQuantity",
              "type": "uint256"
            },
            {
              "internalType": "string",
              "name": "timeofPicked",
              "type": "string"
            },
            {
              "internalType": "string",
              "name": "timeofDelivered",
              "type": "string"
            }
          ],
          "internalType": "struct PaymentContract.Item[]",
          "name": "items",
          "type": "tuple[]"
        },
        {
          "internalType": "string",
          "name": "time",
          "type": "string"
        },
        {
          "internalType": "uint256",
          "name": "totalAmount",
          "type": "uint256"
        },
        {
          "internalType": "string",
          "name": "orderId",
          "type": "string"
        }
      ],
      "name": "orderProduct",
      "outputs": [],
      "stateMutability": "payable",
      "type": "function"
    },
    {
      "inputs": [
        {
          "internalType": "string",
          "name": "pid",
          "type": "string"
        },
        {
          "internalType": "string",
          "name": "oid",
          "type": "string"
        },
        {
          "internalType": "string",
          "name": "time",
          "type": "string"
        }
      ],
      "name": "productDelivered",
      "outputs": [],
      "stateMutability": "nonpayable",
      "type": "function"
    }
  ],
  "bytecode": "0x608060405234801561001057600080fd5b506132a7806100206000396000f3fe6080604052600436106100e85760003560e01c80635e94d7201161008a578063a94f1fb711610059578063a94f1fb714610269578063b15149421461027c578063b51ca0af1461029c578063fbbf93a0146102bc57600080fd5b80635e94d720146101e95780635f6f80cc1461020957806384bdfcd7146102295780638ba407f91461024957600080fd5b80634b2b612a116100c65780634b2b612a1461015a5780635087e6681461017c578063518bddd9146101a95780635baef56d146101c957600080fd5b806305ceb821146100ed578063200d6de71461010f5780632e2dc43e1461012f575b600080fd5b3480156100f957600080fd5b5061010d61010836600461268a565b6102de565b005b34801561011b57600080fd5b5061010d61012a36600461276f565b6103c2565b34801561013b57600080fd5b50610144610566565b60405161015191906128a4565b60405180910390f35b34801561016657600080fd5b5061016f610a0c565b6040516101519190612a45565b34801561018857600080fd5b5061019c610197366004612aa9565b610b48565b6040516101519190612b67565b3480156101b557600080fd5b5061019c6101c4366004612aa9565b610f24565b3480156101d557600080fd5b5061010d6101e436600461276f565b6110ac565b3480156101f557600080fd5b5061010d61020436600461276f565b611240565b34801561021557600080fd5b5061010d610224366004612b81565b6113d4565b34801561023557600080fd5b5061019c610244366004612aa9565b61161d565b34801561025557600080fd5b5061010d610264366004612b81565b6117a4565b61010d610277366004612c34565b6119ec565b34801561028857600080fd5b5061019c610297366004612aa9565b611d4b565b3480156102a857600080fd5b5061010d6102b736600461276f565b611ed1565b3480156102c857600080fd5b506102d161206a565b6040516101519190612e34565b33600081815260026020526040902080546001600160a01b031916909117815560010161030b8882612f84565b503360009081526002602081905260409091209081018790556003016103318682612f84565b5033600090815260026020526040902060040161034e8582612f84565b50336000908152600260205260409020600581018490556006016103728382612f84565b5033600090815260026020526040902060070161038f8282612f84565b506040517fc8133d0532c52370de350c4858130d2be6c8cd430b301496a3539e03b9082a6090600090a150505050505050565b336040516020016103d39190613044565b60408051601f1981840301815282825280516020918201203360009081526004808452939020909201549192610413926001600160a01b03169101613044565b60405160208183030381529060405280519060200120036104735760405162461bcd60e51b81526020600482015260156024820152744661726d657220616c72656164792065786973742160581b60448201526064015b60405180910390fd5b6040805160a08101825285815260208082018690528183018590526060820184905233608083018190526000908152600490915291909120815181906104b99082612f84565b50602082015160018201906104ce9082612f84565b50604082015160028201906104e39082612f84565b50606082015160038201906104f89082612f84565b5060809190910151600490910180546001600160a01b0319166001600160a01b039092169190911790556040517f5c47ff0a569e587692da604d2bf92787dd7f006684698dbd8c59539be7e35a7490610558908690869086908690613061565b60405180910390a150505050565b60606001805480602002602001604051908101604052809291908181526020016000905b82821015610a0357838290600052602060002090600502016040518060a001604052908160008201805480602002602001604051908101604052809291908181526020016000905b828210156108a557600084815260209020604080516101008101909152600884029091018054829060ff16600281111561060e5761060e61281c565b600281111561061f5761061f61281c565b815260200160018201805461063390612eff565b80601f016020809104026020016040519081016040528092919081815260200182805461065f90612eff565b80156106ac5780601f10610681576101008083540402835291602001916106ac565b820191906000526020600020905b81548152906001019060200180831161068f57829003601f168201915b505050505081526020016002820180546106c590612eff565b80601f01602080910402602001604051908101604052809291908181526020018280546106f190612eff565b801561073e5780601f106107135761010080835404028352916020019161073e565b820191906000526020600020905b81548152906001019060200180831161072157829003601f168201915b505050918352505060038201546001600160a01b03166020820152600482015460408201526005820154606082015260068201805460809092019161078290612eff565b80601f01602080910402602001604051908101604052809291908181526020018280546107ae90612eff565b80156107fb5780601f106107d0576101008083540402835291602001916107fb565b820191906000526020600020905b8154815290600101906020018083116107de57829003601f168201915b5050505050815260200160078201805461081490612eff565b80601f016020809104026020016040519081016040528092919081815260200182805461084090612eff565b801561088d5780601f106108625761010080835404028352916020019161088d565b820191906000526020600020905b81548152906001019060200180831161087057829003601f168201915b505050505081525050815260200190600101906105d2565b5050505081526020016001820180546108bd90612eff565b80601f01602080910402602001604051908101604052809291908181526020018280546108e990612eff565b80156109365780601f1061090b57610100808354040283529160200191610936565b820191906000526020600020905b81548152906001019060200180831161091957829003601f168201915b5050505050815260200160028201805461094f90612eff565b80601f016020809104026020016040519081016040528092919081815260200182805461097b90612eff565b80156109c85780601f1061099d576101008083540402835291602001916109c8565b820191906000526020600020905b8154815290600101906020018083116109ab57829003601f168201915b505050918352505060038201546001600160a01b0316602080830191909152600490920154604090910152908252600192909201910161058a565b50505050905090565b60015460609060009067ffffffffffffffff811115610a2d57610a2d6125a9565b604051908082528060200260200182016040528015610a6057816020015b6060815260200190600190039081610a4b5790505b50905060005b600154811015610b425760018181548110610a8357610a836130b9565b90600052602060002090600502016001018054610a9f90612eff565b80601f0160208091040260200160405190810160405280929190818152602001828054610acb90612eff565b8015610b185780601f10610aed57610100808354040283529160200191610b18565b820191906000526020600020905b815481529060010190602001808311610afb57829003601f168201915b5050505050828281518110610b2f57610b2f6130b9565b6020908102919091010152600101610a66565b50919050565b610b836040518060a001604052806060815260200160608152602001606081526020016060815260200160006001600160a01b031681525090565b33604051602001610b949190613044565b60408051601f1981840301815282825280516020918201203360009081526005835292909220600401549192610bd4926001600160a01b03169101613044565b6040516020818303038152906040528051906020012014610c2e5760405162461bcd60e51b8152602060048201526014602482015273417574686f72697479204e6f742065786973742160601b604482015260640161046a565b81604051602001610c3f91906130cf565b60408051601f19818403018152828252805160209182012033600090815260058352929092209192610c759260020191016130eb565b6040516020818303038152906040528051906020012014610ca85760405162461bcd60e51b815260040161046a90613161565b3360009081526005602052604090819020815160a08101909252805482908290610cd190612eff565b80601f0160208091040260200160405190810160405280929190818152602001828054610cfd90612eff565b8015610d4a5780601f10610d1f57610100808354040283529160200191610d4a565b820191906000526020600020905b815481529060010190602001808311610d2d57829003601f168201915b50505050508152602001600182018054610d6390612eff565b80601f0160208091040260200160405190810160405280929190818152602001828054610d8f90612eff565b8015610ddc5780601f10610db157610100808354040283529160200191610ddc565b820191906000526020600020905b815481529060010190602001808311610dbf57829003601f168201915b50505050508152602001600282018054610df590612eff565b80601f0160208091040260200160405190810160405280929190818152602001828054610e2190612eff565b8015610e6e5780601f10610e4357610100808354040283529160200191610e6e565b820191906000526020600020905b815481529060010190602001808311610e5157829003601f168201915b50505050508152602001600382018054610e8790612eff565b80601f0160208091040260200160405190810160405280929190818152602001828054610eb390612eff565b8015610f005780601f10610ed557610100808354040283529160200191610f00565b820191906000526020600020905b815481529060010190602001808311610ee357829003601f168201915b5050509183525050600491909101546001600160a01b031660209091015292915050565b610f5f6040518060a001604052806060815260200160608152602001606081526020016060815260200160006001600160a01b031681525090565b33604051602001610f709190613044565b60408051601f1981840301815282825280516020918201203360009081526003835292909220600401549192610fb0926001600160a01b03169101613044565b60405160208183030381529060405280519060200120146110095760405162461bcd60e51b8152602060048201526013602482015272437573746f6d6572204e6f742065786973742160681b604482015260640161046a565b8160405160200161101a91906130cf565b60408051601f198184030181528282528051602091820120336000908152600383529290922091926110509260020191016130eb565b60405160208183030381529060405280519060200120146110835760405162461bcd60e51b815260040161046a90613161565b3360009081526003602052604090819020815160a08101909252805482908290610cd190612eff565b336040516020016110bd9190613044565b60408051601f19818403018152828252805160209182012033600090815260058352929092206004015491926110fd926001600160a01b03169101613044565b604051602081830303815290604052805190602001200361115b5760405162461bcd60e51b8152602060048201526018602482015277417574686f7269747920616c72656164792065786973742160401b604482015260640161046a565b6040805160a08101825285815260208082018690528183018590526060820184905233608083018190526000908152600590915291909120815181906111a19082612f84565b50602082015160018201906111b69082612f84565b50604082015160028201906111cb9082612f84565b50606082015160038201906111e09082612f84565b5060809190910151600490910180546001600160a01b0319166001600160a01b039092169190911790556040517fc5818d9d7df1d0bdb4144d2e0d9ca09a1d5b05dbaea4477c8e49131d5b6623ad90610558908690869086908690613061565b336040516020016112519190613044565b60408051601f1981840301815282825280516020918201203360009081526006835292909220600401549192611291926001600160a01b03169101613044565b60405160208183030381529060405280519060200120036112ef5760405162461bcd60e51b8152602060048201526018602482015277417574686f7269747920616c72656164792065786973742160401b604482015260640161046a565b6040805160a08101825285815260208082018690528183018590526060820184905233608083018190526000908152600690915291909120815181906113359082612f84565b506020820151600182019061134a9082612f84565b506040820151600282019061135f9082612f84565b50606082015160038201906113749082612f84565b5060809190910151600490910180546001600160a01b0319166001600160a01b039092169190911790556040517f14910ef2263f83cc85289fa1244f2f612575d7ee261d2f3b223a0943f05a0b1490610558908690869086908690613061565b60005b6001548110156115ee57826040516020016113f291906130cf565b604051602081830303815290604052805190602001206001828154811061141b5761141b6130b9565b906000526020600020906005020160010160405160200161143c91906130eb565b60405160208183030381529060405280519060200120036115e65760005b6001828154811061146d5761146d6130b9565b60009182526020909120600590910201548110156115e4578460405160200161149691906130cf565b60405160208183030381529060405280519060200120600183815481106114bf576114bf6130b9565b906000526020600020906005020160000182815481106114e1576114e16130b9565b906000526020600020906008020160010160405160200161150291906130eb565b60405160208183030381529060405280519060200120036115dc57600260018381548110611532576115326130b9565b90600052602060002090600502016000018281548110611554576115546130b9565b60009182526020909120600890910201805460ff1916600183600281111561157e5761157e61281c565b02179055508260018381548110611597576115976130b9565b906000526020600020906005020160000182815481106115b9576115b96130b9565b906000526020600020906008020160070190816115d69190612f84565b506115e4565b60010161145a565b505b6001016113d7565b506040517f74cd5e7dfebb0156a786c55b52978ae798c1c2003fdd43701e11ea011d8c56cf90600090a1505050565b6116586040518060a001604052806060815260200160608152602001606081526020016060815260200160006001600160a01b031681525090565b336040516020016116699190613044565b60408051601f19818403018152828252805160209182012033600090815260068352929092206004015491926116a9926001600160a01b03169101613044565b60405160208183030381529060405280519060200120146117015760405162461bcd60e51b8152602060048201526012602482015271436f7572696572204e6f742065786973742160701b604482015260640161046a565b8160405160200161171291906130cf565b60408051601f198184030181528282528051602091820120336000908152600683529290922091926117489260020191016130eb565b604051602081830303815290604052805190602001201461177b5760405162461bcd60e51b815260040161046a90613161565b3360009081526006602052604090819020815160a08101909252805482908290610cd190612eff565b60005b6001548110156119bd57826040516020016117c291906130cf565b60405160208183030381529060405280519060200120600182815481106117eb576117eb6130b9565b906000526020600020906005020160010160405160200161180c91906130eb565b60405160208183030381529060405280519060200120036119b55760005b6001828154811061183d5761183d6130b9565b60009182526020909120600590910201548110156119b3578460405160200161186691906130cf565b604051602081830303815290604052805190602001206001838154811061188f5761188f6130b9565b906000526020600020906005020160000182815481106118b1576118b16130b9565b90600052602060002090600802016001016040516020016118d291906130eb565b60405160208183030381529060405280519060200120036119ab576001808381548110611901576119016130b9565b90600052602060002090600502016000018281548110611923576119236130b9565b60009182526020909120600890910201805460ff1916600183600281111561194d5761194d61281c565b02179055508260018381548110611966576119666130b9565b90600052602060002090600502016000018281548110611988576119886130b9565b906000526020600020906008020160060190816119a59190612f84565b506119b3565b60010161182a565b505b6001016117a7565b506040517f1e42b37ca27154dd8a086c1eebd42531ad87a2a5d1c3cd991b385bb7a02c8abe90600090a1505050565b813414611a2c5760405162461bcd60e51b815260206004820152600e60248201526d14185e5b595b9d0819985a5b195960921b604482015260640161046a565b336000908152602081905260409020600201611a488482612f84565b503360008181526020819052604090206003810180546001600160a01b03191690921790915560048101839055600101611a828282612f84565b5060005b8451811015611beb573360009081526020819052604090208551869083908110611ab257611ab26130b9565b60209081029190910181015182546001818101855560009485529290932081516008909402018054919390929091839160ff1990911690836002811115611afb57611afb61281c565b021790555060208201516001820190611b149082612f84565b5060408201516002820190611b299082612f84565b5060608201516003820180546001600160a01b0319166001600160a01b039092169190911790556080820151600482015560a0820151600582015560c08201516006820190611b789082612f84565b5060e08201516007820190611b8d9082612f84565b505033600090815260208190526040812080549192509083908110611bb457611bb46130b9565b60009182526020909120600890910201805460ff19166001836002811115611bde57611bde61281c565b0217905550600101611a86565b503360009081526020819052604081206001805480820182559252805490916005027fb10e2d527612073b26eecdfd717e6a320cf44b4afac2b0732d9fcbe2b7fa0cf60190611c3d90829084906123dc565b50600181810190611c5090840182613196565b50600281810190611c6390840182613196565b5060038281015490820180546001600160a01b0319166001600160a01b0390921691909117905560049182015491015560005b8451811015611d1b57848181518110611cb157611cb16130b9565b6020026020010151606001516001600160a01b03166108fc868381518110611cdb57611cdb6130b9565b6020026020010151608001519081150290604051600060405180830381858888f19350505050158015611d12573d6000803e3d6000fd5b50600101611c96565b506040517f7bab8ad11f8ad37ca148565c8640766d077c4ce878bcbfab5cfc8f5c01721d1e90600090a150505050565b611d866040518060a001604052806060815260200160608152602001606081526020016060815260200160006001600160a01b031681525090565b33604051602001611d979190613044565b60408051601f1981840301815282825280516020918201203360009081526004808452939020909201549192611dd7926001600160a01b03169101613044565b6040516020818303038152906040528051906020012014611e2e5760405162461bcd60e51b81526020600482015260116024820152704661726d6572204e6f742065786973742160781b604482015260640161046a565b81604051602001611e3f91906130cf565b60408051601f19818403018152828252805160209182012033600090815260048352929092209192611e759260020191016130eb565b6040516020818303038152906040528051906020012014611ea85760405162461bcd60e51b815260040161046a90613161565b3360009081526004602052604090819020815160a08101909252805482908290610cd190612eff565b33604051602001611ee29190613044565b60408051601f1981840301815282825280516020918201203360009081526003835292909220600401549192611f22926001600160a01b03169101613044565b6040516020818303038152906040528051906020012003611f855760405162461bcd60e51b815260206004820152601760248201527f437573746f6d657220616c726561647920657869737421000000000000000000604482015260640161046a565b6040805160a0810182528581526020808201869052818301859052606082018490523360808301819052600090815260039091529190912081518190611fcb9082612f84565b5060208201516001820190611fe09082612f84565b5060408201516002820190611ff59082612f84565b506060820151600382019061200a9082612f84565b5060809190910151600490910180546001600160a01b0319166001600160a01b039092169190911790556040517f1b4cea3558a9e0c9f742c904e361522d01633b394adf89f8b91d8a50df89117a90610558908690869086908690613061565b6120bb60405180610100016040528060006001600160a01b03168152602001606081526020016000815260200160608152602001606081526020016000815260200160608152602001606081525090565b336000908152600260209081526040918290208251610100810190935280546001600160a01b0316835260018101805491928401916120f990612eff565b80601f016020809104026020016040519081016040528092919081815260200182805461212590612eff565b80156121725780601f1061214757610100808354040283529160200191612172565b820191906000526020600020905b81548152906001019060200180831161215557829003601f168201915b505050505081526020016002820154815260200160038201805461219590612eff565b80601f01602080910402602001604051908101604052809291908181526020018280546121c190612eff565b801561220e5780601f106121e35761010080835404028352916020019161220e565b820191906000526020600020905b8154815290600101906020018083116121f157829003601f168201915b5050505050815260200160048201805461222790612eff565b80601f016020809104026020016040519081016040528092919081815260200182805461225390612eff565b80156122a05780601f10612275576101008083540402835291602001916122a0565b820191906000526020600020905b81548152906001019060200180831161228357829003601f168201915b50505050508152602001600582015481526020016006820180546122c390612eff565b80601f01602080910402602001604051908101604052809291908181526020018280546122ef90612eff565b801561233c5780601f106123115761010080835404028352916020019161233c565b820191906000526020600020905b81548152906001019060200180831161231f57829003601f168201915b5050505050815260200160078201805461235590612eff565b80601f016020809104026020016040519081016040528092919081815260200182805461238190612eff565b80156123ce5780601f106123a3576101008083540402835291602001916123ce565b820191906000526020600020905b8154815290600101906020018083116123b157829003601f168201915b505050505081525050905090565b8280548282559060005260206000209060080281019282156124d35760005260206000209160080282015b828111156124d357825482548491849160ff90911690829060ff191660018360028111156124375761243761281c565b021790555060018181019061244e90840182613196565b5060028181019061246190840182613196565b5060038281015490820180546001600160a01b0319166001600160a01b0390921691909117905560048083015490820155600580830154908201556006808201906124ae90840182613196565b506007818101906124c190840182613196565b50505091600801919060080190612407565b506124df9291506124e3565b5090565b808211156124df57805460ff1916815560006125026001830182612557565b612510600283016000612557565b6003820180546001600160a01b031916905560006004830181905560058301819055612540906006840190612557565b61254e600783016000612557565b506008016124e3565b50805461256390612eff565b6000825580601f10612573575050565b601f0160209004906000526020600020908101906125919190612594565b50565b5b808211156124df5760008155600101612595565b634e487b7160e01b600052604160045260246000fd5b604051610100810167ffffffffffffffff811182821017156125e3576125e36125a9565b60405290565b604051601f8201601f1916810167ffffffffffffffff81118282101715612612576126126125a9565b604052919050565b600082601f83011261262b57600080fd5b813567ffffffffffffffff811115612645576126456125a9565b612658601f8201601f19166020016125e9565b81815284602083860101111561266d57600080fd5b816020850160208301376000918101602001919091529392505050565b600080600080600080600060e0888a0312156126a557600080fd5b873567ffffffffffffffff808211156126bd57600080fd5b6126c98b838c0161261a565b985060208a0135975060408a01359150808211156126e657600080fd5b6126f28b838c0161261a565b965060608a013591508082111561270857600080fd5b6127148b838c0161261a565b955060808a0135945060a08a013591508082111561273157600080fd5b61273d8b838c0161261a565b935060c08a013591508082111561275357600080fd5b506127608a828b0161261a565b91505092959891949750929550565b6000806000806080858703121561278557600080fd5b843567ffffffffffffffff8082111561279d57600080fd5b6127a98883890161261a565b955060208701359150808211156127bf57600080fd5b6127cb8883890161261a565b945060408701359150808211156127e157600080fd5b6127ed8883890161261a565b9350606087013591508082111561280357600080fd5b506128108782880161261a565b91505092959194509250565b634e487b7160e01b600052602160045260246000fd5b6003811061285057634e487b7160e01b600052602160045260246000fd5b9052565b60005b8381101561286f578181015183820152602001612857565b50506000910152565b60008151808452612890816020860160208601612854565b601f01601f19169290920160200192915050565b60006020808301818452808551808352604092508286019150828160051b87010184880160005b83811015612a3757603f198984030185528151805160a0808652815190860181905260c0600582901b87018101928b01919087019060005b818110156129ca5760bf198986030183528351612921868251612832565b8d8101516101008f88015261293a610100880182612878565b90508d8201518782038f8901526129518282612878565b915050606082015161296e60608901826001600160a01b03169052565b506080820151608088015260a082015160a088015260c082015187820360c089015261299a8282612878565b91505060e0820151915086810360e08801526129b68183612878565b96505050928c0192918c0191600101612903565b50505050888201518582038a8701526129e38282612878565b91505087820151858203898701526129fb8282612878565b9150506060820151612a1860608701826001600160a01b03169052565b50608091820151949091019390935293860193908601906001016128cb565b509098975050505050505050565b600060208083016020845280855180835260408601915060408160051b87010192506020870160005b82811015612a9c57603f19888603018452612a8a858351612878565b94509285019290850190600101612a6e565b5092979650505050505050565b600060208284031215612abb57600080fd5b813567ffffffffffffffff811115612ad257600080fd5b612ade8482850161261a565b949350505050565b6000815160a08452612afb60a0850182612878565b905060208301518482036020860152612b148282612878565b91505060408301518482036040860152612b2e8282612878565b91505060608301518482036060860152612b488282612878565b6080948501516001600160a01b03169590940194909452509092915050565b602081526000612b7a6020830184612ae6565b9392505050565b600080600060608486031215612b9657600080fd5b833567ffffffffffffffff80821115612bae57600080fd5b612bba8783880161261a565b94506020860135915080821115612bd057600080fd5b612bdc8783880161261a565b93506040860135915080821115612bf257600080fd5b50612bff8682870161261a565b9150509250925092565b803560038110612c1857600080fd5b919050565b80356001600160a01b0381168114612c1857600080fd5b60008060008060808587031215612c4a57600080fd5b67ffffffffffffffff8086351115612c6157600080fd5b8535860187601f820112612c7457600080fd5b8181351115612c8557612c856125a9565b612c956020823560051b016125e9565b81358082526020808301929160051b8401018a811115612cb457600080fd5b602084015b81811015612dd5578581351115612ccf57600080fd5b80358501610100818e03601f19011215612ce857600080fd5b612cf06125bf565b612cfc60208301612c09565b81528760408301351115612d0f57600080fd5b612d228e6020604085013585010161261a565b60208201528760608301351115612d3857600080fd5b612d4b8e6020606085013585010161261a565b6040820152612d5c60808301612c1d565b606082015260a0820135608082015260c082013560a08201528760e08301351115612d8657600080fd5b612d998e602060e085013585010161261a565b60c082015261010082013588811115612db157600080fd5b612dc08f60208386010161261a565b60e08301525085525060209384019301612cb9565b50508097505050508060208701351115612dee57600080fd5b612dfe876020880135880161261a565b9350604086013592508060608701351115612e1857600080fd5b50612e29866060870135870161261a565b905092959194509250565b60208152612e4e6020820183516001600160a01b03169052565b60006020830151610100806040850152612e6c610120850183612878565b9150604085015160608501526060850151601f1980868503016080870152612e948483612878565b935060808701519150808685030160a0870152612eb18483612878565b935060a087015160c087015260c08701519150808685030160e0870152612ed88483612878565b935060e0870151915080868503018387015250612ef58382612878565b9695505050505050565b600181811c90821680612f1357607f821691505b602082108103610b4257634e487b7160e01b600052602260045260246000fd5b601f821115612f7f576000816000526020600020601f850160051c81016020861015612f5c5750805b601f850160051c820191505b81811015612f7b57828155600101612f68565b5050505b505050565b815167ffffffffffffffff811115612f9e57612f9e6125a9565b612fb281612fac8454612eff565b84612f33565b602080601f831160018114612fe75760008415612fcf5750858301515b600019600386901b1c1916600185901b178555612f7b565b600085815260208120601f198616915b8281101561301657888601518255948401946001909101908401612ff7565b50858210156130345787850151600019600388901b60f8161c191681555b5050505050600190811b01905550565b60609190911b6bffffffffffffffffffffffff1916815260140190565b6080815260006130746080830187612878565b82810360208401526130868187612878565b9050828103604084015261309a8186612878565b905082810360608401526130ae8185612878565b979650505050505050565b634e487b7160e01b600052603260045260246000fd5b600082516130e1818460208701612854565b9190910192915050565b60008083546130f981612eff565b60018281168015613111576001811461312657613155565b60ff1984168752821515830287019450613155565b8760005260208060002060005b8581101561314c5781548a820152908401908201613133565b50505082870194505b50929695505050505050565b6020808252818101527f57726f6e672070617373776f72642c506c656173652054727920416761696e21604082015260600190565b8181036131a1575050565b6131ab8254612eff565b67ffffffffffffffff8111156131c3576131c36125a9565b6131d181612fac8454612eff565b6000601f82116001811461320557600083156131ed5750848201545b600019600385901b1c1916600184901b17845561326a565b600085815260209020601f19841690600086815260209020845b8381101561323f578286015482556001958601959091019060200161321f565b508583101561325d5781850154600019600388901b60f8161c191681555b50505060018360011b0184555b505050505056fea264697066735822122070173d1a91ea80a3186f1451eee073d60058af11216a2478bd998ef401d99d1564736f6c63430008180033",
  "linkReferences": {},
  "deployedLinkReferences": {}
}