{
  "_format": "hh-sol-artifact-1",
  "contractName": "UserManager",
  "sourceName": "contracts/UserManager.sol",
  "abi": [
    {
      "anonymous": false,
      "inputs": [
        {
          "indexed": false,
          "internalType": "string",
          "name": "name",
          "type": "string"
        },
        {
          "indexed": false,
          "internalType": "string",
          "name": "email",
          "type": "string"
        },
        {
          "indexed": false,
          "internalType": "string",
          "name": "password",
          "type": "string"
        },
        {
          "indexed": false,
          "internalType": "string",
          "name": "role",
          "type": "string"
        }
      ],
      "name": "createAuthorityEvent",
      "type": "event"
    },
    {
      "anonymous": false,
      "inputs": [
        {
          "indexed": false,
          "internalType": "string",
          "name": "name",
          "type": "string"
        },
        {
          "indexed": false,
          "internalType": "string",
          "name": "email",
          "type": "string"
        },
        {
          "indexed": false,
          "internalType": "string",
          "name": "password",
          "type": "string"
        },
        {
          "indexed": false,
          "internalType": "string",
          "name": "role",
          "type": "string"
        }
      ],
      "name": "createCourierEvent",
      "type": "event"
    },
    {
      "anonymous": false,
      "inputs": [
        {
          "indexed": false,
          "internalType": "string",
          "name": "name",
          "type": "string"
        },
        {
          "indexed": false,
          "internalType": "string",
          "name": "email",
          "type": "string"
        },
        {
          "indexed": false,
          "internalType": "string",
          "name": "password",
          "type": "string"
        },
        {
          "indexed": false,
          "internalType": "string",
          "name": "role",
          "type": "string"
        }
      ],
      "name": "createCustomerEvent",
      "type": "event"
    },
    {
      "anonymous": false,
      "inputs": [
        {
          "indexed": false,
          "internalType": "string",
          "name": "name",
          "type": "string"
        },
        {
          "indexed": false,
          "internalType": "string",
          "name": "email",
          "type": "string"
        },
        {
          "indexed": false,
          "internalType": "string",
          "name": "password",
          "type": "string"
        },
        {
          "indexed": false,
          "internalType": "string",
          "name": "role",
          "type": "string"
        }
      ],
      "name": "createFarmerEvent",
      "type": "event"
    },
    {
      "anonymous": false,
      "inputs": [],
      "name": "orderPickedEvent",
      "type": "event"
    },
    {
      "anonymous": false,
      "inputs": [],
      "name": "orderProductEvent",
      "type": "event"
    },
    {
      "anonymous": false,
      "inputs": [],
      "name": "productDeliveredEvent",
      "type": "event"
    },
    {
      "inputs": [
        {
          "internalType": "string",
          "name": "name",
          "type": "string"
        },
        {
          "internalType": "string",
          "name": "email",
          "type": "string"
        },
        {
          "internalType": "string",
          "name": "password",
          "type": "string"
        },
        {
          "internalType": "string",
          "name": "role",
          "type": "string"
        }
      ],
      "name": "createAuthority",
      "outputs": [],
      "stateMutability": "nonpayable",
      "type": "function"
    },
    {
      "inputs": [
        {
          "internalType": "string",
          "name": "name",
          "type": "string"
        },
        {
          "internalType": "string",
          "name": "email",
          "type": "string"
        },
        {
          "internalType": "string",
          "name": "password",
          "type": "string"
        },
        {
          "internalType": "string",
          "name": "role",
          "type": "string"
        }
      ],
      "name": "createCourier",
      "outputs": [],
      "stateMutability": "nonpayable",
      "type": "function"
    },
    {
      "inputs": [
        {
          "internalType": "string",
          "name": "name",
          "type": "string"
        },
        {
          "internalType": "string",
          "name": "email",
          "type": "string"
        },
        {
          "internalType": "string",
          "name": "password",
          "type": "string"
        },
        {
          "internalType": "string",
          "name": "role",
          "type": "string"
        }
      ],
      "name": "createCustomer",
      "outputs": [],
      "stateMutability": "nonpayable",
      "type": "function"
    },
    {
      "inputs": [
        {
          "internalType": "string",
          "name": "name",
          "type": "string"
        },
        {
          "internalType": "string",
          "name": "email",
          "type": "string"
        },
        {
          "internalType": "string",
          "name": "password",
          "type": "string"
        },
        {
          "internalType": "string",
          "name": "role",
          "type": "string"
        }
      ],
      "name": "createFarmer",
      "outputs": [],
      "stateMutability": "nonpayable",
      "type": "function"
    },
    {
      "inputs": [],
      "name": "getAllOrderIds",
      "outputs": [
        {
          "internalType": "string[]",
          "name": "",
          "type": "string[]"
        }
      ],
      "stateMutability": "view",
      "type": "function"
    },
    {
      "inputs": [
        {
          "internalType": "string",
          "name": "password",
          "type": "string"
        }
      ],
      "name": "getAuthority",
      "outputs": [
        {
          "components": [
            {
              "internalType": "string",
              "name": "name",
              "type": "string"
            },
            {
              "internalType": "string",
              "name": "email",
              "type": "string"
            },
            {
              "internalType": "string",
              "name": "password",
              "type": "string"
            },
            {
              "internalType": "string",
              "name": "role",
              "type": "string"
            },
            {
              "internalType": "address",
              "name": "ETHAddress",
              "type": "address"
            }
          ],
          "internalType": "struct UserManager.Authority",
          "name": "",
          "type": "tuple"
        }
      ],
      "stateMutability": "view",
      "type": "function"
    },
    {
      "inputs": [
        {
          "internalType": "string",
          "name": "password",
          "type": "string"
        }
      ],
      "name": "getCourier",
      "outputs": [
        {
          "components": [
            {
              "internalType": "string",
              "name": "name",
              "type": "string"
            },
            {
              "internalType": "string",
              "name": "email",
              "type": "string"
            },
            {
              "internalType": "string",
              "name": "password",
              "type": "string"
            },
            {
              "internalType": "string",
              "name": "role",
              "type": "string"
            },
            {
              "internalType": "address",
              "name": "ETHAddress",
              "type": "address"
            }
          ],
          "internalType": "struct UserManager.Courier",
          "name": "",
          "type": "tuple"
        }
      ],
      "stateMutability": "view",
      "type": "function"
    },
    {
      "inputs": [
        {
          "internalType": "string",
          "name": "password",
          "type": "string"
        }
      ],
      "name": "getCustomer",
      "outputs": [
        {
          "components": [
            {
              "internalType": "string",
              "name": "name",
              "type": "string"
            },
            {
              "internalType": "string",
              "name": "email",
              "type": "string"
            },
            {
              "internalType": "string",
              "name": "password",
              "type": "string"
            },
            {
              "internalType": "string",
              "name": "role",
              "type": "string"
            },
            {
              "internalType": "address",
              "name": "ETHAddress",
              "type": "address"
            }
          ],
          "internalType": "struct UserManager.Customer",
          "name": "",
          "type": "tuple"
        }
      ],
      "stateMutability": "view",
      "type": "function"
    },
    {
      "inputs": [
        {
          "internalType": "string",
          "name": "password",
          "type": "string"
        }
      ],
      "name": "getFarmer",
      "outputs": [
        {
          "components": [
            {
              "internalType": "string",
              "name": "name",
              "type": "string"
            },
            {
              "internalType": "string",
              "name": "email",
              "type": "string"
            },
            {
              "internalType": "string",
              "name": "password",
              "type": "string"
            },
            {
              "internalType": "string",
              "name": "role",
              "type": "string"
            },
            {
              "internalType": "address",
              "name": "ETHAddress",
              "type": "address"
            }
          ],
          "internalType": "struct UserManager.Farmer",
          "name": "",
          "type": "tuple"
        }
      ],
      "stateMutability": "view",
      "type": "function"
    },
    {
      "inputs": [],
      "name": "getOrders",
      "outputs": [
        {
          "components": [
            {
              "components": [
                {
                  "internalType": "enum PaymentContract.OrderStatus",
                  "name": "status",
                  "type": "uint8"
                },
                {
                  "internalType": "string",
                  "name": "productId",
                  "type": "string"
                },
                {
                  "internalType": "string",
                  "name": "productName",
                  "type": "string"
                },
                {
                  "internalType": "address",
                  "name": "farmer",
                  "type": "address"
                },
                {
                  "internalType": "uint256",
                  "name": "totalPrice",
                  "type": "uint256"
                },
                {
                  "internalType": "uint256",
                  "name": "totalQuantity",
                  "type": "uint256"
                },
                {
                  "internalType": "string",
                  "name": "timeofPicked",
                  "type": "string"
                },
                {
                  "internalType": "string",
                  "name": "timeofDelivered",
                  "type": "string"
                }
              ],
              "internalType": "struct PaymentContract.Item[]",
              "name": "items",
              "type": "tuple[]"
            },
            {
              "internalType": "string",
              "name": "orderId",
              "type": "string"
            },
            {
              "internalType": "string",
              "name": "timeofOrdered",
              "type": "string"
            },
            {
              "internalType": "address",
              "name": "customer",
              "type": "address"
            },
            {
              "internalType": "uint256",
              "name": "totalAmount",
              "type": "uint256"
            }
          ],
          "internalType": "struct PaymentContract.Order[]",
          "name": "",
          "type": "tuple[]"
        }
      ],
      "stateMutability": "view",
      "type": "function"
    },
    {
      "inputs": [
        {
          "internalType": "string",
          "name": "pid",
          "type": "string"
        },
        {
          "internalType": "string",
          "name": "oid",
          "type": "string"
        },
        {
          "internalType": "string",
          "name": "time",
          "type": "string"
        }
      ],
      "name": "orderPicked",
      "outputs": [],
      "stateMutability": "nonpayable",
      "type": "function"
    },
    {
      "inputs": [
        {
          "components": [
            {
              "internalType": "enum PaymentContract.OrderStatus",
              "name": "status",
              "type": "uint8"
            },
            {
              "internalType": "string",
              "name": "productId",
              "type": "string"
            },
            {
              "internalType": "string",
              "name": "productName",
              "type": "string"
            },
            {
              "internalType": "address",
              "name": "farmer",
              "type": "address"
            },
            {
              "internalType": "uint256",
              "name": "totalPrice",
              "type": "uint256"
            },
            {
              "internalType": "uint256",
              "name": "totalQuantity",
              "type": "uint256"
            },
            {
              "internalType": "string",
              "name": "timeofPicked",
              "type": "string"
            },
            {
              "internalType": "string",
              "name": "timeofDelivered",
              "type": "string"
            }
          ],
          "internalType": "struct PaymentContract.Item[]",
          "name": "items",
          "type": "tuple[]"
        },
        {
          "internalType": "string",
          "name": "time",
          "type": "string"
        },
        {
          "internalType": "uint256",
          "name": "totalAmount",
          "type": "uint256"
        },
        {
          "internalType": "string",
          "name": "orderId",
          "type": "string"
        }
      ],
      "name": "orderProduct",
      "outputs": [],
      "stateMutability": "payable",
      "type": "function"
    },
    {
      "inputs": [
        {
          "internalType": "string",
          "name": "pid",
          "type": "string"
        },
        {
          "internalType": "string",
          "name": "oid",
          "type": "string"
        },
        {
          "internalType": "string",
          "name": "time",
          "type": "string"
        }
      ],
      "name": "productDelivered",
      "outputs": [],
      "stateMutability": "nonpayable",
      "type": "function"
    }
  ],
  "bytecode": "0x608060405234801561001057600080fd5b50612c09806100206000396000f3fe6080604052600436106100c25760003560e01c80635e94d7201161007f5780638ba407f9116100595780638ba407f914610203578063a94f1fb714610223578063b151494214610236578063b51ca0af1461025657600080fd5b80635e94d720146101a35780635f6f80cc146101c357806384bdfcd7146101e357600080fd5b8063200d6de7146100c75780632e2dc43e146100e95780634b2b612a146101145780635087e66814610136578063518bddd9146101635780635baef56d14610183575b600080fd5b3480156100d357600080fd5b506100e76100e23660046121a4565b610276565b005b3480156100f557600080fd5b506100fe61041a565b60405161010b91906122d9565b60405180910390f35b34801561012057600080fd5b506101296108c0565b60405161010b919061247a565b34801561014257600080fd5b506101566101513660046124de565b6109fc565b60405161010b919061259c565b34801561016f57600080fd5b5061015661017e3660046124de565b610dd8565b34801561018f57600080fd5b506100e761019e3660046121a4565b610f61565b3480156101af57600080fd5b506100e76101be3660046121a4565b6110f5565b3480156101cf57600080fd5b506100e76101de3660046125b6565b611289565b3480156101ef57600080fd5b506101566101fe3660046124de565b6114d2565b34801561020f57600080fd5b506100e761021e3660046125b6565b611659565b6100e7610231366004612669565b6118a1565b34801561024257600080fd5b506101566102513660046124de565b611bd7565b34801561026257600080fd5b506100e76102713660046121a4565b611d5d565b336040516020016102879190612869565b60408051601f19818403018152828252805160209182012033600090815260038352929092206004015491926102c7926001600160a01b03169101612869565b60405160208183030381529060405280519060200120036103275760405162461bcd60e51b81526020600482015260156024820152744661726d657220616c72656164792065786973742160581b60448201526064015b60405180910390fd5b6040805160a081018252858152602080820186905281830185905260608201849052336080830181905260009081526003909152919091208151819061036d908261290b565b5060208201516001820190610382908261290b565b5060408201516002820190610397908261290b565b50606082015160038201906103ac908261290b565b5060809190910151600490910180546001600160a01b0319166001600160a01b039092169190911790556040517f5c47ff0a569e587692da604d2bf92787dd7f006684698dbd8c59539be7e35a749061040c9086908690869086906129cb565b60405180910390a150505050565b60606001805480602002602001604051908101604052809291908181526020016000905b828210156108b757838290600052602060002090600502016040518060a001604052908160008201805480602002602001604051908101604052809291908181526020016000905b8282101561075957600084815260209020604080516101008101909152600884029091018054829060ff1660028111156104c2576104c2612251565b60028111156104d3576104d3612251565b81526020016001820180546104e790612886565b80601f016020809104026020016040519081016040528092919081815260200182805461051390612886565b80156105605780601f1061053557610100808354040283529160200191610560565b820191906000526020600020905b81548152906001019060200180831161054357829003601f168201915b5050505050815260200160028201805461057990612886565b80601f01602080910402602001604051908101604052809291908181526020018280546105a590612886565b80156105f25780601f106105c7576101008083540402835291602001916105f2565b820191906000526020600020905b8154815290600101906020018083116105d557829003601f168201915b505050918352505060038201546001600160a01b03166020820152600482015460408201526005820154606082015260068201805460809092019161063690612886565b80601f016020809104026020016040519081016040528092919081815260200182805461066290612886565b80156106af5780601f10610684576101008083540402835291602001916106af565b820191906000526020600020905b81548152906001019060200180831161069257829003601f168201915b505050505081526020016007820180546106c890612886565b80601f01602080910402602001604051908101604052809291908181526020018280546106f490612886565b80156107415780601f1061071657610100808354040283529160200191610741565b820191906000526020600020905b81548152906001019060200180831161072457829003601f168201915b50505050508152505081526020019060010190610486565b50505050815260200160018201805461077190612886565b80601f016020809104026020016040519081016040528092919081815260200182805461079d90612886565b80156107ea5780601f106107bf576101008083540402835291602001916107ea565b820191906000526020600020905b8154815290600101906020018083116107cd57829003601f168201915b5050505050815260200160028201805461080390612886565b80601f016020809104026020016040519081016040528092919081815260200182805461082f90612886565b801561087c5780601f106108515761010080835404028352916020019161087c565b820191906000526020600020905b81548152906001019060200180831161085f57829003601f168201915b505050918352505060038201546001600160a01b0316602080830191909152600490920154604090910152908252600192909201910161043e565b50505050905090565b60015460609060009067ffffffffffffffff8111156108e1576108e16120c3565b60405190808252806020026020018201604052801561091457816020015b60608152602001906001900390816108ff5790505b50905060005b6001548110156109f6576001818154811061093757610937612a23565b9060005260206000209060050201600101805461095390612886565b80601f016020809104026020016040519081016040528092919081815260200182805461097f90612886565b80156109cc5780601f106109a1576101008083540402835291602001916109cc565b820191906000526020600020905b8154815290600101906020018083116109af57829003601f168201915b50505050508282815181106109e3576109e3612a23565b602090810291909101015260010161091a565b50919050565b610a376040518060a001604052806060815260200160608152602001606081526020016060815260200160006001600160a01b031681525090565b33604051602001610a489190612869565b60408051601f1981840301815282825280516020918201203360009081526004808452939020909201549192610a88926001600160a01b03169101612869565b6040516020818303038152906040528051906020012014610ae25760405162461bcd60e51b8152602060048201526014602482015273417574686f72697479204e6f742065786973742160601b604482015260640161031e565b81604051602001610af39190612a39565b60408051601f19818403018152828252805160209182012033600090815260048352929092209192610b29926002019101612a55565b6040516020818303038152906040528051906020012014610b5c5760405162461bcd60e51b815260040161031e90612acb565b3360009081526004602052604090819020815160a08101909252805482908290610b8590612886565b80601f0160208091040260200160405190810160405280929190818152602001828054610bb190612886565b8015610bfe5780601f10610bd357610100808354040283529160200191610bfe565b820191906000526020600020905b815481529060010190602001808311610be157829003601f168201915b50505050508152602001600182018054610c1790612886565b80601f0160208091040260200160405190810160405280929190818152602001828054610c4390612886565b8015610c905780601f10610c6557610100808354040283529160200191610c90565b820191906000526020600020905b815481529060010190602001808311610c7357829003601f168201915b50505050508152602001600282018054610ca990612886565b80601f0160208091040260200160405190810160405280929190818152602001828054610cd590612886565b8015610d225780601f10610cf757610100808354040283529160200191610d22565b820191906000526020600020905b815481529060010190602001808311610d0557829003601f168201915b50505050508152602001600382018054610d3b90612886565b80601f0160208091040260200160405190810160405280929190818152602001828054610d6790612886565b8015610db45780601f10610d8957610100808354040283529160200191610db4565b820191906000526020600020905b815481529060010190602001808311610d9757829003601f168201915b5050509183525050600491909101546001600160a01b031660209091015292915050565b610e136040518060a001604052806060815260200160608152602001606081526020016060815260200160006001600160a01b031681525090565b33604051602001610e249190612869565b60408051601f1981840301815282825280516020918201203360009081526002835292909220600401549192610e64926001600160a01b03169101612869565b6040516020818303038152906040528051906020012014610ebd5760405162461bcd60e51b8152602060048201526013602482015272437573746f6d6572204e6f742065786973742160681b604482015260640161031e565b81604051602001610ece9190612a39565b60408051601f19818403018152828252805160209182012033600090815260028084529390209093610f0593919091019101612a55565b6040516020818303038152906040528051906020012014610f385760405162461bcd60e51b815260040161031e90612acb565b3360009081526002602052604090819020815160a08101909252805482908290610b8590612886565b33604051602001610f729190612869565b60408051601f1981840301815282825280516020918201203360009081526004808452939020909201549192610fb2926001600160a01b03169101612869565b60405160208183030381529060405280519060200120036110105760405162461bcd60e51b8152602060048201526018602482015277417574686f7269747920616c72656164792065786973742160401b604482015260640161031e565b6040805160a0810182528581526020808201869052818301859052606082018490523360808301819052600090815260049091529190912081518190611056908261290b565b506020820151600182019061106b908261290b565b5060408201516002820190611080908261290b565b5060608201516003820190611095908261290b565b5060809190910151600490910180546001600160a01b0319166001600160a01b039092169190911790556040517fc5818d9d7df1d0bdb4144d2e0d9ca09a1d5b05dbaea4477c8e49131d5b6623ad9061040c9086908690869086906129cb565b336040516020016111069190612869565b60408051601f1981840301815282825280516020918201203360009081526005835292909220600401549192611146926001600160a01b03169101612869565b60405160208183030381529060405280519060200120036111a45760405162461bcd60e51b8152602060048201526018602482015277417574686f7269747920616c72656164792065786973742160401b604482015260640161031e565b6040805160a08101825285815260208082018690528183018590526060820184905233608083018190526000908152600590915291909120815181906111ea908261290b565b50602082015160018201906111ff908261290b565b5060408201516002820190611214908261290b565b5060608201516003820190611229908261290b565b5060809190910151600490910180546001600160a01b0319166001600160a01b039092169190911790556040517f14910ef2263f83cc85289fa1244f2f612575d7ee261d2f3b223a0943f05a0b149061040c9086908690869086906129cb565b60005b6001548110156114a357826040516020016112a79190612a39565b60405160208183030381529060405280519060200120600182815481106112d0576112d0612a23565b90600052602060002090600502016001016040516020016112f19190612a55565b604051602081830303815290604052805190602001200361149b5760005b6001828154811061132257611322612a23565b6000918252602090912060059091020154811015611499578460405160200161134b9190612a39565b604051602081830303815290604052805190602001206001838154811061137457611374612a23565b9060005260206000209060050201600001828154811061139657611396612a23565b90600052602060002090600802016001016040516020016113b79190612a55565b6040516020818303038152906040528051906020012003611491576002600183815481106113e7576113e7612a23565b9060005260206000209060050201600001828154811061140957611409612a23565b60009182526020909120600890910201805460ff1916600183600281111561143357611433612251565b0217905550826001838154811061144c5761144c612a23565b9060005260206000209060050201600001828154811061146e5761146e612a23565b9060005260206000209060080201600601908161148b919061290b565b50611499565b60010161130f565b505b60010161128c565b506040517f74cd5e7dfebb0156a786c55b52978ae798c1c2003fdd43701e11ea011d8c56cf90600090a1505050565b61150d6040518060a001604052806060815260200160608152602001606081526020016060815260200160006001600160a01b031681525090565b3360405160200161151e9190612869565b60408051601f198184030181528282528051602091820120336000908152600583529290922060040154919261155e926001600160a01b03169101612869565b60405160208183030381529060405280519060200120146115b65760405162461bcd60e51b8152602060048201526012602482015271436f7572696572204e6f742065786973742160701b604482015260640161031e565b816040516020016115c79190612a39565b60408051601f198184030181528282528051602091820120336000908152600583529290922091926115fd926002019101612a55565b60405160208183030381529060405280519060200120146116305760405162461bcd60e51b815260040161031e90612acb565b3360009081526005602052604090819020815160a08101909252805482908290610b8590612886565b60005b60015481101561187257826040516020016116779190612a39565b60405160208183030381529060405280519060200120600182815481106116a0576116a0612a23565b90600052602060002090600502016001016040516020016116c19190612a55565b604051602081830303815290604052805190602001200361186a5760005b600182815481106116f2576116f2612a23565b6000918252602090912060059091020154811015611868578460405160200161171b9190612a39565b604051602081830303815290604052805190602001206001838154811061174457611744612a23565b9060005260206000209060050201600001828154811061176657611766612a23565b90600052602060002090600802016001016040516020016117879190612a55565b60405160208183030381529060405280519060200120036118605760018083815481106117b6576117b6612a23565b906000526020600020906005020160000182815481106117d8576117d8612a23565b60009182526020909120600890910201805460ff1916600183600281111561180257611802612251565b0217905550826001838154811061181b5761181b612a23565b9060005260206000209060050201600001828154811061183d5761183d612a23565b9060005260206000209060080201600601908161185a919061290b565b50611868565b6001016116df565b505b60010161165c565b506040517f1e42b37ca27154dd8a086c1eebd42531ad87a2a5d1c3cd991b385bb7a02c8abe90600090a1505050565b8134146118e15760405162461bcd60e51b815260206004820152600e60248201526d14185e5b595b9d0819985a5b195960921b604482015260640161031e565b3360009081526020819052604090206002016118fd848261290b565b503360008181526020819052604090206003810180546001600160a01b03191690921790915560048101839055600101611937828261290b565b5060005b8451811015611aa057336000908152602081905260409020855186908390811061196757611967612a23565b60209081029190910181015182546001818101855560009485529290932081516008909402018054919390929091839160ff19909116908360028111156119b0576119b0612251565b0217905550602082015160018201906119c9908261290b565b50604082015160028201906119de908261290b565b5060608201516003820180546001600160a01b0319166001600160a01b039092169190911790556080820151600482015560a0820151600582015560c08201516006820190611a2d908261290b565b5060e08201516007820190611a42908261290b565b505033600090815260208190526040812080549192509083908110611a6957611a69612a23565b60009182526020909120600890910201805460ff19166001836002811115611a9357611a93612251565b021790555060010161193b565b503360009081526020819052604081206001805480820182559252805490916005027fb10e2d527612073b26eecdfd717e6a320cf44b4afac2b0732d9fcbe2b7fa0cf60190611af29082908490611ef6565b50600181810190611b0590840182612b00565b50600281810190611b1890840182612b00565b5060038281015490820180546001600160a01b0319166001600160a01b0390921691909117905560049182015491015560005b8451811015611bd057848181518110611b6657611b66612a23565b6020026020010151606001516001600160a01b03166108fc868381518110611b9057611b90612a23565b6020026020010151608001519081150290604051600060405180830381858888f19350505050158015611bc7573d6000803e3d6000fd5b50600101611b4b565b5050505050565b611c126040518060a001604052806060815260200160608152602001606081526020016060815260200160006001600160a01b031681525090565b33604051602001611c239190612869565b60408051601f1981840301815282825280516020918201203360009081526003835292909220600401549192611c63926001600160a01b03169101612869565b6040516020818303038152906040528051906020012014611cba5760405162461bcd60e51b81526020600482015260116024820152704661726d6572204e6f742065786973742160781b604482015260640161031e565b81604051602001611ccb9190612a39565b60408051601f19818403018152828252805160209182012033600090815260038352929092209192611d01926002019101612a55565b6040516020818303038152906040528051906020012014611d345760405162461bcd60e51b815260040161031e90612acb565b3360009081526003602052604090819020815160a08101909252805482908290610b8590612886565b33604051602001611d6e9190612869565b60408051601f1981840301815282825280516020918201203360009081526002835292909220600401549192611dae926001600160a01b03169101612869565b6040516020818303038152906040528051906020012003611e115760405162461bcd60e51b815260206004820152601760248201527f437573746f6d657220616c726561647920657869737421000000000000000000604482015260640161031e565b6040805160a0810182528581526020808201869052818301859052606082018490523360808301819052600090815260029091529190912081518190611e57908261290b565b5060208201516001820190611e6c908261290b565b5060408201516002820190611e81908261290b565b5060608201516003820190611e96908261290b565b5060809190910151600490910180546001600160a01b0319166001600160a01b039092169190911790556040517f1b4cea3558a9e0c9f742c904e361522d01633b394adf89f8b91d8a50df89117a9061040c9086908690869086906129cb565b828054828255906000526020600020906008028101928215611fed5760005260206000209160080282015b82811115611fed57825482548491849160ff90911690829060ff19166001836002811115611f5157611f51612251565b0217905550600181810190611f6890840182612b00565b50600281810190611f7b90840182612b00565b5060038281015490820180546001600160a01b0319166001600160a01b039092169190911790556004808301549082015560058083015490820155600680820190611fc890840182612b00565b50600781810190611fdb90840182612b00565b50505091600801919060080190611f21565b50611ff9929150611ffd565b5090565b80821115611ff957805460ff19168155600061201c6001830182612071565b61202a600283016000612071565b6003820180546001600160a01b03191690556000600483018190556005830181905561205a906006840190612071565b612068600783016000612071565b50600801611ffd565b50805461207d90612886565b6000825580601f1061208d575050565b601f0160209004906000526020600020908101906120ab91906120ae565b50565b5b80821115611ff957600081556001016120af565b634e487b7160e01b600052604160045260246000fd5b604051610100810167ffffffffffffffff811182821017156120fd576120fd6120c3565b60405290565b604051601f8201601f1916810167ffffffffffffffff8111828210171561212c5761212c6120c3565b604052919050565b600082601f83011261214557600080fd5b813567ffffffffffffffff81111561215f5761215f6120c3565b612172601f8201601f1916602001612103565b81815284602083860101111561218757600080fd5b816020850160208301376000918101602001919091529392505050565b600080600080608085870312156121ba57600080fd5b843567ffffffffffffffff808211156121d257600080fd5b6121de88838901612134565b955060208701359150808211156121f457600080fd5b61220088838901612134565b9450604087013591508082111561221657600080fd5b61222288838901612134565b9350606087013591508082111561223857600080fd5b5061224587828801612134565b91505092959194509250565b634e487b7160e01b600052602160045260246000fd5b6003811061228557634e487b7160e01b600052602160045260246000fd5b9052565b60005b838110156122a457818101518382015260200161228c565b50506000910152565b600081518084526122c5816020860160208601612289565b601f01601f19169290920160200192915050565b60006020808301818452808551808352604092508286019150828160051b87010184880160005b8381101561246c57603f198984030185528151805160a0808652815190860181905260c0600582901b87018101928b01919087019060005b818110156123ff5760bf198986030183528351612356868251612267565b8d8101516101008f88015261236f6101008801826122ad565b90508d8201518782038f89015261238682826122ad565b91505060608201516123a360608901826001600160a01b03169052565b506080820151608088015260a082015160a088015260c082015187820360c08901526123cf82826122ad565b91505060e0820151915086810360e08801526123eb81836122ad565b96505050928c0192918c0191600101612338565b50505050888201518582038a87015261241882826122ad565b915050878201518582038987015261243082826122ad565b915050606082015161244d60608701826001600160a01b03169052565b5060809182015194909101939093529386019390860190600101612300565b509098975050505050505050565b600060208083016020845280855180835260408601915060408160051b87010192506020870160005b828110156124d157603f198886030184526124bf8583516122ad565b945092850192908501906001016124a3565b5092979650505050505050565b6000602082840312156124f057600080fd5b813567ffffffffffffffff81111561250757600080fd5b61251384828501612134565b949350505050565b6000815160a0845261253060a08501826122ad565b90506020830151848203602086015261254982826122ad565b9150506040830151848203604086015261256382826122ad565b9150506060830151848203606086015261257d82826122ad565b6080948501516001600160a01b03169590940194909452509092915050565b6020815260006125af602083018461251b565b9392505050565b6000806000606084860312156125cb57600080fd5b833567ffffffffffffffff808211156125e357600080fd5b6125ef87838801612134565b9450602086013591508082111561260557600080fd5b61261187838801612134565b9350604086013591508082111561262757600080fd5b5061263486828701612134565b9150509250925092565b80356003811061264d57600080fd5b919050565b80356001600160a01b038116811461264d57600080fd5b6000806000806080858703121561267f57600080fd5b67ffffffffffffffff808635111561269657600080fd5b8535860187601f8201126126a957600080fd5b81813511156126ba576126ba6120c3565b6126ca6020823560051b01612103565b81358082526020808301929160051b8401018a8111156126e957600080fd5b602084015b8181101561280a57858135111561270457600080fd5b80358501610100818e03601f1901121561271d57600080fd5b6127256120d9565b6127316020830161263e565b8152876040830135111561274457600080fd5b6127578e60206040850135850101612134565b6020820152876060830135111561276d57600080fd5b6127808e60206060850135850101612134565b604082015261279160808301612652565b606082015260a0820135608082015260c082013560a08201528760e083013511156127bb57600080fd5b6127ce8e602060e0850135850101612134565b60c0820152610100820135888111156127e657600080fd5b6127f58f602083860101612134565b60e083015250855250602093840193016126ee565b5050809750505050806020870135111561282357600080fd5b6128338760208801358801612134565b935060408601359250806060870135111561284d57600080fd5b5061285e8660608701358701612134565b905092959194509250565b60609190911b6bffffffffffffffffffffffff1916815260140190565b600181811c9082168061289a57607f821691505b6020821081036109f657634e487b7160e01b600052602260045260246000fd5b601f821115612906576000816000526020600020601f850160051c810160208610156128e35750805b601f850160051c820191505b81811015612902578281556001016128ef565b5050505b505050565b815167ffffffffffffffff811115612925576129256120c3565b612939816129338454612886565b846128ba565b602080601f83116001811461296e57600084156129565750858301515b600019600386901b1c1916600185901b178555612902565b600085815260208120601f198616915b8281101561299d5788860151825594840194600190910190840161297e565b50858210156129bb5787850151600019600388901b60f8161c191681555b5050505050600190811b01905550565b6080815260006129de60808301876122ad565b82810360208401526129f081876122ad565b90508281036040840152612a0481866122ad565b90508281036060840152612a1881856122ad565b979650505050505050565b634e487b7160e01b600052603260045260246000fd5b60008251612a4b818460208701612289565b9190910192915050565b6000808354612a6381612886565b60018281168015612a7b5760018114612a9057612abf565b60ff1984168752821515830287019450612abf565b8760005260208060002060005b85811015612ab65781548a820152908401908201612a9d565b50505082870194505b50929695505050505050565b6020808252818101527f57726f6e672070617373776f72642c506c656173652054727920416761696e21604082015260600190565b818103612b0b575050565b612b158254612886565b67ffffffffffffffff811115612b2d57612b2d6120c3565b612b3b816129338454612886565b6000601f821160018114612b6f5760008315612b575750848201545b600019600385901b1c1916600184901b178455611bd0565b600085815260209020601f19841690600086815260209020845b83811015612ba95782860154825560019586019590910190602001612b89565b50858310156129bb5793015460001960f8600387901b161c19169092555050600190811b0190555056fea2646970667358221220fbe4527a77406c3fa82d943890f54861e2cef7b0af0d7e2eba4879a54e0a7a2364736f6c63430008180033",
  "linkReferences": {},
  "deployedLinkReferences": {}
}