{
  "_format": "hh-sol-artifact-1",
  "contractName": "ProductManager",
  "sourceName": "contracts/ProductManager.sol",
  "abi": [
    {
      "anonymous": false,
      "inputs": [
        {
          "indexed": false,
          "internalType": "string",
          "name": "id",
          "type": "string"
        },
        {
          "indexed": false,
          "internalType": "string",
          "name": "time",
          "type": "string"
        }
      ],
      "name": "CertificateEvent",
      "type": "event"
    },
    {
      "anonymous": false,
      "inputs": [
        {
          "indexed": false,
          "internalType": "string",
          "name": "id",
          "type": "string"
        },
        {
          "indexed": false,
          "internalType": "string",
          "name": "time",
          "type": "string"
        }
      ],
      "name": "CropEvent",
      "type": "event"
    },
    {
      "anonymous": false,
      "inputs": [
        {
          "indexed": false,
          "internalType": "string",
          "name": "id",
          "type": "string"
        },
        {
          "indexed": false,
          "internalType": "string",
          "name": "time",
          "type": "string"
        }
      ],
      "name": "MidTermEvent",
      "type": "event"
    },
    {
      "anonymous": false,
      "inputs": [
        {
          "indexed": false,
          "internalType": "string",
          "name": "id",
          "type": "string"
        }
      ],
      "name": "cropRegisterEvent",
      "type": "event"
    },
    {
      "anonymous": false,
      "inputs": [
        {
          "indexed": false,
          "internalType": "string",
          "name": "id",
          "type": "string"
        }
      ],
      "name": "midTermRegisterEvent",
      "type": "event"
    },
    {
      "anonymous": false,
      "inputs": [
        {
          "indexed": false,
          "internalType": "string",
          "name": "id",
          "type": "string"
        },
        {
          "indexed": false,
          "internalType": "string",
          "name": "quality",
          "type": "string"
        },
        {
          "indexed": false,
          "internalType": "uint256",
          "name": "quantity",
          "type": "uint256"
        },
        {
          "indexed": false,
          "internalType": "uint256",
          "name": "price",
          "type": "uint256"
        },
        {
          "indexed": false,
          "internalType": "string",
          "name": "description",
          "type": "string"
        },
        {
          "indexed": false,
          "internalType": "string",
          "name": "timeofApplied",
          "type": "string"
        }
      ],
      "name": "reqCertificateEvent",
      "type": "event"
    },
    {
      "inputs": [
        {
          "internalType": "string",
          "name": "id",
          "type": "string"
        },
        {
          "internalType": "string",
          "name": "time",
          "type": "string"
        }
      ],
      "name": "approveCertificate",
      "outputs": [],
      "stateMutability": "nonpayable",
      "type": "function"
    },
    {
      "inputs": [
        {
          "internalType": "string",
          "name": "id",
          "type": "string"
        },
        {
          "internalType": "string",
          "name": "time",
          "type": "string"
        }
      ],
      "name": "approveCrop",
      "outputs": [],
      "stateMutability": "nonpayable",
      "type": "function"
    },
    {
      "inputs": [
        {
          "internalType": "string",
          "name": "id",
          "type": "string"
        },
        {
          "internalType": "string",
          "name": "time",
          "type": "string"
        }
      ],
      "name": "approveMidTerm",
      "outputs": [],
      "stateMutability": "nonpayable",
      "type": "function"
    },
    {
      "inputs": [
        {
          "internalType": "string",
          "name": "id",
          "type": "string"
        },
        {
          "internalType": "string",
          "name": "cropName",
          "type": "string"
        },
        {
          "internalType": "string",
          "name": "category",
          "type": "string"
        },
        {
          "internalType": "string",
          "name": "location",
          "type": "string"
        },
        {
          "internalType": "string",
          "name": "acre",
          "type": "string"
        },
        {
          "internalType": "string",
          "name": "months",
          "type": "string"
        },
        {
          "internalType": "uint256",
          "name": "yieldperacre",
          "type": "uint256"
        },
        {
          "internalType": "string",
          "name": "timeofApplied",
          "type": "string"
        }
      ],
      "name": "cropRegister",
      "outputs": [],
      "stateMutability": "nonpayable",
      "type": "function"
    },
    {
      "inputs": [],
      "name": "fetchProduct",
      "outputs": [
        {
          "components": [
            {
              "internalType": "string",
              "name": "id",
              "type": "string"
            },
            {
              "internalType": "string",
              "name": "productName",
              "type": "string"
            },
            {
              "internalType": "uint256",
              "name": "price",
              "type": "uint256"
            },
            {
              "internalType": "uint256",
              "name": "quantity",
              "type": "uint256"
            },
            {
              "internalType": "address",
              "name": "ETHAddress",
              "type": "address"
            },
            {
              "internalType": "string",
              "name": "description",
              "type": "string"
            },
            {
              "internalType": "string",
              "name": "cropRegistered",
              "type": "string"
            },
            {
              "internalType": "string",
              "name": "cropApproved",
              "type": "string"
            },
            {
              "internalType": "string",
              "name": "midTermRegistered",
              "type": "string"
            },
            {
              "internalType": "string",
              "name": "midTermApproved",
              "type": "string"
            },
            {
              "internalType": "string",
              "name": "certRegistered",
              "type": "string"
            },
            {
              "internalType": "string",
              "name": "certApproved",
              "type": "string"
            },
            {
              "internalType": "bool",
              "name": "show",
              "type": "bool"
            }
          ],
          "internalType": "struct ProductManager.Product[]",
          "name": "",
          "type": "tuple[]"
        }
      ],
      "stateMutability": "view",
      "type": "function"
    },
    {
      "inputs": [],
      "name": "getAllCropIds",
      "outputs": [
        {
          "internalType": "string[]",
          "name": "",
          "type": "string[]"
        }
      ],
      "stateMutability": "view",
      "type": "function"
    },
    {
      "inputs": [],
      "name": "getCertificate",
      "outputs": [
        {
          "components": [
            {
              "internalType": "string",
              "name": "id",
              "type": "string"
            },
            {
              "internalType": "string",
              "name": "cropName",
              "type": "string"
            },
            {
              "internalType": "address",
              "name": "ETHAddress",
              "type": "address"
            },
            {
              "internalType": "string",
              "name": "quality",
              "type": "string"
            },
            {
              "internalType": "uint256",
              "name": "quantity",
              "type": "uint256"
            },
            {
              "internalType": "uint256",
              "name": "price",
              "type": "uint256"
            },
            {
              "internalType": "string",
              "name": "description",
              "type": "string"
            },
            {
              "internalType": "string",
              "name": "timeofApplied",
              "type": "string"
            },
            {
              "internalType": "string",
              "name": "timeofVerified",
              "type": "string"
            },
            {
              "internalType": "bool",
              "name": "isApproved",
              "type": "bool"
            },
            {
              "internalType": "bool",
              "name": "isDisapproved",
              "type": "bool"
            }
          ],
          "internalType": "struct ProductManager.Certificate[]",
          "name": "",
          "type": "tuple[]"
        }
      ],
      "stateMutability": "view",
      "type": "function"
    },
    {
      "inputs": [],
      "name": "getCrops",
      "outputs": [
        {
          "components": [
            {
              "internalType": "string",
              "name": "id",
              "type": "string"
            },
            {
              "internalType": "string",
              "name": "cropName",
              "type": "string"
            },
            {
              "internalType": "string",
              "name": "category",
              "type": "string"
            },
            {
              "internalType": "address",
              "name": "ETHAddress",
              "type": "address"
            },
            {
              "internalType": "string",
              "name": "location",
              "type": "string"
            },
            {
              "internalType": "string",
              "name": "acre",
              "type": "string"
            },
            {
              "internalType": "string",
              "name": "months",
              "type": "string"
            },
            {
              "internalType": "uint256",
              "name": "yieldperacre",
              "type": "uint256"
            },
            {
              "internalType": "string",
              "name": "timeofApplied",
              "type": "string"
            },
            {
              "internalType": "string",
              "name": "timeofVerified",
              "type": "string"
            },
            {
              "internalType": "bool",
              "name": "isApproved",
              "type": "bool"
            },
            {
              "internalType": "bool",
              "name": "isDisapproved",
              "type": "bool"
            }
          ],
          "internalType": "struct CropManager.Crop[]",
          "name": "",
          "type": "tuple[]"
        }
      ],
      "stateMutability": "view",
      "type": "function"
    },
    {
      "inputs": [],
      "name": "getMidTerm",
      "outputs": [
        {
          "components": [
            {
              "internalType": "string",
              "name": "id",
              "type": "string"
            },
            {
              "internalType": "string",
              "name": "cropName",
              "type": "string"
            },
            {
              "internalType": "address",
              "name": "ETHAddress",
              "type": "address"
            },
            {
              "internalType": "string",
              "name": "progress",
              "type": "string"
            },
            {
              "internalType": "string",
              "name": "months",
              "type": "string"
            },
            {
              "internalType": "string",
              "name": "timeofApplied",
              "type": "string"
            },
            {
              "internalType": "string",
              "name": "timeofVerified",
              "type": "string"
            },
            {
              "internalType": "bool",
              "name": "isApproved",
              "type": "bool"
            },
            {
              "internalType": "bool",
              "name": "isDisapproved",
              "type": "bool"
            }
          ],
          "internalType": "struct CropManager.MidTerm[]",
          "name": "",
          "type": "tuple[]"
        }
      ],
      "stateMutability": "view",
      "type": "function"
    },
    {
      "inputs": [
        {
          "internalType": "address",
          "name": "ETHAddress",
          "type": "address"
        }
      ],
      "name": "hideProduct",
      "outputs": [],
      "stateMutability": "nonpayable",
      "type": "function"
    },
    {
      "inputs": [
        {
          "internalType": "string",
          "name": "id",
          "type": "string"
        },
        {
          "internalType": "string",
          "name": "progress",
          "type": "string"
        },
        {
          "internalType": "string",
          "name": "months",
          "type": "string"
        },
        {
          "internalType": "string",
          "name": "timeofApplied",
          "type": "string"
        }
      ],
      "name": "midTermRegister",
      "outputs": [],
      "stateMutability": "nonpayable",
      "type": "function"
    },
    {
      "inputs": [
        {
          "components": [
            {
              "internalType": "string",
              "name": "id",
              "type": "string"
            },
            {
              "internalType": "uint256",
              "name": "reduce",
              "type": "uint256"
            }
          ],
          "internalType": "struct ProductManager.Item[]",
          "name": "items",
          "type": "tuple[]"
        }
      ],
      "name": "reduceQuantity",
      "outputs": [],
      "stateMutability": "nonpayable",
      "type": "function"
    },
    {
      "inputs": [
        {
          "internalType": "string",
          "name": "id",
          "type": "string"
        },
        {
          "internalType": "string",
          "name": "time",
          "type": "string"
        }
      ],
      "name": "rejectCertificate",
      "outputs": [],
      "stateMutability": "nonpayable",
      "type": "function"
    },
    {
      "inputs": [
        {
          "internalType": "string",
          "name": "id",
          "type": "string"
        },
        {
          "internalType": "string",
          "name": "time",
          "type": "string"
        }
      ],
      "name": "rejectCrop",
      "outputs": [],
      "stateMutability": "nonpayable",
      "type": "function"
    },
    {
      "inputs": [
        {
          "internalType": "address",
          "name": "ETHAddress",
          "type": "address"
        },
        {
          "internalType": "string",
          "name": "time",
          "type": "string"
        }
      ],
      "name": "rejectFarmerCertificate",
      "outputs": [],
      "stateMutability": "nonpayable",
      "type": "function"
    },
    {
      "inputs": [
        {
          "internalType": "address",
          "name": "ETHAddress",
          "type": "address"
        },
        {
          "internalType": "string",
          "name": "time",
          "type": "string"
        }
      ],
      "name": "rejectFarmerCrop",
      "outputs": [],
      "stateMutability": "nonpayable",
      "type": "function"
    },
    {
      "inputs": [
        {
          "internalType": "address",
          "name": "ETHAddress",
          "type": "address"
        },
        {
          "internalType": "string",
          "name": "time",
          "type": "string"
        }
      ],
      "name": "rejectFarmerMidTerm",
      "outputs": [],
      "stateMutability": "nonpayable",
      "type": "function"
    },
    {
      "inputs": [
        {
          "internalType": "string",
          "name": "id",
          "type": "string"
        },
        {
          "internalType": "string",
          "name": "time",
          "type": "string"
        }
      ],
      "name": "rejectMidTerm",
      "outputs": [],
      "stateMutability": "nonpayable",
      "type": "function"
    },
    {
      "inputs": [
        {
          "internalType": "string",
          "name": "id",
          "type": "string"
        },
        {
          "internalType": "string",
          "name": "quality",
          "type": "string"
        },
        {
          "internalType": "uint256",
          "name": "quantity",
          "type": "uint256"
        },
        {
          "internalType": "uint256",
          "name": "price",
          "type": "uint256"
        },
        {
          "internalType": "string",
          "name": "description",
          "type": "string"
        },
        {
          "internalType": "string",
          "name": "timeofApplied",
          "type": "string"
        }
      ],
      "name": "reqCertificate",
      "outputs": [],
      "stateMutability": "nonpayable",
      "type": "function"
    }
  ],
  "bytecode": "0x608060405234801561001057600080fd5b5061412d806100206000396000f3fe608060405234801561001057600080fd5b50600436106101215760003560e01c80638418ef22116100ad578063dbf9dcf111610071578063dbf9dcf114610241578063e1a6669a14610256578063ea7305b714610269578063ef37f68c1461027c578063f53a75031461028f57600080fd5b80638418ef22146101e057806397bee28a146101f35780639b932eb014610206578063ae15eb8e14610219578063c851c62f1461022e57600080fd5b80635b773ed7116100f45780635b773ed7146101745780635f073f3a146101875780637c77c16d146101a55780637e3351e8146101ba5780637e348605146101cd57600080fd5b80631005e7f814610126578063129698511461013b57806334a3cb3e1461014e5780634b0e6c0914610161575b600080fd5b6101396101343660046133c8565b6102a4565b005b610139610149366004613448565b610419565b61013961015c36600461348c565b61054e565b61013961016f366004613448565b61069b565b610139610182366004613501565b6107cf565b61018f6109aa565b60405161019c9190613676565b60405180910390f35b6101ad610ee4565b60405161019c91906137ee565b6101396101c8366004613448565b6112e7565b6101396101db3660046133c8565b61141b565b6101396101ee366004613914565b61154f565b6101396102013660046133c8565b6115e2565b610139610214366004613936565b611752565b6102216118ec565b60405161019c91906139e3565b61013961023c3660046133c8565b611d03565b610249611e36565b60405161019c9190613b21565b6101396102643660046133c8565b6123ec565b6101396102773660046133c8565b612d17565b61013961028a366004613ca6565b612e8c565b61029761305b565b60405161019c9190613d65565b60005b60005481101561041457826040516020016102c29190613dc9565b60405160208183030381529060405280519060200120600082815481106102eb576102eb613de5565b90600052602060002090600b020160000160405160200161030c9190613e2f565b604051602081830303815290604052805190602001200361040c5760016000828154811061033c5761033c613de5565b90600052602060002090600b0201600a0160016101000a81548160ff021916908315150217905550600080828154811061037857610378613de5565b90600052602060002090600b0201600a0160006101000a81548160ff02191690831515021790555081600082815481106103b4576103b4613de5565b90600052602060002090600b020160090190816103d19190613ef5565b507f26480968b27454fbab2b659c6bf7bf338fddd435d0c49cffefec0489eb80689d8383604051610403929190613fb5565b60405180910390a15b6001016102a7565b505050565b60005b60025481101561041457826001600160a01b03166002828154811061044357610443613de5565b600091825260209091206002600a9092020101546001600160a01b031614801561049457506002818154811061047b5761047b613de5565b600091825260209091206009600a90920201015460ff16155b15610546576001600282815481106104ae576104ae613de5565b90600052602060002090600a020160090160016101000a81548160ff0219169083151502179055506000600282815481106104eb576104eb613de5565b90600052602060002090600a020160090160006101000a81548160ff021916908315150217905550816002828154811061052757610527613de5565b90600052602060002090600a020160080190816105449190613ef5565b505b60010161041c565b60005b6003548110156104145760005b82811015610692576003828154811061057957610579613de5565b90600052602060002090600d020160000160405160200161059a9190613e2f565b604051602081830303815290604052805190602001208484838181106105c2576105c2613de5565b90506020028101906105d49190613fe3565b6105de9080613ff9565b6040516020016105ef929190614047565b604051602081830303815290604052805190602001200361068a5783838281811061061c5761061c613de5565b905060200281019061062e9190613fe3565b602001356003838154811061064557610645613de5565b90600052602060002090600d0201600301546106619190614057565b6003838154811061067457610674613de5565b90600052602060002090600d0201600301819055505b60010161055e565b50600101610551565b60005b60005481101561041457826001600160a01b0316600082815481106106c5576106c5613de5565b600091825260209091206003600b9092020101546001600160a01b03161480156107165750600081815481106106fd576106fd613de5565b60009182526020909120600a600b90920201015460ff16155b156107c75760016000828154811061073057610730613de5565b90600052602060002090600b0201600a0160016101000a81548160ff021916908315150217905550600080828154811061076c5761076c613de5565b90600052602060002090600b0201600a0160006101000a81548160ff02191690831515021790555081600082815481106107a8576107a8613de5565b90600052602060002090600b020160090190816107c59190613ef5565b505b60010161069e565b6040805161018081018252898152602081018990529081018790523360608201526080810186905260a0810185905260c0810184905260e081018390526101008101829052610120810182905260006101408201819052610160820181905280546001810182559080528151600b9091027f290decd9548b62a8d60345a988386fc84ba6bc95484008f6362f93160ef3e5630190819061086f9082613ef5565b50602082015160018201906108849082613ef5565b50604082015160028201906108999082613ef5565b5060608201516003820180546001600160a01b0319166001600160a01b03909216919091179055608082015160048201906108d49082613ef5565b5060a082015160058201906108e99082613ef5565b5060c082015160068201906108fe9082613ef5565b5060e08201516007820155610100820151600882019061091e9082613ef5565b5061012082015160098201906109349082613ef5565b50610140820151600a90910180546101609093015115156101000261ff00199215159290921661ffff19909316929092171790556040517f3579c5d2edbbf430361d5649858a80fb2dc50cb0446bb5bd09ed524a73fba5ce90610998908a9061407e565b60405180910390a15050505050505050565b60606000805480602002602001604051908101604052809291908181526020016000905b82821015610edb57838290600052602060002090600b020160405180610180016040529081600082018054610a0290613dfb565b80601f0160208091040260200160405190810160405280929190818152602001828054610a2e90613dfb565b8015610a7b5780601f10610a5057610100808354040283529160200191610a7b565b820191906000526020600020905b815481529060010190602001808311610a5e57829003601f168201915b50505050508152602001600182018054610a9490613dfb565b80601f0160208091040260200160405190810160405280929190818152602001828054610ac090613dfb565b8015610b0d5780601f10610ae257610100808354040283529160200191610b0d565b820191906000526020600020905b815481529060010190602001808311610af057829003601f168201915b50505050508152602001600282018054610b2690613dfb565b80601f0160208091040260200160405190810160405280929190818152602001828054610b5290613dfb565b8015610b9f5780601f10610b7457610100808354040283529160200191610b9f565b820191906000526020600020905b815481529060010190602001808311610b8257829003601f168201915b505050918352505060038201546001600160a01b03166020820152600482018054604090920191610bcf90613dfb565b80601f0160208091040260200160405190810160405280929190818152602001828054610bfb90613dfb565b8015610c485780601f10610c1d57610100808354040283529160200191610c48565b820191906000526020600020905b815481529060010190602001808311610c2b57829003601f168201915b50505050508152602001600582018054610c6190613dfb565b80601f0160208091040260200160405190810160405280929190818152602001828054610c8d90613dfb565b8015610cda5780601f10610caf57610100808354040283529160200191610cda565b820191906000526020600020905b815481529060010190602001808311610cbd57829003601f168201915b50505050508152602001600682018054610cf390613dfb565b80601f0160208091040260200160405190810160405280929190818152602001828054610d1f90613dfb565b8015610d6c5780601f10610d4157610100808354040283529160200191610d6c565b820191906000526020600020905b815481529060010190602001808311610d4f57829003601f168201915b5050505050815260200160078201548152602001600882018054610d8f90613dfb565b80601f0160208091040260200160405190810160405280929190818152602001828054610dbb90613dfb565b8015610e085780601f10610ddd57610100808354040283529160200191610e08565b820191906000526020600020905b815481529060010190602001808311610deb57829003601f168201915b50505050508152602001600982018054610e2190613dfb565b80601f0160208091040260200160405190810160405280929190818152602001828054610e4d90613dfb565b8015610e9a5780601f10610e6f57610100808354040283529160200191610e9a565b820191906000526020600020905b815481529060010190602001808311610e7d57829003601f168201915b5050509183525050600a919091015460ff808216151560208085019190915261010090920416151560409092019190915290825260019290920191016109ce565b50505050905090565b60606001805480602002602001604051908101604052809291908181526020016000905b82821015610edb578382906000526020600020906008020160405180610120016040529081600082018054610f3c90613dfb565b80601f0160208091040260200160405190810160405280929190818152602001828054610f6890613dfb565b8015610fb55780601f10610f8a57610100808354040283529160200191610fb5565b820191906000526020600020905b815481529060010190602001808311610f9857829003601f168201915b50505050508152602001600182018054610fce90613dfb565b80601f0160208091040260200160405190810160405280929190818152602001828054610ffa90613dfb565b80156110475780601f1061101c57610100808354040283529160200191611047565b820191906000526020600020905b81548152906001019060200180831161102a57829003601f168201915b505050918352505060028201546001600160a01b0316602082015260038201805460409092019161107790613dfb565b80601f01602080910402602001604051908101604052809291908181526020018280546110a390613dfb565b80156110f05780601f106110c5576101008083540402835291602001916110f0565b820191906000526020600020905b8154815290600101906020018083116110d357829003601f168201915b5050505050815260200160048201805461110990613dfb565b80601f016020809104026020016040519081016040528092919081815260200182805461113590613dfb565b80156111825780601f1061115757610100808354040283529160200191611182565b820191906000526020600020905b81548152906001019060200180831161116557829003601f168201915b5050505050815260200160058201805461119b90613dfb565b80601f01602080910402602001604051908101604052809291908181526020018280546111c790613dfb565b80156112145780601f106111e957610100808354040283529160200191611214565b820191906000526020600020905b8154815290600101906020018083116111f757829003601f168201915b5050505050815260200160068201805461122d90613dfb565b80601f016020809104026020016040519081016040528092919081815260200182805461125990613dfb565b80156112a65780601f1061127b576101008083540402835291602001916112a6565b820191906000526020600020905b81548152906001019060200180831161128957829003601f168201915b50505091835250506007919091015460ff80821615156020808501919091526101009092041615156040909201919091529082526001929092019101610f08565b60005b60015481101561041457826001600160a01b03166001828154811061131157611311613de5565b60009182526020909120600260089092020101546001600160a01b031614801561136257506001818154811061134957611349613de5565b600091825260209091206007600890920201015460ff16155b1561141357600180828154811061137b5761137b613de5565b906000526020600020906008020160070160016101000a81548160ff0219169083151502179055506000600182815481106113b8576113b8613de5565b906000526020600020906008020160070160006101000a81548160ff02191690831515021790555081600182815481106113f4576113f4613de5565b906000526020600020906008020160060190816114119190613ef5565b505b6001016112ea565b60005b60005481101561041457826040516020016114399190613dc9565b604051602081830303815290604052805190602001206000828154811061146257611462613de5565b90600052602060002090600b02016000016040516020016114839190613e2f565b6040516020818303038152906040528051906020012003611547576001600082815481106114b3576114b3613de5565b90600052602060002090600b0201600a0160006101000a81548160ff02191690831515021790555081600082815481106114ef576114ef613de5565b90600052602060002090600b0201600901908161150c9190613ef5565b507f26480968b27454fbab2b659c6bf7bf338fddd435d0c49cffefec0489eb80689d838360405161153e929190613fb5565b60405180910390a15b60010161141e565b60005b6003548110156115de57816001600160a01b03166003828154811061157957611579613de5565b600091825260209091206004600d9092020101546001600160a01b0316036115d6576000600382815481106115b0576115b0613de5565b60009182526020909120600d90910201600c01805460ff19169115159190911790555050565b600101611552565b5050565b60005b60015481101561041457826040516020016116009190613dc9565b604051602081830303815290604052805190602001206001828154811061162957611629613de5565b906000526020600020906008020160000160405160200161164a9190613e2f565b604051602081830303815290604052805190602001200361174a57600180828154811061167957611679613de5565b906000526020600020906008020160070160016101000a81548160ff0219169083151502179055506000600182815481106116b6576116b6613de5565b906000526020600020906008020160070160006101000a81548160ff02191690831515021790555081600182815481106116f2576116f2613de5565b9060005260206000209060080201600601908161170f9190613ef5565b507f49ef88e64c9bb5e17ec530233b88888c9d8ce293ffb2664fb11a737640dfeac48383604051611741929190613fb5565b60405180910390a15b6001016115e5565b600061175d85613196565b6040805161012081018252878152602081018390523391810191909152606081018690526080810185905260a0810184905260c08101849052600060e08201819052610100820181905260018054808201825591528151929350909160089091027fb10e2d527612073b26eecdfd717e6a320cf44b4afac2b0732d9fcbe2b7fa0cf6019081906117ed9082613ef5565b50602082015160018201906118029082613ef5565b5060408201516002820180546001600160a01b0319166001600160a01b039092169190911790556060820151600382019061183d9082613ef5565b50608082015160048201906118529082613ef5565b5060a082015160058201906118679082613ef5565b5060c0820151600682019061187c9082613ef5565b5060e082015160079190910180546101009384015161ffff1990911692151561ff001916929092179115159092021790556040517f24dfd674d9b41013847ae645f40587f116cac5f83d63e385afa526bd5666dc03906118dd90879061407e565b60405180910390a15050505050565b60606002805480602002602001604051908101604052809291908181526020016000905b82821015610edb57838290600052602060002090600a02016040518061016001604052908160008201805461194490613dfb565b80601f016020809104026020016040519081016040528092919081815260200182805461197090613dfb565b80156119bd5780601f10611992576101008083540402835291602001916119bd565b820191906000526020600020905b8154815290600101906020018083116119a057829003601f168201915b505050505081526020016001820180546119d690613dfb565b80601f0160208091040260200160405190810160405280929190818152602001828054611a0290613dfb565b8015611a4f5780601f10611a2457610100808354040283529160200191611a4f565b820191906000526020600020905b815481529060010190602001808311611a3257829003601f168201915b505050918352505060028201546001600160a01b03166020820152600382018054604090920191611a7f90613dfb565b80601f0160208091040260200160405190810160405280929190818152602001828054611aab90613dfb565b8015611af85780601f10611acd57610100808354040283529160200191611af8565b820191906000526020600020905b815481529060010190602001808311611adb57829003601f168201915b505050505081526020016004820154815260200160058201548152602001600682018054611b2590613dfb565b80601f0160208091040260200160405190810160405280929190818152602001828054611b5190613dfb565b8015611b9e5780601f10611b7357610100808354040283529160200191611b9e565b820191906000526020600020905b815481529060010190602001808311611b8157829003601f168201915b50505050508152602001600782018054611bb790613dfb565b80601f0160208091040260200160405190810160405280929190818152602001828054611be390613dfb565b8015611c305780601f10611c0557610100808354040283529160200191611c30565b820191906000526020600020905b815481529060010190602001808311611c1357829003601f168201915b50505050508152602001600882018054611c4990613dfb565b80601f0160208091040260200160405190810160405280929190818152602001828054611c7590613dfb565b8015611cc25780601f10611c9757610100808354040283529160200191611cc2565b820191906000526020600020905b815481529060010190602001808311611ca557829003601f168201915b50505091835250506009919091015460ff80821615156020808501919091526101009092041615156040909201919091529082526001929092019101611910565b60005b6001548110156104145782604051602001611d219190613dc9565b6040516020818303038152906040528051906020012060018281548110611d4a57611d4a613de5565b9060005260206000209060080201600001604051602001611d6b9190613e2f565b6040516020818303038152906040528051906020012003611e2e576001808281548110611d9a57611d9a613de5565b906000526020600020906008020160070160006101000a81548160ff0219169083151502179055508160018281548110611dd657611dd6613de5565b90600052602060002090600802016006019081611df39190613ef5565b507f49ef88e64c9bb5e17ec530233b88888c9d8ce293ffb2664fb11a737640dfeac48383604051611e25929190613fb5565b60405180910390a15b600101611d06565b60606003805480602002602001604051908101604052809291908181526020016000905b82821015610edb57838290600052602060002090600d0201604051806101a0016040529081600082018054611e8e90613dfb565b80601f0160208091040260200160405190810160405280929190818152602001828054611eba90613dfb565b8015611f075780601f10611edc57610100808354040283529160200191611f07565b820191906000526020600020905b815481529060010190602001808311611eea57829003601f168201915b50505050508152602001600182018054611f2090613dfb565b80601f0160208091040260200160405190810160405280929190818152602001828054611f4c90613dfb565b8015611f995780601f10611f6e57610100808354040283529160200191611f99565b820191906000526020600020905b815481529060010190602001808311611f7c57829003601f168201915b5050509183525050600282015460208201526003820154604082015260048201546001600160a01b03166060820152600582018054608090920191611fdd90613dfb565b80601f016020809104026020016040519081016040528092919081815260200182805461200990613dfb565b80156120565780601f1061202b57610100808354040283529160200191612056565b820191906000526020600020905b81548152906001019060200180831161203957829003601f168201915b5050505050815260200160068201805461206f90613dfb565b80601f016020809104026020016040519081016040528092919081815260200182805461209b90613dfb565b80156120e85780601f106120bd576101008083540402835291602001916120e8565b820191906000526020600020905b8154815290600101906020018083116120cb57829003601f168201915b5050505050815260200160078201805461210190613dfb565b80601f016020809104026020016040519081016040528092919081815260200182805461212d90613dfb565b801561217a5780601f1061214f5761010080835404028352916020019161217a565b820191906000526020600020905b81548152906001019060200180831161215d57829003601f168201915b5050505050815260200160088201805461219390613dfb565b80601f01602080910402602001604051908101604052809291908181526020018280546121bf90613dfb565b801561220c5780601f106121e15761010080835404028352916020019161220c565b820191906000526020600020905b8154815290600101906020018083116121ef57829003601f168201915b5050505050815260200160098201805461222590613dfb565b80601f016020809104026020016040519081016040528092919081815260200182805461225190613dfb565b801561229e5780601f106122735761010080835404028352916020019161229e565b820191906000526020600020905b81548152906001019060200180831161228157829003601f168201915b50505050508152602001600a820180546122b790613dfb565b80601f01602080910402602001604051908101604052809291908181526020018280546122e390613dfb565b80156123305780601f1061230557610100808354040283529160200191612330565b820191906000526020600020905b81548152906001019060200180831161231357829003601f168201915b50505050508152602001600b8201805461234990613dfb565b80601f016020809104026020016040519081016040528092919081815260200182805461237590613dfb565b80156123c25780601f10612397576101008083540402835291602001916123c2565b820191906000526020600020905b8154815290600101906020018083116123a557829003601f168201915b5050509183525050600c919091015460ff1615156020918201529082526001929092019101611e5a565b60005b600254811015612cd9578260405160200161240a9190613dc9565b604051602081830303815290604052805190602001206002828154811061243357612433613de5565b90600052602060002090600a02016000016040516020016124549190613e2f565b6040516020818303038152906040528051906020012003612cd15760016002828154811061248457612484613de5565b90600052602060002090600a020160090160006101000a81548160ff02191690831515021790555081600282815481106124c0576124c0613de5565b90600052602060002090600a020160080190816124dd9190613ef5565b5060608060608060005b6000548110156126d257876040516020016125029190613dc9565b604051602081830303815290604052805190602001206000828154811061252b5761252b613de5565b90600052602060002090600b020160000160405160200161254c9190613e2f565b60405160208183030381529060405280519060200120036126ca576000818154811061257a5761257a613de5565b90600052602060002090600b0201600801805461259690613dfb565b80601f01602080910402602001604051908101604052809291908181526020018280546125c290613dfb565b801561260f5780601f106125e45761010080835404028352916020019161260f565b820191906000526020600020905b8154815290600101906020018083116125f257829003601f168201915b505050505094506000818154811061262957612629613de5565b90600052602060002090600b0201600901805461264590613dfb565b80601f016020809104026020016040519081016040528092919081815260200182805461267190613dfb565b80156126be5780601f10612693576101008083540402835291602001916126be565b820191906000526020600020905b8154815290600101906020018083116126a157829003601f168201915b505050505093506126d2565b6001016124e7565b5060005b6001548110156128c157876040516020016126f19190613dc9565b604051602081830303815290604052805190602001206001828154811061271a5761271a613de5565b906000526020600020906008020160000160405160200161273b9190613e2f565b60405160208183030381529060405280519060200120036128b9576001818154811061276957612769613de5565b9060005260206000209060080201600501805461278590613dfb565b80601f01602080910402602001604051908101604052809291908181526020018280546127b190613dfb565b80156127fe5780601f106127d3576101008083540402835291602001916127fe565b820191906000526020600020905b8154815290600101906020018083116127e157829003601f168201915b505050505092506001818154811061281857612818613de5565b9060005260206000209060080201600601805461283490613dfb565b80601f016020809104026020016040519081016040528092919081815260200182805461286090613dfb565b80156128ad5780601f10612882576101008083540402835291602001916128ad565b820191906000526020600020905b81548152906001019060200180831161289057829003601f168201915b505050505091506128c1565b6001016126d6565b506003604051806101a00160405280898152602001600288815481106128e9576128e9613de5565b90600052602060002090600a0201600101805461290590613dfb565b80601f016020809104026020016040519081016040528092919081815260200182805461293190613dfb565b801561297e5780601f106129535761010080835404028352916020019161297e565b820191906000526020600020905b81548152906001019060200180831161296157829003601f168201915b505050505081526020016002888154811061299b5761299b613de5565b90600052602060002090600a0201600501548152602001600288815481106129c5576129c5613de5565b90600052602060002090600a0201600401548152602001600288815481106129ef576129ef613de5565b60009182526020918290206002600a909202018101546001600160a01b031683528054929091019189908110612a2757612a27613de5565b90600052602060002090600a02016006018054612a4390613dfb565b80601f0160208091040260200160405190810160405280929190818152602001828054612a6f90613dfb565b8015612abc5780601f10612a9157610100808354040283529160200191612abc565b820191906000526020600020905b815481529060010190602001808311612a9f57829003601f168201915b5050505050815260200186815260200185815260200184815260200183815260200160028881548110612af157612af1613de5565b90600052602060002090600a02016007018054612b0d90613dfb565b80601f0160208091040260200160405190810160405280929190818152602001828054612b3990613dfb565b8015612b865780601f10612b5b57610100808354040283529160200191612b86565b820191906000526020600020905b815481529060010190602001808311612b6957829003601f168201915b505050918352505060208082018a90526001604090920182905283549182018455600093845290922081519192600d0201908190612bc49082613ef5565b5060208201516001820190612bd99082613ef5565b50604082015160028201556060820151600382015560808201516004820180546001600160a01b0319166001600160a01b0390921691909117905560a08201516005820190612c289082613ef5565b5060c08201516006820190612c3d9082613ef5565b5060e08201516007820190612c529082613ef5565b506101008201516008820190612c689082613ef5565b506101208201516009820190612c7e9082613ef5565b50610140820151600a820190612c949082613ef5565b50610160820151600b820190612caa9082613ef5565b506101809190910151600c909101805460ff191691151591909117905550612cd992505050565b6001016123ef565b507fe9559372e94b2b22e5e21e376c38890b4a09b55e3f9ec539d8f7cadcc9cbc8208282604051612d0b929190613fb5565b60405180910390a15050565b60005b6002548110156104145782604051602001612d359190613dc9565b6040516020818303038152906040528051906020012060028281548110612d5e57612d5e613de5565b90600052602060002090600a0201600001604051602001612d7f9190613e2f565b6040516020818303038152906040528051906020012003612e8457600160028281548110612daf57612daf613de5565b90600052602060002090600a020160090160016101000a81548160ff021916908315150217905550600060028281548110612dec57612dec613de5565b90600052602060002090600a020160090160006101000a81548160ff0219169083151502179055508160028281548110612e2857612e28613de5565b90600052602060002090600a02016008019081612e459190613ef5565b507fe9559372e94b2b22e5e21e376c38890b4a09b55e3f9ec539d8f7cadcc9cbc8208383604051612e77929190613fb5565b60405180910390a1505050565b600101612d1a565b6000612e9787613196565b6040805161016081018252898152602081018390523391810191909152606081018890526080810187905260a0810186905260c0810185905260e08101849052610100810184905260006101208201819052610140820181905260028054600181018255915281519293509091600a9091027f405787fa12a823e0f2b7631cc41b3ba8828b3321ca811111fa75cd3aa3bb5ace01908190612f389082613ef5565b5060208201516001820190612f4d9082613ef5565b5060408201516002820180546001600160a01b0319166001600160a01b0390921691909117905560608201516003820190612f889082613ef5565b506080820151600482015560a0820151600582015560c08201516006820190612fb19082613ef5565b5060e08201516007820190612fc69082613ef5565b506101008201516008820190612fdc9082613ef5565b50610120820151600990910180546101409093015115156101000261ff00199215159290921661ffff19909316929092171790556040517f25d5da85cc9e1f77869a9bc4ca302d848c629ef13d63173abe5838b2989f07fd9061304a90899089908990899089908990614091565b60405180910390a150505050505050565b600080546060919067ffffffffffffffff81111561307b5761307b613325565b6040519080825280602002602001820160405280156130ae57816020015b60608152602001906001900390816130995790505b50905060005b60005481101561319057600081815481106130d1576130d1613de5565b90600052602060002090600b020160000180546130ed90613dfb565b80601f016020809104026020016040519081016040528092919081815260200182805461311990613dfb565b80156131665780601f1061313b57610100808354040283529160200191613166565b820191906000526020600020905b81548152906001019060200180831161314957829003601f168201915b505050505082828151811061317d5761317d613de5565b60209081029190910101526001016130b4565b50919050565b606060005b6000548110156132d857826040516020016131b69190613dc9565b60405160208183030381529060405280519060200120600082815481106131df576131df613de5565b90600052602060002090600b02016000016040516020016132009190613e2f565b60405160208183030381529060405280519060200120036132d0576000818154811061322e5761322e613de5565b90600052602060002090600b0201600101805461324a90613dfb565b80601f016020809104026020016040519081016040528092919081815260200182805461327690613dfb565b80156132c35780601f10613298576101008083540402835291602001916132c3565b820191906000526020600020905b8154815290600101906020018083116132a657829003601f168201915b5050505050915050919050565b60010161319b565b5060405162461bcd60e51b815260206004820152601c60248201527f43726f70207769746820676976656e206964206e6f7420666f756e6400000000604482015260640160405180910390fd5b634e487b7160e01b600052604160045260246000fd5b600082601f83011261334c57600080fd5b813567ffffffffffffffff8082111561336757613367613325565b604051601f8301601f19908116603f0116810190828211818310171561338f5761338f613325565b816040528381528660208588010111156133a857600080fd5b836020870160208301376000602085830101528094505050505092915050565b600080604083850312156133db57600080fd5b823567ffffffffffffffff808211156133f357600080fd5b6133ff8683870161333b565b9350602085013591508082111561341557600080fd5b506134228582860161333b565b9150509250929050565b80356001600160a01b038116811461344357600080fd5b919050565b6000806040838503121561345b57600080fd5b6134648361342c565b9150602083013567ffffffffffffffff81111561348057600080fd5b6134228582860161333b565b6000806020838503121561349f57600080fd5b823567ffffffffffffffff808211156134b757600080fd5b818501915085601f8301126134cb57600080fd5b8135818111156134da57600080fd5b8660208260051b85010111156134ef57600080fd5b60209290920196919550909350505050565b600080600080600080600080610100898b03121561351e57600080fd5b883567ffffffffffffffff8082111561353657600080fd5b6135428c838d0161333b565b995060208b013591508082111561355857600080fd5b6135648c838d0161333b565b985060408b013591508082111561357a57600080fd5b6135868c838d0161333b565b975060608b013591508082111561359c57600080fd5b6135a88c838d0161333b565b965060808b01359150808211156135be57600080fd5b6135ca8c838d0161333b565b955060a08b01359150808211156135e057600080fd5b6135ec8c838d0161333b565b945060c08b0135935060e08b013591508082111561360957600080fd5b506136168b828c0161333b565b9150509295985092959890939650565b60005b83811015613641578181015183820152602001613629565b50506000910152565b60008151808452613662816020860160208601613626565b601f01601f19169290920160200192915050565b600060208083018184528085518083526040925060408601915060408160051b87010184880160005b838110156137e057603f19898403018552815161018081518186526136c68287018261364a565b915050888201518582038a8701526136de828261364a565b91505087820151858203898701526136f6828261364a565b915050606080830151613713828801826001600160a01b03169052565b50506080808301518683038288015261372c838261364a565b9250505060a08083015186830382880152613747838261364a565b9250505060c08083015186830382880152613762838261364a565b9250505060e08083015181870152506101008083015186830382880152613789838261364a565b9250505061012080830151868303828801526137a5838261364a565b92505050610140808301516137bd8288018215159052565b50506101609182015115159490910193909352938601939086019060010161369f565b509098975050505050505050565b600060208083018184528085518083526040925060408601915060408160051b87010184880160005b838110156137e057603f198984030185528151610120815181865261383e8287018261364a565b915050888201518582038a870152613856828261364a565b91505087820151613871898701826001600160a01b03169052565b5060608083015186830382880152613889838261364a565b92505050608080830151868303828801526138a4838261364a565b9250505060a080830151868303828801526138bf838261364a565b9250505060c080830151868303828801526138da838261364a565b9250505060e0808301516138f18288018215159052565b505061010091820151151594909101939093529386019390860190600101613817565b60006020828403121561392657600080fd5b61392f8261342c565b9392505050565b6000806000806080858703121561394c57600080fd5b843567ffffffffffffffff8082111561396457600080fd5b6139708883890161333b565b9550602087013591508082111561398657600080fd5b6139928883890161333b565b945060408701359150808211156139a857600080fd5b6139b48883890161333b565b935060608701359150808211156139ca57600080fd5b506139d78782880161333b565b91505092959194509250565b600060208083018184528085518083526040925060408601915060408160051b87010184880160005b838110156137e057603f1989840301855281516101608151818652613a338287018261364a565b915050888201518582038a870152613a4b828261364a565b91505087820151613a66898701826001600160a01b03169052565b5060608083015186830382880152613a7e838261364a565b92505050608080830151818701525060a080830151818701525060c08083015186830382880152613aaf838261364a565b9250505060e08083015186830382880152613aca838261364a565b925050506101008083015186830382880152613ae6838261364a565b9250505061012080830151613afe8288018215159052565b505061014091820151151594909101939093529386019390860190600101613a0c565b600060208083018184528085518083526040925060408601915060408160051b87010184880160005b838110156137e057603f1989840301855281516101a08151818652613b718287018261364a565b915050888201518582038a870152613b89828261364a565b91505087820151888601526060808301518187015250608080830151613bb9828801826001600160a01b03169052565b505060a08083015186830382880152613bd2838261364a565b9250505060c08083015186830382880152613bed838261364a565b9250505060e08083015186830382880152613c08838261364a565b925050506101008083015186830382880152613c24838261364a565b925050506101208083015186830382880152613c40838261364a565b925050506101408083015186830382880152613c5c838261364a565b925050506101608083015186830382880152613c78838261364a565b92505050610180808301519250613c928187018415159052565b509588019593505090860190600101613b4a565b60008060008060008060c08789031215613cbf57600080fd5b863567ffffffffffffffff80821115613cd757600080fd5b613ce38a838b0161333b565b97506020890135915080821115613cf957600080fd5b613d058a838b0161333b565b965060408901359550606089013594506080890135915080821115613d2957600080fd5b613d358a838b0161333b565b935060a0890135915080821115613d4b57600080fd5b50613d5889828a0161333b565b9150509295509295509295565b600060208083016020845280855180835260408601915060408160051b87010192506020870160005b82811015613dbc57603f19888603018452613daa85835161364a565b94509285019290850190600101613d8e565b5092979650505050505050565b60008251613ddb818460208701613626565b9190910192915050565b634e487b7160e01b600052603260045260246000fd5b600181811c90821680613e0f57607f821691505b60208210810361319057634e487b7160e01b600052602260045260246000fd5b6000808354613e3d81613dfb565b60018281168015613e555760018114613e6a57613e99565b60ff1984168752821515830287019450613e99565b8760005260208060002060005b85811015613e905781548a820152908401908201613e77565b50505082870194505b50929695505050505050565b601f821115610414576000816000526020600020601f850160051c81016020861015613ece5750805b601f850160051c820191505b81811015613eed57828155600101613eda565b505050505050565b815167ffffffffffffffff811115613f0f57613f0f613325565b613f2381613f1d8454613dfb565b84613ea5565b602080601f831160018114613f585760008415613f405750858301515b600019600386901b1c1916600185901b178555613eed565b600085815260208120601f198616915b82811015613f8757888601518255948401946001909101908401613f68565b5085821015613fa55787850151600019600388901b60f8161c191681555b5050505050600190811b01905550565b604081526000613fc8604083018561364a565b8281036020840152613fda818561364a565b95945050505050565b60008235603e19833603018112613ddb57600080fd5b6000808335601e1984360301811261401057600080fd5b83018035915067ffffffffffffffff82111561402b57600080fd5b60200191503681900382131561404057600080fd5b9250929050565b8183823760009101908152919050565b8181038181111561407857634e487b7160e01b600052601160045260246000fd5b92915050565b60208152600061392f602083018461364a565b60c0815260006140a460c083018961364a565b82810360208401526140b6818961364a565b905086604084015285606084015282810360808401526140d6818661364a565b905082810360a08401526140ea818561364a565b999850505050505050505056fea2646970667358221220b35fde32514ef7a73a63fedc3851d34aea3f8a1714829c309da08209daad504064736f6c63430008180033",
  "linkReferences": {},
  "deployedLinkReferences": {}
}