{
  "_format": "hh-sol-artifact-1",
  "contractName": "UserManager",
  "sourceName": "contracts/UserManager.sol",
  "abi": [
    {
      "anonymous": false,
      "inputs": [
        {
          "indexed": false,
          "internalType": "string",
          "name": "name",
          "type": "string"
        },
        {
          "indexed": false,
          "internalType": "string",
          "name": "email",
          "type": "string"
        },
        {
          "indexed": false,
          "internalType": "string",
          "name": "password",
          "type": "string"
        },
        {
          "indexed": false,
          "internalType": "string",
          "name": "role",
          "type": "string"
        }
      ],
      "name": "createAuthorityEvent",
      "type": "event"
    },
    {
      "anonymous": false,
      "inputs": [
        {
          "indexed": false,
          "internalType": "string",
          "name": "name",
          "type": "string"
        },
        {
          "indexed": false,
          "internalType": "string",
          "name": "email",
          "type": "string"
        },
        {
          "indexed": false,
          "internalType": "string",
          "name": "password",
          "type": "string"
        },
        {
          "indexed": false,
          "internalType": "string",
          "name": "role",
          "type": "string"
        }
      ],
      "name": "createCourierEvent",
      "type": "event"
    },
    {
      "anonymous": false,
      "inputs": [
        {
          "indexed": false,
          "internalType": "string",
          "name": "name",
          "type": "string"
        },
        {
          "indexed": false,
          "internalType": "string",
          "name": "email",
          "type": "string"
        },
        {
          "indexed": false,
          "internalType": "string",
          "name": "password",
          "type": "string"
        },
        {
          "indexed": false,
          "internalType": "string",
          "name": "role",
          "type": "string"
        }
      ],
      "name": "createCustomerEvent",
      "type": "event"
    },
    {
      "anonymous": false,
      "inputs": [
        {
          "indexed": false,
          "internalType": "string",
          "name": "name",
          "type": "string"
        },
        {
          "indexed": false,
          "internalType": "string",
          "name": "email",
          "type": "string"
        },
        {
          "indexed": false,
          "internalType": "string",
          "name": "password",
          "type": "string"
        },
        {
          "indexed": false,
          "internalType": "string",
          "name": "role",
          "type": "string"
        }
      ],
      "name": "createFarmerEvent",
      "type": "event"
    },
    {
      "anonymous": false,
      "inputs": [],
      "name": "deleteCustomerEvent",
      "type": "event"
    },
    {
      "anonymous": false,
      "inputs": [],
      "name": "deleteFarmerEvent",
      "type": "event"
    },
    {
      "anonymous": false,
      "inputs": [],
      "name": "fillDetailsEvent",
      "type": "event"
    },
    {
      "anonymous": false,
      "inputs": [],
      "name": "orderPickedEvent",
      "type": "event"
    },
    {
      "anonymous": false,
      "inputs": [],
      "name": "orderProductEvent",
      "type": "event"
    },
    {
      "anonymous": false,
      "inputs": [],
      "name": "productDeliveredEvent",
      "type": "event"
    },
    {
      "inputs": [
        {
          "internalType": "string",
          "name": "name",
          "type": "string"
        },
        {
          "internalType": "string",
          "name": "email",
          "type": "string"
        },
        {
          "internalType": "string",
          "name": "password",
          "type": "string"
        },
        {
          "internalType": "string",
          "name": "role",
          "type": "string"
        }
      ],
      "name": "createAuthority",
      "outputs": [],
      "stateMutability": "nonpayable",
      "type": "function"
    },
    {
      "inputs": [
        {
          "internalType": "string",
          "name": "name",
          "type": "string"
        },
        {
          "internalType": "string",
          "name": "email",
          "type": "string"
        },
        {
          "internalType": "string",
          "name": "password",
          "type": "string"
        },
        {
          "internalType": "string",
          "name": "role",
          "type": "string"
        }
      ],
      "name": "createCourier",
      "outputs": [],
      "stateMutability": "nonpayable",
      "type": "function"
    },
    {
      "inputs": [
        {
          "internalType": "string",
          "name": "name",
          "type": "string"
        },
        {
          "internalType": "string",
          "name": "email",
          "type": "string"
        },
        {
          "internalType": "string",
          "name": "password",
          "type": "string"
        },
        {
          "internalType": "string",
          "name": "role",
          "type": "string"
        }
      ],
      "name": "createCustomer",
      "outputs": [],
      "stateMutability": "nonpayable",
      "type": "function"
    },
    {
      "inputs": [
        {
          "internalType": "string",
          "name": "name",
          "type": "string"
        },
        {
          "internalType": "string",
          "name": "email",
          "type": "string"
        },
        {
          "internalType": "string",
          "name": "password",
          "type": "string"
        },
        {
          "internalType": "string",
          "name": "role",
          "type": "string"
        }
      ],
      "name": "createFarmer",
      "outputs": [],
      "stateMutability": "nonpayable",
      "type": "function"
    },
    {
      "inputs": [],
      "name": "customerList",
      "outputs": [
        {
          "components": [
            {
              "internalType": "string",
              "name": "name",
              "type": "string"
            },
            {
              "internalType": "string",
              "name": "email",
              "type": "string"
            },
            {
              "internalType": "string",
              "name": "password",
              "type": "string"
            },
            {
              "internalType": "string",
              "name": "role",
              "type": "string"
            },
            {
              "internalType": "address",
              "name": "ETHAddress",
              "type": "address"
            }
          ],
          "internalType": "struct UserManager.Customer[]",
          "name": "",
          "type": "tuple[]"
        }
      ],
      "stateMutability": "view",
      "type": "function"
    },
    {
      "inputs": [
        {
          "internalType": "address",
          "name": "ETHAddress",
          "type": "address"
        }
      ],
      "name": "deleteCustomer",
      "outputs": [],
      "stateMutability": "nonpayable",
      "type": "function"
    },
    {
      "inputs": [
        {
          "internalType": "address",
          "name": "ETHAddress",
          "type": "address"
        }
      ],
      "name": "deleteFarmer",
      "outputs": [],
      "stateMutability": "nonpayable",
      "type": "function"
    },
    {
      "inputs": [],
      "name": "farmerList",
      "outputs": [
        {
          "components": [
            {
              "internalType": "string",
              "name": "name",
              "type": "string"
            },
            {
              "internalType": "string",
              "name": "email",
              "type": "string"
            },
            {
              "internalType": "string",
              "name": "password",
              "type": "string"
            },
            {
              "internalType": "string",
              "name": "role",
              "type": "string"
            },
            {
              "internalType": "address",
              "name": "ETHAddress",
              "type": "address"
            }
          ],
          "internalType": "struct UserManager.Farmer[]",
          "name": "",
          "type": "tuple[]"
        }
      ],
      "stateMutability": "view",
      "type": "function"
    },
    {
      "inputs": [
        {
          "internalType": "string",
          "name": "name",
          "type": "string"
        },
        {
          "internalType": "uint256",
          "name": "contact",
          "type": "uint256"
        },
        {
          "internalType": "string",
          "name": "house",
          "type": "string"
        },
        {
          "internalType": "string",
          "name": "street",
          "type": "string"
        },
        {
          "internalType": "uint256",
          "name": "pincode",
          "type": "uint256"
        },
        {
          "internalType": "string",
          "name": "city",
          "type": "string"
        },
        {
          "internalType": "string",
          "name": "state",
          "type": "string"
        }
      ],
      "name": "fillDetails",
      "outputs": [],
      "stateMutability": "nonpayable",
      "type": "function"
    },
    {
      "inputs": [],
      "name": "getAllOrderIds",
      "outputs": [
        {
          "internalType": "string[]",
          "name": "",
          "type": "string[]"
        }
      ],
      "stateMutability": "view",
      "type": "function"
    },
    {
      "inputs": [
        {
          "internalType": "string",
          "name": "password",
          "type": "string"
        }
      ],
      "name": "getAuthority",
      "outputs": [
        {
          "components": [
            {
              "internalType": "string",
              "name": "name",
              "type": "string"
            },
            {
              "internalType": "string",
              "name": "email",
              "type": "string"
            },
            {
              "internalType": "string",
              "name": "password",
              "type": "string"
            },
            {
              "internalType": "string",
              "name": "role",
              "type": "string"
            },
            {
              "internalType": "address",
              "name": "ETHAddress",
              "type": "address"
            }
          ],
          "internalType": "struct UserManager.Authority",
          "name": "",
          "type": "tuple"
        }
      ],
      "stateMutability": "view",
      "type": "function"
    },
    {
      "inputs": [
        {
          "internalType": "string",
          "name": "password",
          "type": "string"
        }
      ],
      "name": "getCourier",
      "outputs": [
        {
          "components": [
            {
              "internalType": "string",
              "name": "name",
              "type": "string"
            },
            {
              "internalType": "string",
              "name": "email",
              "type": "string"
            },
            {
              "internalType": "string",
              "name": "password",
              "type": "string"
            },
            {
              "internalType": "string",
              "name": "role",
              "type": "string"
            },
            {
              "internalType": "address",
              "name": "ETHAddress",
              "type": "address"
            }
          ],
          "internalType": "struct UserManager.Courier",
          "name": "",
          "type": "tuple"
        }
      ],
      "stateMutability": "view",
      "type": "function"
    },
    {
      "inputs": [
        {
          "internalType": "string",
          "name": "password",
          "type": "string"
        }
      ],
      "name": "getCustomer",
      "outputs": [
        {
          "components": [
            {
              "internalType": "string",
              "name": "name",
              "type": "string"
            },
            {
              "internalType": "string",
              "name": "email",
              "type": "string"
            },
            {
              "internalType": "string",
              "name": "password",
              "type": "string"
            },
            {
              "internalType": "string",
              "name": "role",
              "type": "string"
            },
            {
              "internalType": "address",
              "name": "ETHAddress",
              "type": "address"
            }
          ],
          "internalType": "struct UserManager.Customer",
          "name": "",
          "type": "tuple"
        }
      ],
      "stateMutability": "view",
      "type": "function"
    },
    {
      "inputs": [],
      "name": "getDetails",
      "outputs": [
        {
          "components": [
            {
              "internalType": "address",
              "name": "ETHAddress",
              "type": "address"
            },
            {
              "internalType": "string",
              "name": "FullName",
              "type": "string"
            },
            {
              "internalType": "uint256",
              "name": "contact",
              "type": "uint256"
            },
            {
              "internalType": "string",
              "name": "house",
              "type": "string"
            },
            {
              "internalType": "string",
              "name": "street",
              "type": "string"
            },
            {
              "internalType": "uint256",
              "name": "pincode",
              "type": "uint256"
            },
            {
              "internalType": "string",
              "name": "city",
              "type": "string"
            },
            {
              "internalType": "string",
              "name": "state",
              "type": "string"
            }
          ],
          "internalType": "struct UserManager.Details",
          "name": "",
          "type": "tuple"
        }
      ],
      "stateMutability": "view",
      "type": "function"
    },
    {
      "inputs": [
        {
          "internalType": "string",
          "name": "password",
          "type": "string"
        }
      ],
      "name": "getFarmer",
      "outputs": [
        {
          "components": [
            {
              "internalType": "string",
              "name": "name",
              "type": "string"
            },
            {
              "internalType": "string",
              "name": "email",
              "type": "string"
            },
            {
              "internalType": "string",
              "name": "password",
              "type": "string"
            },
            {
              "internalType": "string",
              "name": "role",
              "type": "string"
            },
            {
              "internalType": "address",
              "name": "ETHAddress",
              "type": "address"
            }
          ],
          "internalType": "struct UserManager.Farmer",
          "name": "",
          "type": "tuple"
        }
      ],
      "stateMutability": "view",
      "type": "function"
    },
    {
      "inputs": [],
      "name": "getOrders",
      "outputs": [
        {
          "components": [
            {
              "components": [
                {
                  "internalType": "enum PaymentContract.OrderStatus",
                  "name": "status",
                  "type": "uint8"
                },
                {
                  "internalType": "string",
                  "name": "productId",
                  "type": "string"
                },
                {
                  "internalType": "string",
                  "name": "productName",
                  "type": "string"
                },
                {
                  "internalType": "address",
                  "name": "farmer",
                  "type": "address"
                },
                {
                  "internalType": "uint256",
                  "name": "totalPrice",
                  "type": "uint256"
                },
                {
                  "internalType": "uint256",
                  "name": "totalQuantity",
                  "type": "uint256"
                },
                {
                  "internalType": "string",
                  "name": "timeofPicked",
                  "type": "string"
                },
                {
                  "internalType": "string",
                  "name": "timeofDelivered",
                  "type": "string"
                }
              ],
              "internalType": "struct PaymentContract.Item[]",
              "name": "items",
              "type": "tuple[]"
            },
            {
              "internalType": "string",
              "name": "location",
              "type": "string"
            },
            {
              "internalType": "uint256",
              "name": "phone",
              "type": "uint256"
            },
            {
              "internalType": "string",
              "name": "orderId",
              "type": "string"
            },
            {
              "internalType": "string",
              "name": "timeofOrdered",
              "type": "string"
            },
            {
              "internalType": "address",
              "name": "customer",
              "type": "address"
            },
            {
              "internalType": "uint256",
              "name": "totalAmount",
              "type": "uint256"
            }
          ],
          "internalType": "struct PaymentContract.Order[]",
          "name": "",
          "type": "tuple[]"
        }
      ],
      "stateMutability": "view",
      "type": "function"
    },
    {
      "inputs": [
        {
          "internalType": "string",
          "name": "pid",
          "type": "string"
        },
        {
          "internalType": "string",
          "name": "oid",
          "type": "string"
        },
        {
          "internalType": "string",
          "name": "time",
          "type": "string"
        }
      ],
      "name": "orderPicked",
      "outputs": [],
      "stateMutability": "nonpayable",
      "type": "function"
    },
    {
      "inputs": [
        {
          "components": [
            {
              "internalType": "enum PaymentContract.OrderStatus",
              "name": "status",
              "type": "uint8"
            },
            {
              "internalType": "string",
              "name": "productId",
              "type": "string"
            },
            {
              "internalType": "string",
              "name": "productName",
              "type": "string"
            },
            {
              "internalType": "address",
              "name": "farmer",
              "type": "address"
            },
            {
              "internalType": "uint256",
              "name": "totalPrice",
              "type": "uint256"
            },
            {
              "internalType": "uint256",
              "name": "totalQuantity",
              "type": "uint256"
            },
            {
              "internalType": "string",
              "name": "timeofPicked",
              "type": "string"
            },
            {
              "internalType": "string",
              "name": "timeofDelivered",
              "type": "string"
            }
          ],
          "internalType": "struct PaymentContract.Item[]",
          "name": "items",
          "type": "tuple[]"
        },
        {
          "internalType": "string",
          "name": "time",
          "type": "string"
        },
        {
          "internalType": "uint256",
          "name": "totalAmount",
          "type": "uint256"
        },
        {
          "internalType": "string",
          "name": "orderId",
          "type": "string"
        },
        {
          "internalType": "string",
          "name": "location",
          "type": "string"
        },
        {
          "internalType": "uint256",
          "name": "phone",
          "type": "uint256"
        }
      ],
      "name": "orderProduct",
      "outputs": [],
      "stateMutability": "payable",
      "type": "function"
    },
    {
      "inputs": [
        {
          "internalType": "string",
          "name": "pid",
          "type": "string"
        },
        {
          "internalType": "string",
          "name": "oid",
          "type": "string"
        },
        {
          "internalType": "string",
          "name": "time",
          "type": "string"
        }
      ],
      "name": "productDelivered",
      "outputs": [],
      "stateMutability": "nonpayable",
      "type": "function"
    }
  ],
  "bytecode": "0x608060405234801561001057600080fd5b50614753806100206000396000f3fe6080604052600436106101145760003560e01c80635e94d720116100a05780638bdb5ce6116100645780638bdb5ce6146102f9578063b151494214610319578063b51ca0af14610339578063dcf1708a14610359578063fbbf93a01461036c57600080fd5b80635e94d720146102575780635f6f80cc1461027757806384bdfcd71461029757806388905b80146102b75780638ba407f9146102d957600080fd5b80634b2b612a116100e75780634b2b612a146101a65780635087e668146101c8578063509159f4146101f5578063518bddd9146102175780635baef56d1461023757600080fd5b806305ceb8211461011957806311c9ccf61461013b578063200d6de71461015b5780632e2dc43e1461017b575b600080fd5b34801561012557600080fd5b506101396101343660046139f1565b61038e565b005b34801561014757600080fd5b50610139610156366004613af2565b610472565b34801561016757600080fd5b50610139610176366004613b0d565b61063f565b34801561018757600080fd5b50610190610848565b60405161019d9190613c42565b60405180910390f35b3480156101b257600080fd5b506101bb610d8a565b60405161019d9190613e09565b3480156101d457600080fd5b506101e86101e3366004613e60565b610ec6565b60405161019d9190613f1e565b34801561020157600080fd5b5061020a6112f8565b60405161019d9190613f31565b34801561022357600080fd5b506101e8610232366004613e60565b6115ac565b34801561024357600080fd5b50610139610252366004613b0d565b611938565b34801561026357600080fd5b50610139610272366004613b0d565b611b2c565b34801561028357600080fd5b50610139610292366004613f88565b611cce565b3480156102a357600080fd5b506101e86102b2366004613e60565b611f17565b3480156102c357600080fd5b506102cc612321565b60405161019d9190614010565b3480156102e557600080fd5b506101396102f4366004613f88565b6125d5565b34801561030557600080fd5b50610139610314366004613af2565b612813565b34801561032557600080fd5b506101e8610334366004613e60565b6129dc565b34801561034557600080fd5b50610139610354366004613b0d565b612d60565b6101396103673660046141fe565b612f5d565b34801561037857600080fd5b50610381613378565b60405161019d91906142bd565b33600081815260026020526040902080546001600160a01b03191690911781556001016103bb888261440d565b503360009081526002602081905260409091209081018790556003016103e1868261440d565b503360009081526002602052604090206004016103fe858261440d565b5033600090815260026020526040902060058101849055600601610422838261440d565b5033600090815260026020526040902060070161043f828261440d565b506040517fc8133d0532c52370de350c4858130d2be6c8cd430b301496a3539e03b9082a6090600090a150505050505050565b60005b60035481101561063b57816001600160a01b03166003828154811061049c5761049c6144cd565b60009182526020909120600460059092020101546001600160a01b03160361063357805b6003546104cf906001906144f9565b8110156105965760036104e3826001614512565b815481106104f3576104f36144cd565b906000526020600020906005020160038281548110610514576105146144cd565b600091825260209091206005909102018061052f8382614525565b5060018181019061054290840182614525565b5060028181019061055590840182614525565b5060038181019061056890840182614525565b50600491820154910180546001600160a01b0319166001600160a01b039092169190911790556001016104c0565b5060038054806105a8576105a8614600565b600082815260208120600019909201916005830201906105c882826136ea565b6105d66001830160006136ea565b6105e46002830160006136ea565b6105f26003830160006136ea565b5060040180546001600160a01b031916905590556040517f8f3cfd9f0e967c51c8a20e9651d762c6a84e8e97fe37add700680190c70dcb7090600090a15050565b600101610475565b5050565b600160005b6004548110156106e25760048181548110610661576106616144cd565b60009182526020918290206004600590920201015460405161068f926001600160a01b039092169101614616565b60405160208183030381529060405280519060200120336040516020016106b69190614616565b60405160208183030381529060405280519060200120036106da57600091506106e2565b600101610644565b508061072d5760405162461bcd60e51b81526020600482015260156024820152744661726d657220616c72656164792065786973742160581b60448201526064015b60405180910390fd5b6040805160a081018252868152602081018690529081018490526060810183905233608082015260048054600181018255600091909152815160059091027f8a35acfbc15ff81a39ae7d344fd709f28e8600b4aa8c65c6b64bfe7fe36bd19b0190819061079a908261440d565b50602082015160018201906107af908261440d565b50604082015160028201906107c4908261440d565b50606082015160038201906107d9908261440d565b5060809190910151600490910180546001600160a01b0319166001600160a01b039092169190911790556040517f5c47ff0a569e587692da604d2bf92787dd7f006684698dbd8c59539be7e35a7490610839908790879087908790614633565b60405180910390a15050505050565b60606001805480602002602001604051908101604052809291908181526020016000905b82821015610d8157838290600052602060002090600702016040518060e001604052908160008201805480602002602001604051908101604052809291908181526020016000905b82821015610b8757600084815260209020604080516101008101909152600884029091018054829060ff1660028111156108f0576108f0613bba565b600281111561090157610901613bba565b815260200160018201805461091590614388565b80601f016020809104026020016040519081016040528092919081815260200182805461094190614388565b801561098e5780601f106109635761010080835404028352916020019161098e565b820191906000526020600020905b81548152906001019060200180831161097157829003601f168201915b505050505081526020016002820180546109a790614388565b80601f01602080910402602001604051908101604052809291908181526020018280546109d390614388565b8015610a205780601f106109f557610100808354040283529160200191610a20565b820191906000526020600020905b815481529060010190602001808311610a0357829003601f168201915b505050918352505060038201546001600160a01b031660208201526004820154604082015260058201546060820152600682018054608090920191610a6490614388565b80601f0160208091040260200160405190810160405280929190818152602001828054610a9090614388565b8015610add5780601f10610ab257610100808354040283529160200191610add565b820191906000526020600020905b815481529060010190602001808311610ac057829003601f168201915b50505050508152602001600782018054610af690614388565b80601f0160208091040260200160405190810160405280929190818152602001828054610b2290614388565b8015610b6f5780601f10610b4457610100808354040283529160200191610b6f565b820191906000526020600020905b815481529060010190602001808311610b5257829003601f168201915b505050505081525050815260200190600101906108b4565b505050508152602001600182018054610b9f90614388565b80601f0160208091040260200160405190810160405280929190818152602001828054610bcb90614388565b8015610c185780601f10610bed57610100808354040283529160200191610c18565b820191906000526020600020905b815481529060010190602001808311610bfb57829003601f168201915b5050505050815260200160028201548152602001600382018054610c3b90614388565b80601f0160208091040260200160405190810160405280929190818152602001828054610c6790614388565b8015610cb45780601f10610c8957610100808354040283529160200191610cb4565b820191906000526020600020905b815481529060010190602001808311610c9757829003601f168201915b50505050508152602001600482018054610ccd90614388565b80601f0160208091040260200160405190810160405280929190818152602001828054610cf990614388565b8015610d465780601f10610d1b57610100808354040283529160200191610d46565b820191906000526020600020905b815481529060010190602001808311610d2957829003601f168201915b505050918352505060058201546001600160a01b0316602080830191909152600690920154604090910152908252600192909201910161086c565b50505050905090565b60015460609060009067ffffffffffffffff811115610dab57610dab613910565b604051908082528060200260200182016040528015610dde57816020015b6060815260200190600190039081610dc95790505b50905060005b600154811015610ec05760018181548110610e0157610e016144cd565b90600052602060002090600702016003018054610e1d90614388565b80601f0160208091040260200160405190810160405280929190818152602001828054610e4990614388565b8015610e965780601f10610e6b57610100808354040283529160200191610e96565b820191906000526020600020905b815481529060010190602001808311610e7957829003601f168201915b5050505050828281518110610ead57610ead6144cd565b6020908102919091010152600101610de4565b50919050565b610ece613727565b6000610ed8613727565b60005b6005548110156112045760058181548110610ef857610ef86144cd565b600091825260209182902060046005909202010154604051610f26926001600160a01b039092169101614616565b6040516020818303038152906040528051906020012033604051602001610f4d9190614616565b60405160208183030381529060405280519060200120036111fc576001925060058181548110610f7f57610f7f6144cd565b90600052602060002090600502016040518060a0016040529081600082018054610fa890614388565b80601f0160208091040260200160405190810160405280929190818152602001828054610fd490614388565b80156110215780601f10610ff657610100808354040283529160200191611021565b820191906000526020600020905b81548152906001019060200180831161100457829003601f168201915b5050505050815260200160018201805461103a90614388565b80601f016020809104026020016040519081016040528092919081815260200182805461106690614388565b80156110b35780601f10611088576101008083540402835291602001916110b3565b820191906000526020600020905b81548152906001019060200180831161109657829003601f168201915b505050505081526020016002820180546110cc90614388565b80601f01602080910402602001604051908101604052809291908181526020018280546110f890614388565b80156111455780601f1061111a57610100808354040283529160200191611145565b820191906000526020600020905b81548152906001019060200180831161112857829003601f168201915b5050505050815260200160038201805461115e90614388565b80601f016020809104026020016040519081016040528092919081815260200182805461118a90614388565b80156111d75780601f106111ac576101008083540402835291602001916111d7565b820191906000526020600020905b8154815290600101906020018083116111ba57829003601f168201915b5050509183525050600491909101546001600160a01b03166020909101529150611204565b600101610edb565b50816112525760405162461bcd60e51b815260206004820152601860248201527f417574686f7269747920646f65736e27742065786973742100000000000000006044820152606401610724565b83604051602001611263919061468b565b60405160208183030381529060405280519060200120816040015160405160200161128e919061468b565b60405160208183030381529060405280519060200120146112f15760405162461bcd60e51b815260206004820181905260248201527f57726f6e672070617373776f72642c506c656173652054727920416761696e216044820152606401610724565b9392505050565b60606003805480602002602001604051908101604052809291908181526020016000905b82821015610d8157838290600052602060002090600502016040518060a001604052908160008201805461134f90614388565b80601f016020809104026020016040519081016040528092919081815260200182805461137b90614388565b80156113c85780601f1061139d576101008083540402835291602001916113c8565b820191906000526020600020905b8154815290600101906020018083116113ab57829003601f168201915b505050505081526020016001820180546113e190614388565b80601f016020809104026020016040519081016040528092919081815260200182805461140d90614388565b801561145a5780601f1061142f5761010080835404028352916020019161145a565b820191906000526020600020905b81548152906001019060200180831161143d57829003601f168201915b5050505050815260200160028201805461147390614388565b80601f016020809104026020016040519081016040528092919081815260200182805461149f90614388565b80156114ec5780601f106114c1576101008083540402835291602001916114ec565b820191906000526020600020905b8154815290600101906020018083116114cf57829003601f168201915b5050505050815260200160038201805461150590614388565b80601f016020809104026020016040519081016040528092919081815260200182805461153190614388565b801561157e5780601f106115535761010080835404028352916020019161157e565b820191906000526020600020905b81548152906001019060200180831161156157829003601f168201915b5050509183525050600491909101546001600160a01b0316602091820152908252600192909201910161131c565b6115b4613727565b60006115be613727565b60005b6003548110156118ea57600381815481106115de576115de6144cd565b60009182526020918290206004600590920201015460405161160c926001600160a01b039092169101614616565b60405160208183030381529060405280519060200120336040516020016116339190614616565b60405160208183030381529060405280519060200120036118e2576001925060038181548110611665576116656144cd565b90600052602060002090600502016040518060a001604052908160008201805461168e90614388565b80601f01602080910402602001604051908101604052809291908181526020018280546116ba90614388565b80156117075780601f106116dc57610100808354040283529160200191611707565b820191906000526020600020905b8154815290600101906020018083116116ea57829003601f168201915b5050505050815260200160018201805461172090614388565b80601f016020809104026020016040519081016040528092919081815260200182805461174c90614388565b80156117995780601f1061176e57610100808354040283529160200191611799565b820191906000526020600020905b81548152906001019060200180831161177c57829003601f168201915b505050505081526020016002820180546117b290614388565b80601f01602080910402602001604051908101604052809291908181526020018280546117de90614388565b801561182b5780601f106118005761010080835404028352916020019161182b565b820191906000526020600020905b81548152906001019060200180831161180e57829003601f168201915b5050505050815260200160038201805461184490614388565b80601f016020809104026020016040519081016040528092919081815260200182805461187090614388565b80156118bd5780601f10611892576101008083540402835291602001916118bd565b820191906000526020600020905b8154815290600101906020018083116118a057829003601f168201915b5050509183525050600491909101546001600160a01b031660209091015291506118ea565b6001016115c1565b50816112525760405162461bcd60e51b815260206004820152601760248201527f437573746f6d657220646f65736e2774206578697374210000000000000000006044820152606401610724565b600160005b6005548110156119db576005818154811061195a5761195a6144cd565b600091825260209182902060046005909202010154604051611988926001600160a01b039092169101614616565b60405160208183030381529060405280519060200120336040516020016119af9190614616565b60405160208183030381529060405280519060200120036119d357600091506119db565b60010161193d565b5080611a245760405162461bcd60e51b8152602060048201526018602482015277417574686f7269747920616c72656164792065786973742160401b6044820152606401610724565b6040805160a0810182528681526020810186905290810184905260608101839052336080820152600580546001810182556000829052825191027f036b6384b5eca791c62761152d0c79bb0604c104a5fb6f4eb0703f3154bb3db001908190611a8d908261440d565b5060208201516001820190611aa2908261440d565b5060408201516002820190611ab7908261440d565b5060608201516003820190611acc908261440d565b5060809190910151600490910180546001600160a01b0319166001600160a01b039092169190911790556040517fc5818d9d7df1d0bdb4144d2e0d9ca09a1d5b05dbaea4477c8e49131d5b6623ad90610839908790879087908790614633565b33604051602001611b3d9190614616565b60408051601f1981840301815282825280516020918201203360009081526006835292909220600401549192611b7d926001600160a01b03169101614616565b6040516020818303038152906040528051906020012003611bdb5760405162461bcd60e51b8152602060048201526018602482015277417574686f7269747920616c72656164792065786973742160401b6044820152606401610724565b6040805160a0810182528581526020808201869052818301859052606082018490523360808301819052600090815260069091529190912081518190611c21908261440d565b5060208201516001820190611c36908261440d565b5060408201516002820190611c4b908261440d565b5060608201516003820190611c60908261440d565b5060809190910151600490910180546001600160a01b0319166001600160a01b039092169190911790556040517f14910ef2263f83cc85289fa1244f2f612575d7ee261d2f3b223a0943f05a0b1490611cc0908690869086908690614633565b60405180910390a150505050565b60005b600154811015611f115782604051602001611cec919061468b565b6040516020818303038152906040528051906020012060018281548110611d1557611d156144cd565b9060005260206000209060070201600301604051602001611d3691906146a7565b6040516020818303038152906040528051906020012003611f095760005b60018281548110611d6757611d676144cd565b6000918252602090912060079091020154811015611f075784604051602001611d90919061468b565b6040516020818303038152906040528051906020012060018381548110611db957611db96144cd565b90600052602060002090600702016000018281548110611ddb57611ddb6144cd565b9060005260206000209060080201600101604051602001611dfc91906146a7565b6040516020818303038152906040528051906020012003611eff57600260018381548110611e2c57611e2c6144cd565b90600052602060002090600702016000018281548110611e4e57611e4e6144cd565b60009182526020909120600890910201805460ff19166001836002811115611e7857611e78613bba565b02179055508260018381548110611e9157611e916144cd565b90600052602060002090600702016000018281548110611eb357611eb36144cd565b90600052602060002090600802016007019081611ed0919061440d565b506040517f74cd5e7dfebb0156a786c55b52978ae798c1c2003fdd43701e11ea011d8c56cf90600090a1611f07565b600101611d54565b505b600101611cd1565b50505050565b611f526040518060a001604052806060815260200160608152602001606081526020016060815260200160006001600160a01b031681525090565b33604051602001611f639190614616565b60408051601f1981840301815282825280516020918201203360009081526006835292909220600401549192611fa3926001600160a01b03169101614616565b6040516020818303038152906040528051906020012014611ffb5760405162461bcd60e51b8152602060048201526012602482015271436f7572696572204e6f742065786973742160701b6044820152606401610724565b8160405160200161200c919061468b565b60408051601f198184030181528282528051602091820120336000908152600683529290922091926120429260020191016146a7565b60405160208183030381529060405280519060200120146120a55760405162461bcd60e51b815260206004820181905260248201527f57726f6e672070617373776f72642c506c656173652054727920416761696e216044820152606401610724565b3360009081526006602052604090819020815160a081019092528054829082906120ce90614388565b80601f01602080910402602001604051908101604052809291908181526020018280546120fa90614388565b80156121475780601f1061211c57610100808354040283529160200191612147565b820191906000526020600020905b81548152906001019060200180831161212a57829003601f168201915b5050505050815260200160018201805461216090614388565b80601f016020809104026020016040519081016040528092919081815260200182805461218c90614388565b80156121d95780601f106121ae576101008083540402835291602001916121d9565b820191906000526020600020905b8154815290600101906020018083116121bc57829003601f168201915b505050505081526020016002820180546121f290614388565b80601f016020809104026020016040519081016040528092919081815260200182805461221e90614388565b801561226b5780601f106122405761010080835404028352916020019161226b565b820191906000526020600020905b81548152906001019060200180831161224e57829003601f168201915b5050505050815260200160038201805461228490614388565b80601f01602080910402602001604051908101604052809291908181526020018280546122b090614388565b80156122fd5780601f106122d2576101008083540402835291602001916122fd565b820191906000526020600020905b8154815290600101906020018083116122e057829003601f168201915b5050509183525050600491909101546001600160a01b031660209091015292915050565b60606004805480602002602001604051908101604052809291908181526020016000905b82821015610d8157838290600052602060002090600502016040518060a001604052908160008201805461237890614388565b80601f01602080910402602001604051908101604052809291908181526020018280546123a490614388565b80156123f15780601f106123c6576101008083540402835291602001916123f1565b820191906000526020600020905b8154815290600101906020018083116123d457829003601f168201915b5050505050815260200160018201805461240a90614388565b80601f016020809104026020016040519081016040528092919081815260200182805461243690614388565b80156124835780601f1061245857610100808354040283529160200191612483565b820191906000526020600020905b81548152906001019060200180831161246657829003601f168201915b5050505050815260200160028201805461249c90614388565b80601f01602080910402602001604051908101604052809291908181526020018280546124c890614388565b80156125155780601f106124ea57610100808354040283529160200191612515565b820191906000526020600020905b8154815290600101906020018083116124f857829003601f168201915b5050505050815260200160038201805461252e90614388565b80601f016020809104026020016040519081016040528092919081815260200182805461255a90614388565b80156125a75780601f1061257c576101008083540402835291602001916125a7565b820191906000526020600020905b81548152906001019060200180831161258a57829003601f168201915b5050509183525050600491909101546001600160a01b03166020918201529082526001929092019101612345565b60005b600154811015611f1157826040516020016125f3919061468b565b604051602081830303815290604052805190602001206001828154811061261c5761261c6144cd565b906000526020600020906007020160030160405160200161263d91906146a7565b604051602081830303815290604052805190602001200361280b5760005b6001828154811061266e5761266e6144cd565b60009182526020909120600790910201548110156128095784604051602001612697919061468b565b60405160208183030381529060405280519060200120600183815481106126c0576126c06144cd565b906000526020600020906007020160000182815481106126e2576126e26144cd565b906000526020600020906008020160010160405160200161270391906146a7565b6040516020818303038152906040528051906020012003612801576001808381548110612732576127326144cd565b90600052602060002090600702016000018281548110612754576127546144cd565b60009182526020909120600890910201805460ff1916600183600281111561277e5761277e613bba565b02179055508260018381548110612797576127976144cd565b906000526020600020906007020160000182815481106127b9576127b96144cd565b906000526020600020906008020160060190816127d6919061440d565b506040517f1e42b37ca27154dd8a086c1eebd42531ad87a2a5d1c3cd991b385bb7a02c8abe90600090a15b60010161265b565b505b6001016125d8565b60005b60045481101561063b57816001600160a01b03166004828154811061283d5761283d6144cd565b60009182526020909120600460059092020101546001600160a01b0316036129d457805b600454612870906001906144f9565b811015612937576004612884826001614512565b81548110612894576128946144cd565b9060005260206000209060050201600482815481106128b5576128b56144cd565b60009182526020909120600590910201806128d08382614525565b506001818101906128e390840182614525565b506002818101906128f690840182614525565b5060038181019061290990840182614525565b50600491820154910180546001600160a01b0319166001600160a01b03909216919091179055600101612861565b50600480548061294957612949614600565b6000828152602081206000199092019160058302019061296982826136ea565b6129776001830160006136ea565b6129856002830160006136ea565b6129936003830160006136ea565b5060040180546001600160a01b031916905590556040517fa0a3abb941db31e9b7a4bf5830ba0940f2556e20c9edfc788d21119091c45b5790600090a15050565b600101612816565b6129e4613727565b60006129ee613727565b60005b600454811015612d1a5760048181548110612a0e57612a0e6144cd565b600091825260209182902060046005909202010154604051612a3c926001600160a01b039092169101614616565b6040516020818303038152906040528051906020012033604051602001612a639190614616565b6040516020818303038152906040528051906020012003612d12576001925060048181548110612a9557612a956144cd565b90600052602060002090600502016040518060a0016040529081600082018054612abe90614388565b80601f0160208091040260200160405190810160405280929190818152602001828054612aea90614388565b8015612b375780601f10612b0c57610100808354040283529160200191612b37565b820191906000526020600020905b815481529060010190602001808311612b1a57829003601f168201915b50505050508152602001600182018054612b5090614388565b80601f0160208091040260200160405190810160405280929190818152602001828054612b7c90614388565b8015612bc95780601f10612b9e57610100808354040283529160200191612bc9565b820191906000526020600020905b815481529060010190602001808311612bac57829003601f168201915b50505050508152602001600282018054612be290614388565b80601f0160208091040260200160405190810160405280929190818152602001828054612c0e90614388565b8015612c5b5780601f10612c3057610100808354040283529160200191612c5b565b820191906000526020600020905b815481529060010190602001808311612c3e57829003601f168201915b50505050508152602001600382018054612c7490614388565b80601f0160208091040260200160405190810160405280929190818152602001828054612ca090614388565b8015612ced5780601f10612cc257610100808354040283529160200191612ced565b820191906000526020600020905b815481529060010190602001808311612cd057829003601f168201915b5050509183525050600491909101546001600160a01b03166020909101529150612d1a565b6001016129f1565b50816112525760405162461bcd60e51b81526020600482015260156024820152744661726d657220646f65736e27742065786973742160581b6044820152606401610724565b600160005b600354811015612e035760038181548110612d8257612d826144cd565b600091825260209182902060046005909202010154604051612db0926001600160a01b039092169101614616565b6040516020818303038152906040528051906020012033604051602001612dd79190614616565b6040516020818303038152906040528051906020012003612dfb5760009150612e03565b600101612d65565b5080612e515760405162461bcd60e51b815260206004820152601760248201527f637573746f6d657220616c7265616479206578697374210000000000000000006044820152606401610724565b6040805160a081018252868152602081018690529081018490526060810183905233608082015260038054600181018255600091909152815160059091027fc2575a0e9e593c00f959f8c92f12db2869c3395a3b0502d05e2516446f71f85b01908190612ebe908261440d565b5060208201516001820190612ed3908261440d565b5060408201516002820190612ee8908261440d565b5060608201516003820190612efd908261440d565b5060809190910151600490910180546001600160a01b0319166001600160a01b039092169190911790556040517f1b4cea3558a9e0c9f742c904e361522d01633b394adf89f8b91d8a50df89117a90610839908790879087908790614633565b833414612f9d5760405162461bcd60e51b815260206004820152600e60248201526d14185e5b595b9d0819985a5b195960921b6044820152606401610724565b336000908152602081905260409020600101612fb9838261440d565b5033600090815260208190526040902060028101829055600301612fdd848261440d565b50336000908152602081905260409020600401612ffa868261440d565b503360008181526020819052604081206005810180546001600160a01b03191690931790925560069091018590555b865181101561318e573360009081526020819052604090208751889083908110613055576130556144cd565b60209081029190910181015182546001818101855560009485529290932081516008909402018054919390929091839160ff199091169083600281111561309e5761309e613bba565b0217905550602082015160018201906130b7908261440d565b50604082015160028201906130cc908261440d565b5060608201516003820180546001600160a01b0319166001600160a01b039092169190911790556080820151600482015560a0820151600582015560c0820151600682019061311b908261440d565b5060e08201516007820190613130908261440d565b505033600090815260208190526040812080549192509083908110613157576131576144cd565b60009182526020909120600890910201805460ff1916600183600281111561318157613181613bba565b0217905550600101613029565b503360009081526020819052604081206001805480820182559252805490916007027fb10e2d527612073b26eecdfd717e6a320cf44b4afac2b0732d9fcbe2b7fa0cf601906131e0908290849061375f565b506001818101906131f390840182614525565b5060028201548160020155600382018160030190816132129190614525565b5060048181019061322590840182614525565b5060058281015490820180546001600160a01b0319166001600160a01b039092169190911790556006918201549101553360009081526020819052604081209061326f8282613866565b61327d6001830160006136ea565b600282016000905560038201600061329591906136ea565b6132a36004830160006136ea565b506005810180546001600160a01b0319169055600060069091018190555b8651811015613346578681815181106132dc576132dc6144cd565b6020026020010151606001516001600160a01b03166108fc888381518110613306576133066144cd565b6020026020010151608001519081150290604051600060405180830381858888f1935050505015801561333d573d6000803e3d6000fd5b506001016132c1565b506040517f7bab8ad11f8ad37ca148565c8640766d077c4ce878bcbfab5cfc8f5c01721d1e90600090a1505050505050565b6133c960405180610100016040528060006001600160a01b03168152602001606081526020016000815260200160608152602001606081526020016000815260200160608152602001606081525090565b336000908152600260209081526040918290208251610100810190935280546001600160a01b03168352600181018054919284019161340790614388565b80601f016020809104026020016040519081016040528092919081815260200182805461343390614388565b80156134805780601f1061345557610100808354040283529160200191613480565b820191906000526020600020905b81548152906001019060200180831161346357829003601f168201915b50505050508152602001600282015481526020016003820180546134a390614388565b80601f01602080910402602001604051908101604052809291908181526020018280546134cf90614388565b801561351c5780601f106134f15761010080835404028352916020019161351c565b820191906000526020600020905b8154815290600101906020018083116134ff57829003601f168201915b5050505050815260200160048201805461353590614388565b80601f016020809104026020016040519081016040528092919081815260200182805461356190614388565b80156135ae5780601f10613583576101008083540402835291602001916135ae565b820191906000526020600020905b81548152906001019060200180831161359157829003601f168201915b50505050508152602001600582015481526020016006820180546135d190614388565b80601f01602080910402602001604051908101604052809291908181526020018280546135fd90614388565b801561364a5780601f1061361f5761010080835404028352916020019161364a565b820191906000526020600020905b81548152906001019060200180831161362d57829003601f168201915b5050505050815260200160078201805461366390614388565b80601f016020809104026020016040519081016040528092919081815260200182805461368f90614388565b80156136dc5780601f106136b1576101008083540402835291602001916136dc565b820191906000526020600020905b8154815290600101906020018083116136bf57829003601f168201915b505050505081525050905090565b5080546136f690614388565b6000825580601f10613706575050565b601f0160209004906000526020600020908101906137249190613887565b50565b6040518060a001604052806060815260200160608152602001606081526020016060815260200160006001600160a01b031681525090565b8280548282559060005260206000209060080281019282156138565760005260206000209160080282015b8281111561385657825482548491849160ff90911690829060ff191660018360028111156137ba576137ba613bba565b02179055506001818101906137d190840182614525565b506002818101906137e490840182614525565b5060038281015490820180546001600160a01b0319166001600160a01b03909216919091179055600480830154908201556005808301549082015560068082019061383190840182614525565b5060078181019061384490840182614525565b5050509160080191906008019061378a565b5061386292915061389c565b5090565b5080546000825560080290600052602060002090810190613724919061389c565b5b808211156138625760008155600101613888565b8082111561386257805460ff1916815560006138bb60018301826136ea565b6138c96002830160006136ea565b6003820180546001600160a01b0319169055600060048301819055600583018190556138f99060068401906136ea565b6139076007830160006136ea565b5060080161389c565b634e487b7160e01b600052604160045260246000fd5b604051610100810167ffffffffffffffff8111828210171561394a5761394a613910565b60405290565b604051601f8201601f1916810167ffffffffffffffff8111828210171561397957613979613910565b604052919050565b600082601f83011261399257600080fd5b813567ffffffffffffffff8111156139ac576139ac613910565b6139bf601f8201601f1916602001613950565b8181528460208386010111156139d457600080fd5b816020850160208301376000918101602001919091529392505050565b600080600080600080600060e0888a031215613a0c57600080fd5b873567ffffffffffffffff80821115613a2457600080fd5b613a308b838c01613981565b985060208a0135975060408a0135915080821115613a4d57600080fd5b613a598b838c01613981565b965060608a0135915080821115613a6f57600080fd5b613a7b8b838c01613981565b955060808a0135945060a08a0135915080821115613a9857600080fd5b613aa48b838c01613981565b935060c08a0135915080821115613aba57600080fd5b50613ac78a828b01613981565b91505092959891949750929550565b80356001600160a01b0381168114613aed57600080fd5b919050565b600060208284031215613b0457600080fd5b6112f182613ad6565b60008060008060808587031215613b2357600080fd5b843567ffffffffffffffff80821115613b3b57600080fd5b613b4788838901613981565b95506020870135915080821115613b5d57600080fd5b613b6988838901613981565b94506040870135915080821115613b7f57600080fd5b613b8b88838901613981565b93506060870135915080821115613ba157600080fd5b50613bae87828801613981565b91505092959194509250565b634e487b7160e01b600052602160045260246000fd5b60038110613bee57634e487b7160e01b600052602160045260246000fd5b9052565b60005b83811015613c0d578181015183820152602001613bf5565b50506000910152565b60008151808452613c2e816020860160208601613bf2565b601f01601f19169290920160200192915050565b6000602080830181845280855180835260408601915060408160051b870101925083870160005b82811015613dfc57878503603f190184528151805160e080885281519088018190526101009189019082890190600581901b8a01840160005b82811015613d675760ff198c83030184528451613cc0838251613bd0565b8d810151878f850152613cd588850182613c16565b905060408201518482036040860152613cee8282613c16565b9150506060820151613d0b60608601826001600160a01b03169052565b506080820151608085015260a082015160a085015260c082015184820360c0860152613d378282613c16565b91505060e0820151915083810360e0850152613d538183613c16565b968f0196958f019593505050600101613ca2565b508b86015194508a81038c8c0152613d7f8186613c16565b9450505050506040820151604088015260608201518782036060890152613da68282613c16565b91505060808201518782036080890152613dc08282613c16565b91505060a0820151613ddd60a08901826001600160a01b03169052565b5060c09182015196909101959095529285019290850190600101613c69565b5092979650505050505050565b600060208083016020845280855180835260408601915060408160051b87010192506020870160005b82811015613dfc57603f19888603018452613e4e858351613c16565b94509285019290850190600101613e32565b600060208284031215613e7257600080fd5b813567ffffffffffffffff811115613e8957600080fd5b613e9584828501613981565b949350505050565b6000815160a08452613eb260a0850182613c16565b905060208301518482036020860152613ecb8282613c16565b91505060408301518482036040860152613ee58282613c16565b91505060608301518482036060860152613eff8282613c16565b6080948501516001600160a01b03169590940194909452509092915050565b6020815260006112f16020830184613e9d565b600060208083016020845280855180835260408601915060408160051b87010192506020870160005b82811015613dfc57603f19888603018452613f76858351613e9d565b94509285019290850190600101613f5a565b600080600060608486031215613f9d57600080fd5b833567ffffffffffffffff80821115613fb557600080fd5b613fc187838801613981565b94506020860135915080821115613fd757600080fd5b613fe387838801613981565b93506040860135915080821115613ff957600080fd5b5061400686828701613981565b9150509250925092565b600060208083016020845280855180835260408601915060408160051b87010192506020870160005b82811015613dfc57603f19888603018452614055858351613e9d565b94509285019290850190600101614039565b803560038110613aed57600080fd5b600082601f83011261408757600080fd5b8135602067ffffffffffffffff808311156140a4576140a4613910565b8260051b6140b3838201613950565b93845285810183019383810190888611156140cd57600080fd5b84880192505b858310156141f2578235848111156140eb5760008081fd5b8801610100818b03601f19018113156141045760008081fd5b61410c613926565b614117888401614067565b81526040808401358881111561412d5760008081fd5b61413b8e8b83880101613981565b8a84015250606080850135898111156141545760008081fd5b6141628f8c83890101613981565b838501525060809150614176828601613ad6565b818401525060a0808501358284015260c0915081850135818401525060e080850135898111156141a65760008081fd5b6141b48f8c83890101613981565b84840152509284013592888411156141ce57600091508182fd5b6141dc8e8b86880101613981565b90830152508452505091840191908401906140d3565b98975050505050505050565b60008060008060008060c0878903121561421757600080fd5b863567ffffffffffffffff8082111561422f57600080fd5b61423b8a838b01614076565b9750602089013591508082111561425157600080fd5b61425d8a838b01613981565b965060408901359550606089013591508082111561427a57600080fd5b6142868a838b01613981565b9450608089013591508082111561429c57600080fd5b506142a989828a01613981565b92505060a087013590509295509295509295565b602081526142d76020820183516001600160a01b03169052565b600060208301516101008060408501526142f5610120850183613c16565b9150604085015160608501526060850151601f198086850301608087015261431d8483613c16565b935060808701519150808685030160a087015261433a8483613c16565b935060a087015160c087015260c08701519150808685030160e08701526143618483613c16565b935060e087015191508086850301838701525061437e8382613c16565b9695505050505050565b600181811c9082168061439c57607f821691505b602082108103610ec057634e487b7160e01b600052602260045260246000fd5b601f821115614408576000816000526020600020601f850160051c810160208610156143e55750805b601f850160051c820191505b81811015614404578281556001016143f1565b5050505b505050565b815167ffffffffffffffff81111561442757614427613910565b61443b816144358454614388565b846143bc565b602080601f83116001811461447057600084156144585750858301515b600019600386901b1c1916600185901b178555614404565b600085815260208120601f198616915b8281101561449f57888601518255948401946001909101908401614480565b50858210156144bd5787850151600019600388901b60f8161c191681555b5050505050600190811b01905550565b634e487b7160e01b600052603260045260246000fd5b634e487b7160e01b600052601160045260246000fd5b8181038181111561450c5761450c6144e3565b92915050565b8082018082111561450c5761450c6144e3565b818103614530575050565b61453a8254614388565b67ffffffffffffffff81111561455257614552613910565b614560816144358454614388565b6000601f821160018114614594576000831561457c5750848201545b600019600385901b1c1916600184901b1784556145f9565b600085815260209020601f19841690600086815260209020845b838110156145ce57828601548255600195860195909101906020016145ae565b50858310156145ec5781850154600019600388901b60f8161c191681555b50505060018360011b0184555b5050505050565b634e487b7160e01b600052603160045260246000fd5b60609190911b6bffffffffffffffffffffffff1916815260140190565b6080815260006146466080830187613c16565b82810360208401526146588187613c16565b9050828103604084015261466c8186613c16565b905082810360608401526146808185613c16565b979650505050505050565b6000825161469d818460208701613bf2565b9190910192915050565b60008083546146b581614388565b600182811680156146cd57600181146146e257614711565b60ff1984168752821515830287019450614711565b8760005260208060002060005b858110156147085781548a8201529084019082016146ef565b50505082870194505b5092969550505050505056fea264697066735822122020f94a59d266376b8897a2767f46ea04fcfb03ee06d8627d4a9c28f60e10367364736f6c63430008180033",
  "linkReferences": {},
  "deployedLinkReferences": {}
}